:020000040800F2
:1000000000000220451A0008D5160008D71600087F
:10001000D9160008DB160008DD16000800000000F5
:10002000000000000000000000000000DF160008D3
:10003000E116000800000000E3160008E5160008BD
:10004000951A0008951A0008951A0008951A0008D4
:10005000951A0008951A0008951A0008951A0008C4
:10006000951A0008951A0008951A0008951A0008B4
:10007000951A0008951A0008951A0008951A0008A4
:10008000951A0008951A0008ED160008951A000840
:10009000951A0008951A0008951A0008951A000884
:1000A000951A0008951A0008951A0008951A000874
:1000B000951A0008951A0008951A0008951A000864
:1000C000951A0008951A0008951A0008951A000854
:1000D000951A0008951A0008951A0008951A000844
:1000E000951A0008951A0008951A0008951A000834
:1000F000951A0008951A0008951A0008951A000824
:10010000951A0008951A0008951A0008951A000813
:10011000951A0008951A0008951A0008951A000803
:10012000951A0008951A0008951A0008951A0008F3
:10013000951A00080000000000000000951A000851
:10014000951A0008951A0008951A0008FD1600086F
:10015000951A0008951A0008951A0008951A0008C3
:10016000951A0008951A0008951A0008951A0008B3
:10017000951A0008951A0008000000000000000011
:08018000951A0008951A000809
:1001C00010B5054C237833B9044B13B10448AFF391
:1001D00000800123237010BD880B00200000000068
:1001E0000CE3000808B5034B1BB103490348AFF308
:1001F000008008BD000000008C0B00200CE300080C
:1002000081F0004102E000BF83F0004330B54FEAC7
:1002100041044FEA430594EA050F08BF90EA020F34
:100220001FBF54EA000C55EA020C7FEA645C7FEAC7
:10023000655C00F0E2804FEA5454D4EB5555B8BFEA
:100240006D420CDD2C4480EA020281EA030382EA5B
:10025000000083EA010180EA020281EA0303362DED
:1002600088BF30BD11F0004F4FEA01314FF4801CC0
:100270004CEA113102D0404261EB410113F0004FD2
:100280004FEA03334CEA133302D0524263EB430389
:1002900094EA050F00F0A780A4F10104D5F1200E27
:1002A0000DDB02FA0EFC22FA05F2801841F1000182
:1002B00003FA0EF2801843FA05F359410EE0A5F156
:1002C00020050EF1200E012A03FA0EFC28BF4CF087
:1002D000020C43FA05F3C01851EBE37101F000453D
:1002E00007D54FF0000EDCF1000C7EEB00006EEB4A
:1002F0000101B1F5801F1BD3B1F5001F0CD34908D4
:100300005FEA30004FEA3C0C04F101044FEA44522A
:1003100012F5800F80F09A80BCF1004F08BF5FEAB1
:10032000500C50F1000041EB045141EA050130BD91
:100330005FEA4C0C404141EB0101013C28BFB1F5A3
:10034000801FE9D291F0000F04BF01460020B1FAEE
:1003500081F308BF2033A3F10B03B3F120020CDAC1
:100360000C3208DD02F1140CC2F10C0201FA0CF09F
:1003700021FA02F10CE002F11402D8BFC2F1200C04
:1003800001FA02F120FA0CFCDCBF41EA0C019040BA
:10039000E41AA2BF01EB0451294330BD6FEA040403
:1003A0001F3C1CDA0C340EDC04F11404C4F12002EE
:1003B00020FA04F001FA02F340EA030021FA04F300
:1003C00045EA030130BDC4F10C04C4F1200220FA57
:1003D00002F001FA04F340EA0300294630BD21FA95
:1003E00004F0294630BD94F0000F83F4801306BF5B
:1003F00081F480110134013D4EE77FEA645C18BF4F
:100400007FEA655C29D094EA050F08BF90EA020FE5
:1004100005D054EA000C04BF1946104630BD91EADD
:10042000030F1EBF0021002030BD5FEA545C05D1E0
:100430004000494128BF41F0004130BD14F580041F
:100440003CBF01F5801130BD01F0004545F0FE4193
:1004500041F470014FF0000030BD7FEA645C1ABFC8
:10046000194610467FEA655C1CBF0B46024650EAFF
:10047000013406BF52EA033591EA030F41F400212B
:1004800030BD00BF90F0000F04BF0021704730B5B1
:100490004FF4806404F132044FF000054FF0000186
:1004A00050E700BF90F0000F04BF0021704730B547
:1004B0004FF4806404F1320410F0004548BF40421C
:1004C0004FF000013EE700BF42004FEAE2014FEA71
:1004D00031014FEA02701FBF12F07F4393F07F4F4C
:1004E00081F06051704732F07F4208BF704793F04F
:1004F0007F4F04BF41F40021704730B54FF4607462
:1005000001F0004521F000411CE700BF50EA010264
:1005100008BF704730B54FF000050AE050EA01020D
:1005200008BF704730B511F0004502D5404261EB7D
:1005300041014FF4806404F132045FEA915C3FF4BE
:10054000D8AE4FF003025FEADC0C18BF03325FEA5B
:10055000DC0C18BF033202EBDC02C2F1200300FA0C
:1005600003FC20FA02F001FA03FE40EA0E0021FA31
:1005700002F11444BDE600BF4FF0FF3C06E000BFAF
:100580004FF0010C02E000BF4FF0010C4DF804CD1C
:100590004FEA410C7FEA6C5C4FEA430C18BF7FEADC
:1005A0006C5C1BD001B050EA410C0CBF52EA430C0A
:1005B00091EA030F02BF90EA020F0020704710F18A
:1005C000000F91EA030F58BF994208BF90422CBF19
:1005D000D8176FEAE37040F0010070474FEA410C12
:1005E0007FEA6C5C02D150EA013C07D14FEA430C30
:1005F0007FEA6C5CD6D152EA033CD3D05DF8040BA1
:10060000704700BF8446104662468C4619466346D2
:1006100000E000BF01B5FFF7B7FF002848BF10F1A9
:10062000000F01BD4DF808EDFFF7F4FF0CBF0120EE
:1006300000205DF808FB00BF4DF808EDFFF7EAFF6A
:1006400034BF012000205DF808FB00BF4DF808ED25
:10065000FFF7E0FF94BF012000205DF808FB00BF1A
:100660004DF808EDFFF7CEFF94BF012000205DF8A4
:1006700008FB00BF4DF808EDFFF7C4FF34BF0120B1
:1006800000205DF808FB00BF4FEA4102B2F1E043F1
:1006900024BFB3F5001CDCF1FE5C0DD901F0004C69
:1006A0004FEAC0024CEA5070B2F1004F40EB8300B9
:1006B00008BF20F00100704711F0804F21D113F1E5
:1006C0003872BCBF01F00040704741F480114FEA1E
:1006D0005252C2F11802C2F1200C10FA0CF320FAA7
:1006E00002F018BF40F001004FEAC1234FEAD323C4
:1006F00003FA0CFC40EA0C0023FA02F34FEA43032E
:10070000CCE77FEA625307D150EA01331EBF4FF0B6
:10071000FE4040F44000704701F0004040F0FE40D1
:1007200040F40000704700BF53B94AB9002908BF20
:1007300000281CBF4FF0FF314FF0FF3000F074B9BC
:10074000ADF1080C6DE904CE00F006F8DDF804E028
:10075000DDE9022304B070472DE9F047089D044607
:100760008E46002B4DD18A42944669D9B2FA82F264
:1007700052B101FA02F3C2F1200120FA01F10CFAA0
:1007800002FC41EA030E94404FEA1C48210CBEFBD8
:10079000F8F61FFA8CF708FB16E341EA034306FB61
:1007A00007F199420AD91CEB030306F1FF3080F0F0
:1007B0001F81994240F21C81023E63445B1AA4B23D
:1007C000B3FBF8F008FB103344EA034400FB07F7DF
:1007D000A7420AD91CEB040400F1FF3380F00A8120
:1007E000A74240F207816444023840EA0640E41B15
:1007F00000261DB1D4400023C5E900433146BDE8C1
:10080000F0878B4209D9002D00F0EF800026C5E962
:10081000000130463146BDE8F087B3FA83F6002E7A
:100820004AD18B4202D3824200F2F980841A61EBF2
:10083000030301209E46002DE0D0C5E9004EDDE710
:1008400002B9FFDEB2FA82F2002A40F09280A1EBF8
:100850000C014FEA1C471FFA8CFE0126200CB1FB4D
:10086000F7F307FB131140EA01410EFB03F0884246
:1008700008D91CEB010103F1FF3802D2884200F2D3
:10088000CB804346091AA4B2B1FBF7F007FB101165
:1008900044EA01440EFB00FEA64508D91CEB040403
:1008A00000F1FF3102D2A64500F2BB800846A4EB5E
:1008B0000E0440EA03409CE7C6F12007B34022FA49
:1008C00007FC4CEA030C20FA07F401FA06F31C4378
:1008D000F9404FEA1C4900FA06F3B1FBF9F8200C85
:1008E0001FFA8CFE09FB181140EA014108FB0EF0CB
:1008F000884202FA06F20BD91CEB010108F1FF3A1B
:1009000080F08880884240F28580A8F10208614426
:10091000091AA4B2B1FBF9F009FB101144EA014134
:1009200000FB0EFE8E4508D91CEB010100F1FF34DF
:100930006CD28E456AD90238614440EA0840A0FB77
:100940000294A1EB0E01A142C846A64656D353D04D
:100950005DB1B3EB080261EB0E0101FA07F722FA71
:1009600006F3F1401F43C5E9007100263146BDE89A
:10097000F087C2F12003D8400CFA02FC21FA03F3FD
:10098000914001434FEA1C471FFA8CFEB3FBF7F07E
:1009900007FB10360B0C43EA064300FB0EF69E42A3
:1009A00004FA02F408D91CEB030300F1FF382FD23C
:1009B0009E422DD9023863449B1B89B2B3FBF7F6E4
:1009C00007FB163341EA034106FB0EF38B4208D9BD
:1009D0001CEB010106F1FF3816D28B4214D9023EFE
:1009E0006144C91A46EA004638E72E46284605E71C
:1009F0000646E3E61846F8E64B45A9D2B9EB0208ED
:100A000064EB0C0E0138A3E74646EAE7204694E77C
:100A10004046D1E7D0467BE7023B614432E73046AF
:100A200009E76444023842E7704700BF0000000055
:100A300001F0FF01102A2BDB10F0070F08D010F88F
:100A4000013B013A8B422DD010F0070F42B3F6D193
:100A5000F0B441EA012141EA014122F007047FF0AC
:100A600000070023F0E80256083C85EA010586EA03
:100A7000010685FA47F5A3FA87F586FA47F6A5FA3F
:100A800087F68EB9EED1F0BC01F0FF0102F007024B
:100A900032B110F8013B013A83EA010313B1F8D1F6
:100AA0000020704701387047002D06BF35460338D7
:100AB000073815F0010F07D1013015F4807F02BF10
:100AC000013015F4C03F0130F0BC0138704700BF61
:100AD000844641EA000313F003036DD1403A41D349
:100AE00051F8043B40F8043B51F8043B40F8043B08
:100AF00051F8043B40F8043B51F8043B40F8043BF8
:100B000051F8043B40F8043B51F8043B40F8043BE7
:100B100051F8043B40F8043B51F8043B40F8043BD7
:100B200051F8043B40F8043B51F8043B40F8043BC7
:100B300051F8043B40F8043B51F8043B40F8043BB7
:100B400051F8043B40F8043B51F8043B40F8043BA7
:100B500051F8043B40F8043B51F8043B40F8043B97
:100B6000403ABDD2303211D351F8043B40F8043B37
:100B700051F8043B40F8043B51F8043B40F8043B77
:100B800051F8043B40F8043B103AEDD20C3205D347
:100B900051F8043B40F8043B043AF9D2043208D03F
:100BA000D2071CBF11F8013B00F8013B01D30B88B1
:100BB00003806046704700BF082A13D38B078DD08F
:100BC00010F003038AD0C3F10403D21ADB071CBF61
:100BD00011F8013B00F8013B80D331F8023B20F8CB
:100BE000023B7BE7043AD9D3013A11F8013B00F804
:100BF000013BF9D20B7803704B7843708B7883708C
:100C00006046704700000000000000000000000087
:100C100000000000000000000000000000000000D4
:100C200000000000000000000000000000000000C4
:100C300000000000000000000000000000000000B4
:100C400090F800F06DE9024520F007016FF0000C0C
:100C500010F0070491F820F040F049804FF00004B4
:100C60006FF00700D1E9002391F840F000F108008F
:100C700082FA4CF2A4FA8CF283FA4CF3A2FA8CF3C7
:100C80004BBBD1E9022382FA4CF200F10800A4FA2E
:100C90008CF283FA4CF3A2FA8CF3E3B9D1E9042382
:100CA00082FA4CF200F10800A4FA8CF283FA4CF3B9
:100CB000A2FA8CF37BB9D1E9062301F1200182FA73
:100CC0004CF200F10800A4FA8CF283FA4CF3A2FA79
:100CD0008CF3002BC6D0002A04BF04301A4612BA87
:100CE000B2FA82F2FDE8024500EBD2007047D1E98A
:100CF000002304F00305C4F100004FEAC50514F019
:100D0000040F91F840F00CFA05F562EA05021CBFE9
:100D100063EA050362464FF00004A9E770B54FF09F
:100D2000FF0C4CF4E06C1CEA11541DBF1CEA135577
:100D300094EA0C0F95EA0C0F00F0DEF82C4481EADF
:100D4000030621EA4C5123EA4C5350EA013518BFFF
:100D500052EA033541F4801143F4801338D0A0FBEC
:100D600002CE4FF00005E1FB02E506F00042E0FB99
:100D700003E54FF00006E1FB03569CF0000F18BF9F
:100D80004EF0010EA4F1FF04B6F5007F64F5407447
:100D900004D25FEA4E0E6D4146EB060642EAC621DA
:100DA00041EA55514FEAC52040EA5E504FEACE2E47
:100DB000B4F1FD0C88BFBCF5E06F1ED8BEF1004F4A
:100DC00008BF5FEA500E50F1000041EB045170BDC6
:100DD00006F0004646EA010140EA020081EA03010A
:100DE000B4EB5C04C2BFD4EB0C0541EA045170BD06
:100DF00041F480114FF0000E013C00F3AB8014F180
:100E0000360FDEBF002001F0004170BDC4F10004C8
:100E1000203C35DA0C341BDC04F11404C4F1200549
:100E200000FA05F320FA04F001FA05F240EA0200A4
:100E300001F0004221F0004110EBD37021FA04F6DA
:100E400042EB06015EEA430E08BF20EAD37070BD94
:100E5000C4F10C04C4F1200500FA04F320FA05F0F3
:100E600001FA04F240EA020001F0004110EBD370F5
:100E700041F100015EEA430E08BF20EAD37070BD65
:100E8000C4F1200500FA05F24EEA020E20FA04F33E
:100E900001FA05F243EA020321FA04F001F00041ED
:100EA00021FA04F220EA020000EBD3705EEA430E5E
:100EB00008BF20EAD37070BD94F0000F0FD101F08D
:100EC0000046400041EB010111F4801F08BF013CC6
:100ED000F7D041EA060195F0000F18BF704703F004
:100EE0000046520043EB030313F4801F08BF013D8B
:100EF000F7D043EA0603704794EA0C0F0CEA135547
:100F000018BF95EA0C0F0CD050EA410618BF52EA00
:100F10004306D1D181EA030101F000414FF0000006
:100F200070BD50EA410606BF1046194652EA430614
:100F300019D094EA0C0F02D150EA013613D195EA88
:100F40000C0F05D152EA03361CBF104619460AD1D0
:100F500081EA030101F0004141F0FE4141F47001DA
:100F60004FF0000070BD41F0FE4141F4780170BDCA
:100F700070B54FF0FF0C4CF4E06C1CEA11541DBF2F
:100F80001CEA135594EA0C0F95EA0C0F00F0A7F831
:100F9000A4EB050481EA030E52EA03354FEA01315E
:100FA00000F088804FEA03334FF0805545EA131371
:100FB00043EA12634FEA022245EA111545EA106539
:100FC0004FEA00260EF000419D4208BF964244F1D0
:100FD000FD0404F5407402D25B084FEA3202B61AEF
:100FE00065EB03055B084FEA32024FF480104FF4C3
:100FF000002CB6EB020E75EB030E22BFB61A754637
:1010000040EA0C005B084FEA3202B6EB020E75EBC9
:10101000030E22BFB61A754640EA5C005B084FEA31
:101020003202B6EB020E75EB030E22BFB61A7546FE
:1010300040EA9C005B084FEA3202B6EB020E75EB09
:10104000030E22BFB61A754640EADC0055EA060ECA
:1010500018D04FEA051545EA16754FEA06164FEA0D
:10106000C30343EA52734FEAC2025FEA1C1CC0D1B9
:1010700011F4801F0BD141EA00014FF000004FF046
:10108000004CB6E711F4801F04BF01430020B4F107
:10109000FD0C88BFBCF5E06F3FF6AFAEB5EB030CBF
:1010A00004BFB6EB020C5FEA500C50F1000041EBBC
:1010B000045170BD0EF0004E4EEA113114EB5C0489
:1010C000C2BFD4EB0C0541EA045170BD41F480115C
:1010D0004FF0000E013C90E645EA060E8DE60CEA64
:1010E000135594EA0C0F08BF95EA0C0F3FF43BAF81
:1010F00094EA0C0F0AD150EA01347FF434AF95EA38
:101100000C0F7FF425AF104619462CE795EA0C0F1B
:1011100006D152EA03353FF4FDAE1046194622E7E8
:1011200050EA410618BF52EA43067FF4C5AE50EAC2
:1011300041047FF40DAF52EA43057FF4EBAE12E7B2
:101140004FEA410C7FEA6C5C02D150EA013C0AD1C3
:101150004FEA430C7FEA6C5C02D152EA033C02D1B5
:101160004FF0000070474FF0010070474FEA410216
:1011700012F5001215D211D56FF47873B3EB6252E9
:1011800012D94FEAC12343F0004343EA505311F010
:10119000004F23FA02F018BF404270474FF00000A2
:1011A000704750EA013005D111F0004008BF6FF0E0
:1011B000004070474FF00000704700BF10B58CB082
:1011C0000024089409940A940B942022214668462E
:1011D00006F0D2FD2B482C4B03604FF48033436064
:1011E000846001230361047680F82040C462274AAA
:1011F0008262C460C36180F83040446100F04CFDFD
:10120000002830D101230893099300230A9308A9E9
:101210001C4800F011FE48BB0123009301930323F7
:101220000493002302934FF40012079206938DF863
:1012300015308DF8143003936946124800F06EFFA4
:10124000B8B902230093019369460E4800F066FF87
:1012500090B903230093019369460A4800F05EFFAA
:1012600068B90CB010BD00F049F9CBE700F046F9C1
:10127000D2E700F043F9E4E700F040F9E9E700F0D5
:101280003DF9EEE7A40B0020002001400100000F13
:1012900010B588B000230393049305930693079336
:1012A000026803F1804303F590339A4201D008B0FD
:1012B00010BD0024019403F58C335A6C42F4807203
:1012C0005A645A6C02F480720192019A02941A6B69
:1012D00042F001021A631B6B03F001030293029BAD
:1012E0000E2303930323049303A9064801F012F984
:1012F00022460221122001F02BF8122001F060F8A2
:10130000D5E700BF0000024000B583B00023009382
:1013100001931048104B036001F074F880B900226B
:101320000092019269460B4801F0C9F858B91022A1
:101330006946084801F0C3F840B903B05DF804FB02
:1013400000F0DCF8EBE700F0D9F8F0E700F0D6F8B1
:10135000F3E700BFEC0B00200074004000B589B03B
:101360000023039304930593069307930268134B9A
:101370009A4202D009B05DF804FB0021019103F507
:10138000E2331A6C42F000521A641A6C02F00052F6
:101390000192019A02911A6B42F001021A631B6BCF
:1013A00003F001030293029B30230393032304936E
:1013B00003A9034801F0AEF8DCE700BF0074004069
:1013C0000000024070B588B0002403940494059492
:1013D0000694079400941C4B1A6B42F080021A6327
:1013E0001A6B02F080020092009A01941A6B42F08C
:1013F00001021A631A6B02F001020192019A02942F
:101400001A6B42F002021A631B6B03F00203029391
:10141000029B0E4D22464121284601F06DF901261E
:10142000039604960594069403A9284601F072F8E1
:1014300040230393049605940323069303A92846A7
:1014400001F068F808B070BD0038024000000240AA
:1014500008B50B480B4B03600B4B436000238360C4
:10146000C3604FF48042026143618361C3610362E0
:1014700001F09EFB00B908BD00F040F8FBE700BF9B
:10148000000C002000540040801A060030B589B0DE
:101490000023039304930593069307930268144B68
:1014A0009A4201D009B030BD00250195114C236B43
:1014B00043F002032363236B03F002030193019BB8
:1014C000C023039312230493032306930423079357
:1014D00003A9094801F01EF80295236C43F4001398
:1014E0002364236C03F400130293029BDAE700BF2A
:1014F00000540040003802400004024072B6FEE78B
:1015000000B595B03022002108A806F035FC002374
:10151000039304930593069307930193204A116C58
:1015200041F080511164126C02F080520192019AD4
:1015300002931C4B1A6842F480421A601B6803F441
:1015400080430293029B012308934FF48033099355
:1015500002230E934FF480020F9204221092A822CD
:10156000119212930723139308A802F08DFC98B9E7
:101570000F23039302230493002305934FF4A053F6
:1015800006934FF480530793052103A802F0E2FE6F
:1015900020B915B05DF804FBFFF7B0FFFFF7AEFF11
:1015A000003802400070004000B589B0002303936A
:1015B00004930593069307930193114A116C41F02C
:1015C00080511164126C02F080520192019A0293D0
:1015D0000C4A116841F480411160126802F48042A3
:1015E0000292029A012203920493052103A802F0B9
:1015F000B1FE10B909B05DF804FBFFF77FFF00BF33
:10160000003802400070004000B58DB0302200214B
:10161000684606F0B1FB02230093684602F034FCF2
:1016200010B90DB05DF804FBFFF768FF08B500F0D6
:1016300059FAFFF7B9FFFFF763FFFFF7E5FFFFF781
:10164000C1FE00F06DF9FFF7B9FDFFF75DFEFFF792
:10165000FFFE00F0C3F806F05FF80D4806F0C8F88A
:1016600004F012FA04F036FB04F0C8FC04F054FE57
:1016700004F09CFF04F0BEFF04F012FF054806F0E2
:10168000B7F804F011FE0121034801F03BF8F8E738
:1016900028E300084CE300080000024082B000216B
:1016A00000910B4B5A6C42F480425A645A6C02F41B
:1016B00080420092009A01911A6C42F080521A64A2
:1016C0001B6C03F080530193019B02B0704700BF75
:1016D00000380240FEE7FEE7FEE7FEE7FEE7704760
:1016E0007047704708B500F017FA08BD08B5024802
:1016F00000F000FB08BD00BFA40B002008B50248A5
:1017000002F0B4F808BD00BFC822002001207047D5
:1017100008B506F007FB162303604FF0FF3008BD45
:1017200008B54FF0FF31FFF7F3FFFEE770B50C4649
:101730001646002506E0AFF30080214601F8010BB4
:1017400001350C46B542F6DB304670BD70B50C462F
:101750001646002504E014F8010BAFF300800135B4
:10176000B542F8DB304670BD4FF0FF3070474FF4A4
:1017700000534B60002070470120704700207047E5
:1017800010B503460C4A0D490D48006840B10C489D
:1017900000680344521A934206D8094A136010BDE8
:1017A0000748084C0460F2E706F0BCFA0C2303601B
:1017B0004FF0FF30F3E700BF0000022000080000F8
:1017C000540C0020402A0020034AD2F8883043F409
:1017D0007003C2F88830704700ED00E000B587B0B4
:1017E00000230293039304930593009301931648F7
:1017F0004FF080420260A722426083604FF0FF32C8
:10180000C26003618023836102F0D2FF90B94FF47C
:101810008053029302A90C4803F0D5F868B900235D
:10182000009301936946084803F06AFA40B907B08B
:101830005DF804FBFFF762FEE9E7FFF75FFEEEE706
:10184000FFF75CFEF3E700BFA00C002082B0036846
:10185000104A934204D0B3F1804F0ED002B07047CB
:10186000002300930C4B5A6C42F001025A645B6CEB
:1018700003F001030093009BF0E700230193064B64
:101880001A6C42F001021A641B6C03F0010301930D
:10189000019BE3E7000001400038024070B588B0CA
:1018A0000023039304930593069307930268194B4F
:1018B0009A4201D008B070BD0024019403F59C3316
:1018C0001A6B42F002021A631A6B02F002020192D2
:1018D000019A02941A6B42F001021A631B6B03F027
:1018E00001030293029B4FF4604303930226049684
:1018F0000125079503A9084800F00CFE4FF4E063AA
:101900000393049605940694079503A9034800F0F1
:1019100001FECFE700000140000402400000024049
:1019200030B597B000241294139414941594109425
:10193000119409940A940B940C940D940E940F94A2
:1019400020252A46214601A806F016FA3B483C4BC2
:101950000360446085604FF47A63C360046144614E
:101960008023836102F024FF00284CD14FF4805380
:10197000129312A9314803F026F8002846D12F48C7
:1019800002F042FF002844D100231093119310A9C4
:101990002A4803F0B5F900283ED1602309930022BC
:1019A0000A920B920C920D920E920F9209A9234863
:1019B00002F08EFF002832D1042209A91F4802F04C
:1019C00087FF78BB082209A91C4802F081FF60BB91
:1019D0000C2209A9194802F07BFF48BB00230193A0
:1019E000029303930422049205934FF4005206924B
:1019F000089301A9114803F0C9F9E0B90F48FFF7AE
:101A00004DFF17B030BDFFF779FDAFE7FFF776FD6B
:101A1000B5E7FFF773FDB7E7FFF770FDBDE7FFF729
:101A20006DFDC9E7FFF76AFDCCE7FFF767FDCFE77C
:101A3000FFF764FDD2E7FFF761FDDFE7580C0020F8
:101A400000000140DFF834D00D480E490E4A002353
:101A500002E0D458C4500433C4188C42F9D30B4A62
:101A60000B4C002301E013600432A242FBD3FFF7CA
:101A7000ABFE06F05DF9FFF7D9FD704700000220CC
:101A800000000020880B00202CF00008880B0020AC
:101A90003C2A0020FEE7000010B504460E4B1878E3
:101AA0004FF47A73B3FBF0F30C4A1068B0FBF3F019
:101AB00000F094FC68B90F2C01D901200AE0002243
:101AC00021464FF0FF3000F043FC054B1C60002026
:101AD00000E0012010BD00BF040000200000002035
:101AE0000800002008B50B4B1A6842F400721A6017
:101AF0001A6842F480621A601A6842F480721A60AE
:101B0000032000F013FC0F20FFF7C6FFFFF7C6FD10
:101B1000002008BD003C0240034A1168034B1B78BB
:101B20000B441360704700BFE80C00200400002045
:101B3000014B1868704700BFE80C002038B5044618
:101B4000FFF7F6FF0546B4F1FF3F02D0044B1B78C8
:101B50001C44FFF7EDFF401BA042FAD338BD00BF85
:101B6000040000204A4B5A6822F440325A605A68F6
:101B700041680A435A600268536823F480735360D3
:101B800002685368016943EA01235360026853689D
:101B900023F0407353600268536881680B435360BD
:101BA0000268936823F40063936002689368C168D5
:101BB0000B439360826A374B9A4257D0026893680E
:101BC00023F07063936002689368816A0B439360AB
:101BD0000268936823F04053936002689368C16A77
:101BE0000B4393600268936823F0020393600268DA
:101BF0009368017E43EA4103936090F82030002B04
:101C00003FD00268536843F400635360026853682E
:101C100023F46043536001684B68426A013A43EA27
:101C200042334B600268D36A23F47003D3620168C5
:101C3000CB6AC269013A43EA0253CB6202689368F5
:101C400023F4007393600268936890F8301043EABD
:101C5000412393600268936823F480639360026871
:101C60009368416943EA81239360704702689368EF
:101C700023F0706393600268936823F0405393608D
:101C8000B0E70268536823F400635360CAE700BFFB
:101C9000002301400100000F38B310B50446036C67
:101CA00043B1236C13F0100F0BD00120002384F8F4
:101CB0003C3010BDFFF7ECFA0023636484F83C303D
:101CC000EFE7236C23F4885323F0020343F002036D
:101CD00023642046FFF746FF00206064236C23F056
:101CE000030343F001032364E0E7012070477047DA
:101CF0007047704770B5044603681E685D6816F04B
:101D0000020F2FD005F0200262B3026C12F0100F08
:101D100003D1026C42F4007202649A6812F0405FD0
:101D200019D1227EBAB9DA6A12F4700F03D09A6818
:101D300012F4806F0FD15A6822F020025A60236C8F
:101D400023F480732364236C13F4805F03D1236C2A
:101D500043F0010323642046FFF7C9FF23686FF0B7
:101D600012021A6005F0800316F0040F37D0002B22
:101D700035D0236C13F0100F03D1236C43F40053C0
:101D8000236423689A6812F4401F21D19A6B12F4DD
:101D9000401F03D09A6812F4806F19D15A6812F468
:101DA000806F15D19A6812F0405F11D1227E7AB906
:101DB0005A6822F080025A60236C23F48053236413
:101DC000236C13F4807F03D1236C43F0010323645D
:101DD000204604F0B5FA23686FF00C021A6005F093
:101DE000400316F0010F05D023B123681B6813F0E0
:101DF000010F06D105F0806516F0200F00D065B9FF
:101E000070BD236C43F4803323642046FFF770FFDA
:101E100023686FF001021A60ECE7636C43F0020381
:101E2000636423686FF020051D602046FFF761FFA3
:101E300023681D60E4E7000030B482B00023019302
:101E400090F83C30012B00F0BB80012380F83C303F
:101E50000B68092B41D90468E2689BB203EB43038A
:101E60001E3B4FF0070C0CFA03F322EA0303E36076
:101E70000468E2680B8803EB43031E3B8D6805FA98
:101E800003F31343E3604B68062B3DD80468626B91
:101E900003EB8303053B4FF01F0C0CFA03F322EA1C
:101EA000030363630468626B4B6803EB8303053BC6
:101EB000B1F800C00CFA03F3134363630268414BAB
:101EC0009A4251D002683F4B9A4256D0002380F884
:101ED0003C30184602B030BC7047046822699BB29F
:101EE00003EB43034FF0070C0CFA03F322EA03035E
:101EF0002361046822690B8803EB43038D6805FAAC
:101F000003F313432361BEE70C2B16D805682A6B35
:101F100003EB8303233B1F2404FA03F322EA0303A6
:101F20002B6305682A6B4B6803EB8303233B0C8808
:101F300004FA03F313432B63C0E70568EA6A03EB73
:101F40008303413B1F2404FA03F322EA0303EB62F9
:101F50000568EA6A4B6803EB8303413B0C8804FA8B
:101F600003F31343EB62A9E70B68122BAAD1164ABD
:101F7000536843F480035360A4E70B68103B012BC4
:101F8000A4D8114A536843F4000353600B68102B24
:101F90009CD10E4B1B6802F1467202F52E3202F202
:101FA0008332A2FB03239B0C03EB83035B000193AF
:101FB00002E0019B013B0193019B002BF9D185E7D6
:101FC000022087E70020014000230140000000209C
:101FD00082B00023019390F83C30012B6CD0012398
:101FE00080F83C3003689A6812F0010F13D19A68A8
:101FF00042F001029A60354B1B68354AA2FB03236D
:102000009B0C03EB4303019302E0019B013B019313
:10201000019B002BF9D10268936813F0010F40D0A7
:10202000036C23F4405323F0010343F4805303640F
:10203000036C13F4807F01D100234364002380F8F4
:102040003C306FF0040313600268536843F0800370
:102050005360204B5B6813F01F0F0ED1026891682C
:10206000536803F4806311F4401F27D143BB936886
:1020700043F48003936000201CE003689A6802F434
:102080004012596801F480611348834201D0002056
:1020900010E0BAB9C1B99A6842F480029A6000208F
:1020A00008E0036C43F010030364436C43F0010346
:1020B0004364002002B070470220FBE70020F9E7EC
:1020C0000020F7E70020F5E70020F3E700000020FC
:1020D00083DE1B43002301400020014082B0002327
:1020E000019303686FF004021A600139032906D8CE
:1020F000DFE801F0100C080203689B6C0193019863
:1021000002B0704703685B6C0193F8E703681B6CCF
:102110000193F4E70368DB6B0193F0E790F83C3040
:10212000012B00F0FB8030B4012380F83C300B68B9
:10213000092B7FD90568EA689BB203EB43031E3B7A
:10214000072404FA03F322EA0303EB600568EA6854
:102150008C680B8803EB43031E3B04FA03F3134321
:10216000EB600268936B23F4401393630468A36BE2
:102170000A69013A43EA0253A3630468A26B4B68FD
:102180000D695B1BDBB20333DBB203EB83034FF060
:102190001F0C0CFA03F322EA0303A3630468A26B87
:1021A0004B680D695B1BDBB20333DBB203EB8303CC
:1021B000B1F800C00CFA03F31343A3638A69584BC8
:1021C0009A424DD00268936823F4702393600268AA
:1021D00093688C69234393600268936823F44013E7
:1021E000936002689368CC69234393604B7D002B16
:1021F00041D00268536843F4806353600B7D002B29
:102200003FD00268536843F4805353604B68022BFD
:1022100057D0032B62D0012B39D00268136A23F404
:102220007F6323F00F0313620268136ACC682343B1
:10223000136238E005682A699BB203EB4303072465
:1022400004FA03F322EA03032B6105682A698C6808
:102250000B8803EB430304FA03F313432B6180E77A
:102260000268936823F4702393600268936823F4F0
:1022700040139360BAE70268536823F480635360A5
:10228000BCE70268536823F480535360BEE70268DA
:10229000536923F47F6323F00F035361026853698A
:1022A000CC682343536102681E4B9A4223D00268D4
:1022B0001C4B9A4228D0002380F83C30184630BC92
:1022C00070470268936923F47F6323F00F039361DF
:1022D00002689369CC6823439361E4E70268D36999
:1022E00023F47F6323F00F03D3610268D369CC68C2
:1022F0002343D361D7E70B68122BD8D10A4A53681E
:1023000043F480035360D2E70B68103B012BD2D813
:10231000054A536843F400035360CCE7022070473A
:1023200001000F000020014000230140074AD3684C
:1023300023F4E0631B041B0C000200F4E060034381
:1023400043F0BF6343F40033D360704700ED00E017
:1023500000B5194BDB68C3F30223C3F1070CBCF1D2
:10236000040F28BF4FF0040C03F1040EBEF1060F5A
:1023700018D9033B4FF0FF3E0EFA0CFC21EA0C018A
:1023800099400EFA03F322EA0303194300280BDBFA
:102390000901C9B200F1604000F5614080F8001306
:1023A0005DF804FB0023E5E700F00F000901C9B266
:1023B000024B1954F4E700BF00ED00E014ED00E01B
:1023C000002807DB00F01F02400901239340024A66
:1023D00042F82030704700BF00E100E00138B0F162
:1023E000807F0BD24FF0E0235861054AF02182F83C
:1023F00023100020986107221A617047012070475E
:1024000000ED00E070B110B50446037933B102234A
:102410002371002020610123237110BD4371FEF759
:102420009DFFF4E7012070474379012B2ED010B4B3
:1024300001234371022202710468226801F0100C2A
:1024400003FA0CF31343236091B90268136803F095
:102450003C033C2B07D00123037100234371184632
:102460005DF8044B7047536843F001035360F2E793
:1024700001680A6802F470123C2303FA0CFC6245FE
:10248000E9D14B6843F002034B60E4E70220704758
:1024900010B483B0002401940068019051B90199EF
:1024A0000A4408320192019A1360002003B05DF8DB
:1024B000044B704701990A4414320192F3E74379BF
:1024C000012B25D010B54FF0010E80F805E0022356
:1024D00003710468236802F0100240F6FE7C0CFAD7
:1024E00002FC23EA0C0C0B6849680B43934043EA57
:1024F0000C03236004682368C02101FA02F223EA76
:102500000202226080F804E000234371184610BDE7
:102510000220704700230F2B00F2E48070B582B0D8
:1025200060E085685E000324B44025EA0405CC68B9
:10253000B4402C438460456825EA02054C68C4F326
:1025400000129A402A4342605AE0DC08083450F8EE
:10255000246003F0070295000F22AA4026EA020E2B
:102560000A69AA4042EA0E0240F824205CE00722F1
:1025700000E0002202FA0EF22A4302345A4D45F8D6
:1025800024205A4A94686FEA0C0224EA0C054E682B
:1025900016F4801F01D04CEA0405544CA560E46891
:1025A00002EA04054E6816F4001F01D04CEA040547
:1025B0004E4CE560646802EA04054E6816F4003F7C
:1025C00001D04CEA0405494C6560246822404D68FE
:1025D00015F4803F01D04CEA0402444C22600133E0
:1025E0000F2B7DD801229A400C6804EA020C32EAD3
:1025F0000404F4D14C6804F00304013C012C90D98C
:102600004A6802F00302032A09D0C4685D0003226D
:10261000AA4024EA02048A68AA402243C2604A68A7
:1026200002F00302022A90D004684FEA430E03220C
:1026300002FA0EF224EA02044A6802F0030202FAE5
:102640000EF2224302604A6812F4403FC7D00022D3
:102650000192274A546C44F480445464526C02F44E
:1026600080420192019A9C08A51C1F4A52F82550ED
:1026700003F003024FEA820E0F2202FA0EF225EA5D
:1026800002051C4A90423FF474AF02F5806290420A
:102690001AD002F58062904218D002F58062904212
:1026A00016D002F58062904214D002F5806290420A
:1026B00012D002F58062904210D002F58062904202
:1026C0003FF455AF082255E7012253E7022251E7B4
:1026D00003224FE704224DE705224BE7062249E794
:1026E00002B070BD704700BF00380140003C01409F
:1026F00000380240000002400AB1816170470904BD
:1027000081617047436901EA030221EA030141EA5A
:1027100002418161704703685A6912F4806F01D1E8
:10272000002070476FF480625A6100230363202207
:1027300080F83D2080F83E30026C42F004020264D2
:1027400080F83C30012070472DE9F04107460D46E6
:1027500090461E4624E0FFF7EBF9069BC01AB042F4
:1027600000D8EEB900233B63202287F83D2087F88C
:102770003E303A6C42F020023A6487F83C30012047
:102780001EE03B689C6925EA040C1FFA8CFCBCFA2D
:102790008CFC4FEA5C1CE04511D1B6F1FF3FDAD169
:1027A000C5F30743012BECD13B685B6925EA030CB9
:1027B0001FFA8CFCBCFA8CFC4FEA5C1CEBE7002097
:1027C000BDE8F0812DE9F04105460E4617469846D2
:1027D0003DE01A6842F400721A602B686FF4806260
:1027E0005A6100232B63202285F83D2085F83E3076
:1027F0002A6C42F004022A6485F83C30012034E05F
:10280000FFF796F9A0EB0800B84200D8FFB9002303
:102810002B63202285F83D2085F83E302A6C42F05B
:1028200020022A6485F83C3001201EE02B689C6958
:1028300026EA0404A4B2003C18BF0124A4B12B680A
:102840005A6912F4806FC4D1B7F1FF3FD8D1C6F3F3
:102850000743012BEAD12B685C6926EA0404A4B281
:10286000003C18BF0124E9E70020BDE8F08170B505
:1028700004460D46164623685B6913F0800F1CD191
:102880002046FFF748FFD0B9B5F1FF3FF3D0FFF77F
:102890004FF9801BA84201D8002DECD100232363FF
:1028A000202284F83D2084F83E30226C42F0200241
:1028B000226484F83C30012000E0002070BD01203B
:1028C000FCE700002DE9F04385B004460D46914633
:1028D0001F46DDF830800D9E0368196841F4807151
:1028E00019600096434600224FF00111FFF72CFFBC
:1028F00060B9236805F0FE051D613346424626494E
:102900002046FFF75FFF68B1012008E023681B68DD
:1029100013F4807F02D04FF400732364032005B0CA
:10292000BDE8F0830023039323685A6903929B69EF
:102930000393039B324641462046FFF798FF30B988
:10294000012F0FD123685FFA89F61E61E7E7236C38
:10295000042B01D00120E2E72268136843F40073DE
:102960001360F7E723684FEA19221A61324641469D
:102970002046FFF77CFF20B923685FFA89F61E61C5
:10298000CDE7236C042B01D00120C8E7226813682F
:1029900043F400731360F7E7020001002DE9F047EC
:1029A00084B004460D46164699460C9FDDF83480E7
:1029B0000268136843F4806313600368196841F484
:1029C00080711960CDF800803B4600224FF0011164
:1029D000FFF7BAFE70B95FFA85FA236805F0FE05C5
:1029E0001D6143463A4641492046FFF7EBFE68B178
:1029F000012008E023681B6813F4807F02D04FF4A5
:102A000000732364032004B0BDE8F0870023039320
:102A100023685A6903929B690393039B4246394694
:102A20002046FFF724FF80B9B9F1010F18D12368C0
:102A3000F6B21E61424639462046FFF718FF68B3DA
:102A4000236C042B24D00120DDE7236C042B01D060
:102A50000120D8E72268136843F400731360F7E796
:102A60002368320A1A61424639462046FFF7FFFEC4
:102A700018B92368F6B21E61DCE7236C042B01D081
:102A80000120C0E72268136843F400731360F7E77E
:102A90002268136843F400731360D4E72268136854
:102AA00043F480731360CDF800803B4600224FF062
:102AB00001112046FFF748FE68B922684AF0010379
:102AC000136143463A4609492046FFF77BFE00283A
:102AD00099D0012097E723681B6813F4807F02D008
:102AE0004FF40073236403208DE700BF0200010050
:102AF00070B504460D46164623685B6913F0040F53
:102B00001CD12046FFF707FED0B9B5F1FF3FF3D047
:102B1000FFF70EF8801BA84201D8002DECD100234E
:102B20002363202284F83D2084F83E30226C42F05A
:102B30002002226484F83C30012000E0002070BDB7
:102B40000120FCE770B505460C4616462B6859690E
:102B500011F0400F29D1596911F0100F15D1FEF76E
:102B6000E7FF801BA04201D8002CEFD100232B638C
:102B7000202285F83D2085F83E302A6C42F0200264
:102B80002A6485F83C30012070BD6FF010025A6154
:102B900000232B63202285F83D2085F83E302A6CE7
:102BA0002A6485F83C300120EEE70020ECE70000C5
:102BB000002800F0CC8070B5044690F83D30002B22
:102BC00077D0242384F83D302268136823F0010372
:102BD00013602268136843F400431360226813688B
:102BE00023F40043136001F06BFC62685A4B9A4275
:102BF00064D85A4B98428CBF00230123002B40F02D
:102C0000A8805749A1FB00318B0C25686A6822F027
:102C10003F0242EA91426A6021680A6A22F03F025A
:102C200066684D4DAE424FD8013313430B622168A5
:102C3000CA6922F44F4222F0FF026668464B9E4268
:102C40004CD8431E7600B3FBF6F3013340F6FC701C
:102C5000034278D0C3F30B031343CB6121680B68A5
:102C600023F0C003E269206A024313430B6021682A
:102C70008B6823F4034323F0FF032269E0680243D7
:102C800013438B602168CB6823F0FF036269A0695E
:102C900002431343CB602268136843F001031360BF
:102CA00000202064202384F83D30206384F83E0017
:102CB00070BD80F83C30FEF7E9FB82E7294B984273
:102CC0008CBF0023012399E74FF4967505FB03F3AE
:102CD000254DA5FB03539B090133A6E7A368BBB9A8
:102CE000451E06EB460CB5FBFCF50135C5F30B059F
:102CF000B5FA85F56D0945BBC3B9013806EB460346
:102D0000B0FBF3F30133C3F30B0343F40043A3E736
:102D1000451E06EB860C0CEB8C0CB5FBFCF5013567
:102D2000C5F30B05B5FA85F56D09E4E7013806EB47
:102D3000860303EB8303B0FBF3F30133C3F30B030D
:102D400043F4404388E7042386E7012384E7012016
:102D500070470120ACE700BFA08601007F841E0001
:102D600083DE1B43FF083D00D34D62102DE9F04385
:102D700083B004460F46904699460C9EFEF7D8FE57
:102D8000054694F83D00C0B2202803D0022003B0CD
:102D9000BDE8F0830095192301224B492046FFF737
:102DA000D3FC002840F0898094F83C30012B00F0DF
:102DB0008680012384F83C3023681A6812F0010FE2
:102DC00003D11A6842F001021A602268136823F4E2
:102DD00000631360212384F83D30402384F83E30A3
:102DE000002323640A9B6362BDF82C306385638DE6
:102DF0002385364BE362019500964B4642463946A1
:102E00002046FFF75FFD00285BD1238D002B35D0D6
:102E10002A4631462046FFF72AFD20BB626A236816
:102E200012781A61626A531C6362218D013989B27A
:102E30002185638D9BB2013B9BB2638523685869F2
:102E400010F0040FE1D00029DFD052781A61636AD4
:102E500001336362238D013B2385638D9BB2013B6C
:102E60009BB26385D1E7236C042B01D001208EE750
:102E70002268136843F400731360F7E72A4631466B
:102E80002046FFF735FE50B1236C042B01D0012002
:102E90007DE72268136843F400731360F7E7226844
:102EA000136843F400731360202384F83D3000233B
:102EB00084F83E3084F83C3069E7022067E702205E
:102EC00065E7012063E700BF020010000000FFFF7C
:102ED0002DE9F04387B004460F4690469946109E70
:102EE000FEF726FE054694F83D00C0B2202804D027
:102EF0000227384607B0BDE8F08300951923012268
:102F000088492046FFF720FC002840F0438194F8D0
:102F10003C30012B00F04081012384F83C302368D1
:102F20001A6812F0010F03D11A6842F001021A6008
:102F30002268136823F400631360222384F83D3071
:102F4000402384F83E30002323640E9B6362BDF867
:102F50003C306385638D2385734BE3620195009656
:102F60004B46424639462046FFF718FD07460028E3
:102F700040F01481238D5BB9029323685A69029251
:102F80009A690292029A1A6842F400721A6075E015
:102F9000012B0AD0022B1AD00023059323685A690B
:102FA00005929B690593059B68E02268136823F4EA
:102FB000806313600023039323685A6903929A691C
:102FC0000392039A1A6842F400721A6056E022686B
:102FD000136823F4806313602268136843F400636A
:102FE00013600023049323685A6904929B69049335
:102FF000049B43E02A4631462046FFF7A3FD002804
:1030000040F0CE8023681A69636A1A70636A0133DC
:103010006362238D013B2385638D9BB2013B9BB291
:1030200063852BE000953346002240492046FFF798
:103030008BFB002840F0B6802268136843F40073CD
:10304000136023681A69636A1A70626A531C6362A8
:10305000238D013B2385638D9BB2013B9BB263852E
:1030600023681B695370636A01336362238D013BDC
:103070002385638D9BB2013B9BB26385238D002B1F
:103080007FD0032B54D8012BB4D0022BCAD000958B
:103090003346002225492046FFF756FB002840F022
:1030A00083802268136823F48063136023681A699D
:1030B000636A1A70636A01336362238D013B23855F
:1030C000638D9BB2013B9BB2638500953346002222
:1030D00016492046FFF738FB002867D1226813689D
:1030E00043F40073136023681A69636A1A70626A92
:1030F000531C6362238D013B2385638D9BB2013B8F
:103100009BB2638523681B695370636A01336362F2
:10311000238D013B2385638D9BB2013B9BB263856D
:10312000ACE700BF020010000000FFFF0400010038
:103130002A4631462046FFF705FD002838D123688E
:103140001A69636A1A70626A531C6362238D013BB9
:103150002385638D9BB2013B9BB2638523685969CC
:1031600011F0040F8AD01B695370636A01336362E4
:10317000238D013B2385638D9BB2013B9BB263850D
:103180007CE7202384F83D30002384F83E3084F827
:103190003C30AEE60227ACE60227AAE60127A8E605
:1031A0000127A6E60127A4E60127A2E60127A0E65B
:1031B00001279EE62DE9F04383B0D0F8008001EBB3
:1031C000C10300EB8303DA6D5B6D9A4254D8074666
:1031D0000C469B1A01EBC10200EB8202926C9A42F0
:1031E00000D31A4602F103094FEA990915E006F1E6
:1031F00003094FEA990904EBC40507EB8505E96C5F
:103200003B7C0093B3B2E2B2404602F0B4F9EB6CFF
:103210003344EB64EB6D3344EB6508EB441303F587
:1032200010639B699BB24B4512D304EBC40207EBBE
:103230008202D16D536D99420AD24BB15B1A04EBF5
:10324000C40207EB8202966C9E42D0D31E46CEE7A4
:1032500004EBC40007EB80077A6DFB6D9A420FD830
:1032600004F00F040123A340D8F8344824EA0304EF
:10327000C8F83448002000E0012003B0BDE8F08326
:103280000020FAE770B58AB0002800F0908005466B
:10329000046890F8BD343BB3032385F8BD34E36B79
:1032A00013F4807F01D100232B61286801F07EFE9A
:1032B0002C4654F8106BEC460FCCACE80F000FCC4A
:1032C000ACE80F0094E803008CE803002B1D0ECB44
:1032D000304601F0ADFD044658B1022385F8BD34F7
:1032E000012420460AB070BD80F8BC3404F032FBE3
:1032F000D2E70021286802F055FB234616E003EBD5
:10330000C30205EB8202012182F83D1082F83C30B5
:10331000A2F84430002182F840109164D16403EB9C
:10332000C30205EB820251650133DBB269688B424F
:10333000E5D316E004EBC40305EB8303002283F816
:103340007D2283F87C4283F88022C3F88822C3F868
:103350008C2204EBC40305EB8303C3F894220134ED
:10336000E4B2A142E6D82C4654F8106BEC460FCCE0
:10337000ACE80F000FCCACE80F0094E803008CE839
:1033800003002B1D0ECB304601F06CFE044620B12D
:10339000022385F8BD340124A3E7002385F83830E3
:1033A000012385F8BD34286802F0B9FA99E70124B1
:1033B00097E7026890F8BC34012B19D010B5044689
:1033C000012380F8BC34836A012B09D0206801F006
:1033D000E7FD206802F095FA002084F8BC0410BDD7
:1033E0008369012BF2D0936B43F480339363EDE751
:1033F0000220704770B504460D460068066C00EB6D
:10340000411303F530639A682169012911D03849C5
:103410008E4256D03DB905EBC50304EB8303D3F8C8
:103420009432002B5ED0E9B2204604F0DDFA002091
:1034300070BD12F0080F09D02E498E42F7D912F450
:10344000004FF4D04FF400429A60F0E712F0200FE2
:1034500002D020229A60EAE712F0280FE7D125492E
:103460008E4206D912F4004F03D04FF400429A6006
:10347000DDE705EBC50204EB8202D2F898121B6966
:10348000C3F31203CB1AC2F89C327DB905EBC50217
:1034900004EB8202D2F894226AB105EBC50204EB78
:1034A0008202D2F88C120B44C2F88C32E9B2204668
:1034B00004F09AFABBE704F2C442012102F0B4FA24
:1034C000F4E712F4004F03D04FF400429A60AEE7E5
:1034D00012F0200F01D020229A60E9B2204604F0B9
:1034E00083FAA4E704F2C442002102F09DFA9AE7AD
:1034F0000A31544F0A30544F38B5044603681D6CE6
:1035000003EB4113D3F8081B0E4A954207D903F584
:10351000306311F4004F02D04FF400429A6020460D
:1035200004F05AFA074B9D4202D92369012B01D0BE
:10353000002038BD04F2C4420121206802F074FA70
:10354000F6E700BF0A30544F90F8BC34012B0DD081
:1035500010B50446012380F8BC3480F838100068A8
:1035600002F0BFF9002084F8BC0410BD02207047AF
:1035700038B505468C4611F0800F29D101F00F0EA9
:103580000EEBCE04A40004F51E740444211D0EEBC2
:10359000CE0E00EB8E0E00208EF87D020CF00F0C8C
:1035A00081F800C0CA600B714A780AB1A1F808C05E
:1035B000022B1DD095F8BC34012B1CD0012385F8BB
:1035C000BC34286801F027FE002085F8BC0438BD13
:1035D00001F00F0000EBC0018900383129440431AB
:1035E00000EBC00005EB8000012480F83D40D5E7EA
:1035F00000234B71DEE70220E9E710B504460A46D6
:1036000011F0800F20D101F00F0000EBC0039B00F0
:1036100003F51E732344191D00EBC00004EB80006A
:10362000002380F87D3202F00F020A7094F8BC3457
:10363000012B19D0012384F8BC34206801F03AFE34
:10364000002084F8BC0410BD01F00F0000EBC003A3
:103650009B0038332344191D00EBC00004EB8000AD
:10366000012380F83D30DEE70220ECE710B501F0E1
:103670000F0404EBC401890001F51E7101440431FB
:1036800004EBC40C00EB8C0CCCF88C22CCF89432FC
:103690000023CCF89C328CF87D328CF87C42036994
:1036A000012B06D064B9DAB2006801F073FE002085
:1036B00010BD04EBC40C00EB8C0CCCF89022F1E7AD
:1036C000DAB2006801F06EFFF1E701F00F0101EBE3
:1036D000C10100EB8101D1F89C02704710B501F0E7
:1036E0000F0404EBC401890038310144043104EBB8
:1036F000C40C00EB8C0CCCF84C20CCF854300023DC
:10370000CCF85C3001238CF83D308CF83C400369E8
:10371000012B06D064B9DAB2006801F03BFE00204C
:1037200010BD04EBC40C00EB8C0CCCF85020F1E77E
:10373000DAB2006801F036FFF1E738B501F00F05A5
:103740004268954239D804460B4611F0800F1FD1CC
:1037500001EBC101890001F51E710144043103EB45
:10376000C30300EB8303002283F87D2201238B70C7
:103770000D7094F8BC34012B21D0012384F8BC34A3
:10378000206802F053F88DB1002084F8BC0438BDE5
:1037900005EBC501890038310144043105EBC5034F
:1037A00000EB8303012283F83D20DFE704F2C442EB
:1037B000217C206802F038F9E6E70120E7E70220E3
:1037C000E5E701F00F034268934231D810B5044693
:1037D00011F0800F1ED103EBC301890001F51E71AA
:1037E0000144043103EBC30200EB8202002082F8A3
:1037F0007D0200228A700B7094F8BC34012B19D022
:10380000012384F8BC34206802F03DF8002084F8DD
:10381000BC0410BD03EBC3018900383101440431FD
:1038200003EBC30200EB8202012082F83D00E0E7D7
:10383000012070470220ECE708B511F0800F0CD191
:1038400001F00F0101EBC101890001F51E71014476
:103850000431006801F030FE08BD01F00F0101EBFA
:10386000C1018900383101440431F2E72DE9F04FFC
:1038700083B004460568284602F090F810B103B002
:10388000BDE8F08F0646206802F057F80028F6D011
:1038900005F50067BB68C3F30D23C4F8FC3420684A
:1038A00002F04BF810F0020F04D02268536903F0C5
:1038B00002035361206802F040F810F0100F13D09B
:1038C0002268936923F010039361D5F8208008F0F3
:1038D0000F09C8F34343022B4BD0062B6FD022684D
:1038E000936943F010039361206802F026F810F406
:1038F000002F76D1206802F020F810F4802F40F0DD
:10390000E080206802F019F80028C0F26381206886
:1039100002F013F810F4006F09D0BB6813F0010F28
:1039200040F070812268536903F40063536120689A
:1039300002F003F810F4805F40F06881206801F025
:10394000FCFF10F4005F40F0B581206801F0F5FF46
:1039500010F0080F40F0C681206801F0EEFF10F073
:10396000800F00F0D981AB6923F08003AB610126A1
:10397000C2E147F6F07318EA030FB0D04FEA181B04
:103980004FEAC903019309EBC90A04EB8A0AC8F399
:103990000A12DAF88C12284601F01EFFCBF30A0B4C
:1039A000DAF88C325B44CAF88C32019B4B4404EB4E
:1039B0008303D3F89C325B44CAF89C328FE7082219
:1039C00004F2C441284601F007FFC8F30A1809EBC6
:1039D000C90204EB8202D2F89C324344C2F89C3202
:1039E0007DE7206801F0ADFF8046B14635E005EB8C
:1039F00049130122C3F8082B49462046FFF7FAFC79
:103A00003CE005EB49130822C3F8082B4946204641
:103A1000FFF772FD35E009EBC90304EB830393F86C
:103A20007F32012B41D005EB49130222C3F8082B4A
:103A30001AF0200F04D005EB49132022C3F8082BFD
:103A40001AF4005F05D005EB49134FF40052C3F898
:103A5000082B09F101094FEA5808B8F1000F3FF4AB
:103A600049AF18F0010FF4D05FFA89FB594620687E
:103A700001F077FF824610F0010FB8D11AF0080F5D
:103A8000BFD11AF0100F04D005EB49131022C3F870
:103A9000082B1AF0020FCBD06B6913F0800FBAD04D
:103AA0007B6843F480637B60B5E709EBC90304EBF3
:103AB0008303002283F87F225946204603F0E6FF65
:103AC000B1E7206801F045FF8046B14625E0594640
:103AD000204603F095FF1AF0080F04D005EB4913B8
:103AE0000822C3F808291AF0100F04D005EB491377
:103AF0001022C3F808291AF0400F04D005EB49132F
:103B00004022C3F808291AF0020F40D11AF0800FA2
:103B10005BD109F101094FEA5808B8F1000F3FF4F1
:103B2000F0AE18F0010FF4D05FFA89FB5946206817
:103B300001F020FF824610F0010FCCD009F00F03F6
:103B4000012101FA03F27B6B23EA02037B6305EB9D
:103B50004913C3F8081923698B42B8D109EBC9038B
:103B600004EB8303996CDA6C0A44DA64B9F1000F50
:103B7000ADD109EBC90304EB83035B6D002BA6D128
:103B800004F2C4420121206801F04EFF9FE749463C
:103B9000284601F011FA09EBC90304EB830393F8FB
:103BA0003F30012B05D005EB49130222C3F8082949
:103BB000ACE709EBC90304EB8303002283F83F2041
:103BC0005946204603F068FFEDE749462046FFF7D7
:103BD000F1FA9EE77B6823F001037B6094F8F434EC
:103BE000012B08D0204603F04BFF2268536903F0F5
:103BF000004353618BE6002184F8F414204600F062
:103C000041F9F2E7204603F023FF8BE67B6823F0BF
:103C100001037B601021206801F0CEF91AE005EB6A
:103C200046134FF67F31C3F80819D3F8002922F460
:103C30000012C3F80029C3F8081BD3F8002B22F4A4
:103C40000012C3F8002BD3F8002B42F00062C3F837
:103C5000002B01366368B342E1D8FB6943F00113DE
:103C6000FB61236BDBB1D7F8843043F00B03C7F85B
:103C700084307B6C43F00B037B64D5F8003823F46D
:103C8000FE63C5F8003804F2C442217C206801F0CC
:103C9000CBFE2268536903F4805353614EE67B697F
:103CA00043F4005343F02B037B613B6943F00B0368
:103CB0003B61E2E7206801F0A6FE206801F09AFA75
:103CC000E060266800F0F6FB0146227B304601F0FA
:103CD000F5F8204603F0A5FE2268536903F400536B
:103CE000536132E6204603F096FE2268536903F0E2
:103CF0000803536130E601366368B3420CD906EB22
:103D0000C60304EB830393F87F32012BF3D1F1B2A6
:103D10002046FFF791FDEEE7206801F00EFE10F45B
:103D2000801F27D1206801F008FE10F4001F5BD02F
:103D3000012328E001366368B3421DD905EB461321
:103D4000D3F8002906EBC60304EB830393F8403055
:103D5000012BEFD1002AEDDA06EBC60304EB830357
:103D6000012283F83F2066F07F01C9B22046FFF7A9
:103D700063FDDFE70126DEE72268536903F4801361
:103D80005361CFE7013362689A4228D905EB4312A9
:103D9000D2F8001B03EBC30204EB820292F88022EC
:103DA000012AEFD10029EDDA01F48031D4F8FC24A6
:103DB00002F001029142E5D103EBC30204EB82025F
:103DC000012182F87F12AA6942F08002AA616A6921
:103DD00012F0800FD6D17B6843F400737B602268B9
:103DE000536903F400135361206801F0A6FD10F03D
:103DF000804F10D1206801F0A0FD10F0040F3FF4B7
:103E00003EAD23685D6815F0040F0DD1226853683C
:103E10002B43536033E5204603F044FE2268536988
:103E200003F080435361E5E7204603F041FEEDE7F0
:103E300010B40468606A31B940EA0240A062002010
:103E40005DF8044B70478C46A36A00EB13400023D7
:103E500008E003F1400104EB8101496800EB1140E7
:103E60000133DBB20CF1FF318B42F2D340EA024066
:103E70000CF13F0104EB81014860E0E703685962FF
:103E80000020704770470000002800F0E08170B506
:103E900082B00446036813F0010F3BD09F4B9B6830
:103EA00003F00C03042B2CD09C4B9B6803F00C03F9
:103EB000082B21D06368B3F5803F4FD0B3F5A02F16
:103EC00052D0964B1A6822F480321A601A6822F493
:103ED00080221A606368002B50D0FDF729FE05464A
:103EE0008E4B1B6813F4003F14D1FDF721FE401BDD
:103EF0006428F5D90320B1E1884B5B6813F4800F87
:103F0000D8D0864B1B6813F4003F03D06368002BA6
:103F100000F09F81236813F0020F54D07F4B9B6801
:103F200013F00C0F3ED07D4B9B6803F00C03082B65
:103F300033D0E368002B68D0794B01221A60FDF77B
:103F4000F7FD0546754B1B6813F0020F54D1FDF7C2
:103F5000EFFD401B0228F5D903207FE16F4A13686B
:103F600043F480331360B5E76C4B1A6842F4802247
:103F70001A601A6842F480321A60ABE7FDF7D8FD88
:103F80000546664B1B6813F4003FC3D0FDF7D0FD18
:103F9000401B6428F5D9032060E1604B5B6813F493
:103FA000800FC6D15D4B1B6813F0020F03D0E3688E
:103FB000012B40F05081594A136823F0F80321691E
:103FC00043EAC1031360236813F0080F42D063690A
:103FD0006BB3534B0122C3F8802EFDF7A9FD0546B4
:103FE0004E4B5B6F13F0020F34D1FDF7A1FD401B68
:103FF0000228F5D9032031E1484A136823F0F80379
:10400000216943EAC1031360DDE7454B00221A60D2
:10401000FDF78EFD0546414B1B6813F0020FD2D011
:10402000FDF786FD401B0228F5D9032016E13C4B25
:104030000022C3F8802EFDF77BFD0546374B5B6FF2
:1040400013F0020F06D0FDF773FD401B0228F5D9CF
:10405000032003E1236813F0040F77D02F4B1B6C70
:1040600013F0805F33D1002301932C4B1A6C42F084
:1040700080521A641B6C03F080530193019B01254D
:10408000284B1B6813F4807F23D0A368012B34D006
:10409000052B38D0214B1A6F22F001021A671A6FD4
:1040A00022F004021A67A368002B3DD0FDF740FD03
:1040B00006461A4B1B6F13F0020F46D1FDF738FD71
:1040C000801B41F288339842F3D90320C6E00025D3
:1040D000D6E7144A136843F480731360FDF728FD94
:1040E0000646104B1B6813F4807FCED1FDF720FDF0
:1040F000801B0228F5D90320B0E0084A136F43F073
:1041000001031367CFE7054B1A6F42F004021A67E9
:104110001A6F42F001021A67C5E700BF003802407B
:104120000000474200700040FDF702FD0646524B7A
:104130001B6F13F0020F08D0FDF7FAFC801B41F251
:1041400088339842F3D9032088E0EDB9A369002BA6
:1041500000F08380484A926802F00C02082A51D08D
:10416000022B17D0454B00221A66FDF7E1FC0446EE
:10417000414B1B6813F0007F42D0FDF7D9FC001BB8
:104180000228F5D9032069E03B4A136C23F08053E1
:104190001364DBE7394B00221A66FDF7C9FC0546BC
:1041A000354B1B6813F0007F06D0FDF7C1FC401BA8
:1041B0000228F5D9032051E0E369226A1343626AB9
:1041C00043EA8213A26A5208013A43EA0243E26ACE
:1041D00043EA0263284A5360284B01221A66FDF71E
:1041E000A7FC0446244B1B6813F0007F06D1FDF7A3
:1041F0009FFC001B0228F5D903202FE000202DE0B2
:1042000000202BE0012B2BD01B4B5B6803F48001BB
:10421000E269914226D103F03F02216A8A4223D10A
:10422000616A47F6C0721A40B2EB811F1ED103F4D7
:104230004031A26A5208013AB1EB024F18D103F0A3
:104240007063E26AB3EB026F14D1002006E0012034
:104250007047012002E0012000E0002002B070BDA4
:104260000120FBE70120F9E70120F7E70120F5E74E
:104270000120F3E70120F1E7003802400000474247
:1042800008B5314B9B6803F00C03042B57D0082B67
:1042900057D12D4B5A6802F03F025B6813F4800F30
:1042A0002AD0294B5968C1F3881C4FEA4C11B1EB55
:1042B0000C006EEB0E0E4FEA8E1343EA9063810101
:1042C000091A63EB0E03DB0043EA5173C90011EBDB
:1042D0000C0C43F10003590200234FEA4C2041EA41
:1042E000DC51FCF721FA184B5B68C3F3014301333F
:1042F0005B00B0FBF3F025E0134B5968C1F3881C59
:104300004FEA4C11B1EB0C006EEB0E0E4FEA8E1320
:1043100043EA90638101091A63EB0E03DB0043EA71
:104320005173C90011EB0C0C43F1000399020023F7
:104330004FEA8C2041EA9C51FCF7F6F9D3E7034899
:1043400000E0034808BD00BF0038024000127A00B8
:104350000024F400002800F09B8070B50D46044650
:104360004F4B1B6803F007038B4208D2CBB24C4A79
:104370001370136803F007038B4240F08B802368AF
:1043800013F0020F17D013F0040F04D0454A9368BE
:1043900043F4E0539360236813F0080F04D0414ABC
:1043A000936843F4604393603E4A936823F0F003BC
:1043B000A1680B439360236813F0010F32D0636848
:1043C000012B21D09A1E012A25D9364A126812F0F3
:1043D000020F61D033498A6822F0030213438B60D5
:1043E000FDF7A6FB06462F4B9B6803F00C036268A3
:1043F000B3EB820F16D0FDF79BFB801B41F2883395
:104400009842F0D9032042E0264A126812F4003F95
:10441000E0D101203BE0234A126812F0007FD9D19D
:10442000012034E01E4B1B6803F00703AB4207D9A1
:10443000EAB21B4B1A701B6803F00703AB422DD185
:10444000236813F0040F06D0164A936823F4E05350
:10445000E1680B439360236813F0080F07D0114AFB
:10446000936823F46043216943EAC1039360FFF733
:1044700007FF0C4B9B68C3F303130B4AD35CD84074
:104480000A4B18600A4B1868FDF706FB002070BD48
:10449000012070470120FAE70120F8E70120F6E744
:1044A000003C02400038024074E300080000002095
:1044B00008000020014B1868704700BF0000002072
:1044C00008B5FFF7F7FF044B9B68C3F38223034A49
:1044D000D35CD84008BD00BF0038024084E3000828
:1044E00030B4036A23F001030362036A42688469FB
:1044F00024F073040D682C4323F0020C8B6843EA0C
:104500000C03104DA84203D005F58065A84205D1E3
:1045100023F00803CD682B4323F00403094DA84280
:1045200003D005F58065A84205D122F440724D699B
:104530002A438D692A43426084614A684263036268
:1045400030BC70470000014030B4036A23F480732C
:104550000362036A4268C46924F0730C0C6844EA7D
:104560000C0523F400738C6843EA0423114CA04229
:1045700003D004F58064A04206D123F40063CC6824
:1045800043EA042323F480630A4CA04203D004F5D9
:104590008064A04207D122F440524C6942EA0412DE
:1045A0008C6942EA04124260C5614A68C2630362D0
:1045B00030BC70470000014030B4036A23F48053DC
:1045C0000362036A4468C26922F4E6420D6842EA63
:1045D000052223F400538D6843EA0533094DA842B0
:1045E00003D005F58065A84204D124F480444D69C8
:1045F00044EA85144460C2614A680264036230BCC4
:10460000704700BF0000014010B4036A046A24F040
:1046100001040462846924F0F00C4CEA021223F0D5
:104620000A030B43826103625DF8044B704710B4C8
:10463000046A24F0100404628469036A24F4704C50
:104640004CEA023223F0A00343EA011382610362C1
:104650005DF8044B7047836823F070030B4343F00D
:10466000070383607047000090F83D30DBB2012BF8
:1046700032D1022380F83D300368194A934220D09A
:10468000B3F1804F1DD0A2F57C42934219D002F5C0
:104690008062934215D002F58062934211D002F5F8
:1046A000784293420DD002F57052934209D0A2F5A0
:1046B0009432934205D01A6842F001021A60002039
:1046C00070479A6802F00702062A07D01A6842F07B
:1046D00001021A60002070470120704700207047D7
:1046E00000000140704700000368304A904212D039
:1046F000B0F1804F0FD0A2F57C4290420BD002F572
:104700008062904207D002F58062904203D002F5A9
:104710007842904203D123F070034A681343234A3E
:1047200090422AD0B0F1804F27D0A2F57C4290422F
:1047300023D002F5806290421FD002F58062904241
:104740001BD002F57842904217D002F57052904289
:1047500013D002F5806290420FD002F58062904241
:104760000BD0A2F59832904207D002F580629042B9
:1047700003D002F58062904203D123F44073CA68EB
:10478000134323F080034A69134303608B68C362B9
:104790000B688362054B984203D003F5806398420F
:1047A00001D10B690363012343617047000001409D
:1047B00040B310B5044690F83D30F3B1022384F8BD
:1047C0003D30214651F8040BFFF78EFF012384F89A
:1047D000463084F83E3084F83F3084F8403084F826
:1047E000413084F8423084F8433084F8443084F80F
:1047F000453084F83D30002010BD80F83C30FDF796
:1048000025F8DBE70120704740B310B5044690F867
:104810003D30F3B1022384F83D30214651F8040BBA
:10482000FFF762FF012384F8463084F83E3084F8B5
:104830003F3084F8403084F8413084F8423084F8C6
:10484000433084F8443084F8453084F83D3000200B
:1048500010BD80F83C30FFF745FFDBE701207047D3
:1048600030B4036A23F010030362036A4468826968
:1048700022F4E6420D6842EA052223F020038D6807
:1048800043EA0513114DA84203D005F58065A842FF
:1048900006D123F08003CD6843EA051323F04003DB
:1048A0000A4DA84203D005F58065A84207D124F43B
:1048B00040644D6944EA85048D6944EA8504446096
:1048C00082614A688263036230BC70470000014025
:1048D00038B590F83C30012B66D004460D460123D4
:1048E00080F83C300C2A5AD8DFE802F007595959B1
:1048F0001B5959593059595944000068FFF7F0FDC8
:104900002268936943F0080393612268936923F056
:10491000040393612268936929690B439361002022
:104920003EE00068FFF79CFF2268936943F4006350
:1049300093612268936923F4806393612268936989
:10494000296943EA01239361002029E00068FFF709
:10495000FBFD2268D36943F00803D3612268D36961
:1049600023F00403D3612268D36929690B43D3611F
:10497000002015E00068FFF71FFE2268D36943F4AA
:104980000063D3612268D36923F48063D361226812
:10499000D369296943EA0123D361002000E00120A3
:1049A000002384F83C3038BD0220FCE710B4846852
:1049B00024F47F4C42EA03220A4342EA0C0282605A
:1049C0005DF8044B704790F83C30012B78D010B55F
:1049D0000446012380F83C30022380F83D30026811
:1049E000936823F47F4323F0770393600B68602B75
:1049F0004CD029D8402B54D00CD9502B22D1CA6886
:104A000049680068FFF700FE50212068FFF723FE89
:104A1000002005E0202B0DD009D9302B0AD0012031
:104A2000012384F83D30002384F83C3010BD0BB1E5
:104A3000102B05D119462068FFF70DFE0020EFE787
:104A40000120EDE70120EBE7B3F5805F34D0B3F54B
:104A5000005F0CD1CB684A6889680068FFF7A6FF41
:104A60002268936843F4804393600020D8E7702B5A
:104A700024D1CB684A6889680068FFF797FF2268ED
:104A8000936843F0770393600020C9E7CA684968D8
:104A90000068FFF7CCFD60212068FFF7DCFD0020F7
:104AA000BEE7CA6849680068FFF7AEFD402120688C
:104AB000FFF7D1FD0020B3E70020B1E70120AFE709
:104AC0000220704701F01F01012303FA01FC036A71
:104AD00023EA0C030362036A02FA01F10B43036247
:104AE0007047000010B504460846002942D194F8EA
:104AF0003E30DBB2013B18BF0123002B6ED10028F2
:104B000051D1022384F83E30012201462068FFF78C
:104B1000D9FF2368334A934203D002F5806293425F
:104B200003D15A6C42F400425A6423682D4A9342DE
:104B300049D0B3F1804F46D0A2F57C42934242D097
:104B400002F5806293423ED002F5806293423AD0F1
:104B500002F57842934236D002F57052934232D039
:104B6000A2F5943293422ED01A6842F001021A60E4
:104B7000002032E0042908D008290DD094F84130F3
:104B8000DBB2013B18BF0123B7E794F83F30DBB23B
:104B9000013B18BF0123B0E794F84030DBB2013B82
:104BA00018BF0123A9E7042805D0082807D002234D
:104BB00084F84130A8E7022384F83F30A4E70223B9
:104BC00084F84030A0E79A6802F00702062A07D06E
:104BD0001A6842F001021A60002010BD0120FCE7B3
:104BE0000020FAE70000014001F01F01042303FA4E
:104BF00001FC036A23EA0C030362036A02FA01F16F
:104C00000B4303627047000010B5044608460029B4
:104C10003BD194F84230DBB2013B18BF0123002B9B
:104C200067D100284AD1022384F842300422014689
:104C30002068FFF7D9FF2268536C43F400435364A4
:104C400023682E4A934249D0B3F1804F46D0A2F553
:104C50007C42934242D002F5806293423ED002F5FC
:104C6000806293423AD002F57842934236D002F500
:104C70007052934232D0A2F5943293422ED01A68E9
:104C800042F001021A60002032E0042908D008290D
:104C90000DD094F84530DBB2013B18BF0123BEE7CD
:104CA00094F84330DBB2013B18BF0123B7E794F817
:104CB0004430DBB2013B18BF0123B0E7042805D024
:104CC000082807D0022384F84530AFE7022384F890
:104CD0004330ABE7022384F84430A7E79A6802F038
:104CE0000702062A07D01A6842F001021A60002063
:104CF00010BD0120FCE70020FAE700BF00000140E2
:104D000090F83C30012B3DD010B4012380F83C30AA
:104D1000022380F83D3003685A689C6822F0700CCA
:104D20000A6842EA0C025A600368174A93421AD092
:104D3000B3F1804F17D0A2F57C42934213D002F515
:104D4000806293420FD002F5806293420BD002F54D
:104D50007842934207D002F57052934203D0A2F5F5
:104D60009432934204D124F080044A6814439C6036
:104D7000012380F83D30002380F83C3018465DF870
:104D8000044B7047022070470000014090F83C300F
:104D9000012B22D0012380F83C30CB6823F44073F0
:104DA0008A68134323F480634A68134323F400633F
:104DB0000A68134323F480530A69134323F400530E
:104DC0004A69134323F48043CA6913430268536456
:104DD000002380F83C3018467047022070470000DE
:104DE00082B000230193019B01330193019A0F4B81
:104DF0009A4215D80369002BF5DA00230193036961
:104E000043F001030361019B01330193019A074BB6
:104E10009A4208D8036913F0010FF4D1002000E092
:104E2000032002B070470320FBE700BF400D0300E2
:104E300084B010B5044603A880E80E00089B012B3F
:104E40001FD1A36B23F48033A363E36823F48403AB
:104E500023F04003E360E36823F44013E3600F9B17
:104E6000012B09D02046FFF7BBFF069B012B1BD06F
:104E7000BDE8104004B07047E36843F48013E3607A
:104E8000F0E7E36843F04003E3602046FFF7A8FF44
:104E90000C9B23B9A36B43F48033A363E5E7A36BB7
:104EA00023F48033A363E0E7A36843F00603A36021
:104EB000A36843F02003A360DAE70000022A0AD0C7
:104EC0000921C26822F47052C260C36843EA812398
:104ED000C36000207047234B0B44234A93422FD9D1
:104EE000224B0B44224A93422CD9A1F57403A3F51B
:104EF0001053204A934227D9A1F18373A3F5E743C6
:104F00001D4A934222D31D4B0B441D4A93421FD985
:104F10001C4B0B441C4A93421CD31C4B0B441C4A95
:104F2000934219D3A1F1B773A3F55853194A934289
:104F300014D3194B0B44194A934211D20721C0E7ED
:104F40000F21BEE70E21BCE70D21BAE70C21B8E71F
:104F50000B21B6E70A21B4E70921B2E70821B0E73F
:104F60000621AEE7405327FFFF340C00401E1BFF15
:104F70003F420F007F4F120020D6130060B6E5FEBF
:104F80005FE3160000D3CEFE40771B00C05BB3FE8C
:104F9000C091210020753800E05459FEE09C41008A
:104FA000836843F00103836000207047836823F027
:104FB000010383600020704782B000230193019BAE
:104FC00001330193019A0F4B9A4215D80369002BC4
:104FD000F5DA00230193890141F020010161019B71
:104FE00001330193019A074B9A4208D8036913F0E1
:104FF000200FF4D1002000E0032002B0704703200E
:10500000FBE700BF400D030082B000230193019B2A
:1050100001330193019A0E4B9A4213D80369002B76
:10502000F5DA0023019310230361019B01330193FF
:10503000019A074B9A4208D8036913F0100FF4D174
:10504000002000E0032002B070470320FBE700BF10
:10505000400D0300D0F800381943C0F800180020B4
:105060007047000084B02DE9F041044607A880E8AD
:105070000E00002306E003F1400204EB820200214F
:10508000516001330E2BF6D9119F27BBD4F8043899
:1050900043F00203C4F80438A36B43F40013A36382
:1050A000A36B23F40023A363A36B23F48023A363E4
:1050B0000023C4F8003E04F50065D4F80038C4F8B5
:1050C00000380C9B012B14D1099B6BB900212046A1
:1050D000FFF7C0FF11E0A36B23F40013A363A36BDE
:1050E00043F40023A363E3E701212046FFF7B2FF67
:1050F00003E003212046FFF7ADFF10212046FFF714
:105100005BFF804608B14FF001082046FFF77CFFA7
:1051100008B14FF0010800232B616B61EB610AE0DD
:10512000C3B94FF00060C2F8000900220A614FF6CF
:105130007F328A6001330799994210D904EB4312F8
:1051400002F51061D2F800090028E9DB0020C2F85E
:105150000009EAE74FF09040C2F80009E5E70023B4
:105160000AE0C3B14FF0904CC2F800CB00220261BC
:105170004FF67F3282600133994211D904EB43121A
:1051800002F53060D2F8006B002EEADB4FF0000C25
:10519000C2F800CBEAE74FF0006CC2F800CBE5E7BD
:1051A0002B6923F480732B610023A3616FF080438C
:1051B00063610A9B1BB9A36943F01003A361A26951
:1051C0000B4B1343A3610D9B1BB1A36943F0080371
:1051D000A361012F04D04046BDE8F04104B0704700
:1051E000A36943F0804343F00403A361F3E700BFE6
:1051F00000383C80D0F8083813F0060307D0022BA3
:1052000007D0062B01D00F207047022070470020E6
:1052100070470220704710B591F800C04B78012B01
:1052200023D000F5006ED0F81C380CF00F040122DA
:10523000A24043EA0243C0F81C3800EB4C10D0F8FF
:10524000003B13F4004F0ED1D0F8003BCA68C2F304
:105250000A02097942EA8142134343F0805343F43E
:105260000043C0F8003B002010BDD0F81C280CF013
:105270000F0E03FA0EF39BB21343C0F81C3800EB79
:105280004C10D0F8003913F4004FECD1D0F80039AD
:10529000CA68C2F30A02097942EA814242EA8C5C96
:1052A00043EA0C0343F0805343F40043C0F8003951
:1052B000D9E7000030B40B784A78012A26D000EBF9
:1052C0004313D3F8002B002A52DBD0F83C480A786D
:1052D00002F00F024FF0010C0CFA02F224EA024233
:1052E000C0F83C28D0F81C28097801F00F010CFA0E
:1052F00001FC22EA0C42C0F81C28D3F8001B234A08
:105300000A40C3F8002B002030BC704700EB431369
:10531000D3F80029002A1EDBD0F83C580A7802F0A6
:105320000F02012404FA02F292B225EA0202C0F846
:105330003C28D0F81C28097801F00F018C40A4B259
:1053400022EA0404C0F81C48D3F80019104A0A40A5
:10535000C3F80029D7E7D3F8002942F00062C3F868
:105360000029D3F8002942F08042C3F80029D3E78E
:10537000D3F8002B42F00062C3F8002BD3F8002BC7
:1053800042F08042C3F8002B9FE700BF0078F3EFA4
:10539000007833EC70B40B784C78012C29D000EBFA
:1053A000431000F530631C69E40CE4041C611C69C3
:1053B00024F0FF5424F4C0141C618C690CB1CC6837
:1053C0008C61CC68CC611C6944F400241C611C69AC
:1053D000CD69C5F3120C44EA0C041C61012A66D0A5
:1053E000D0F8003B43F00443C0F8003B002070BC01
:1053F00070478C696CBB00EB4314D4F8105925F04E
:10540000FF5525F4C015C4F81059D4F8105945F4C7
:105410000025C4F81059D4F81059ED0CED04C4F867
:105420001059012A34D000EB4313D3F8002942F07D
:105430000442C3F800298B69002BD7D0D0F8343848
:105440000A7802F00F0101228A401343C0F8343871
:10545000CCE700EB431404F510642569ED0CED0472
:105460002561256925F0FF5525F4C0152561CD6816
:105470008E69AE4200D98D61256945F4002525610C
:1054800025698E69C6F3120C45EA0C052561C8E74B
:105490004A691AB100EB4311C1F8142900EB43101B
:1054A000D0F8002942F00442C0F800299EE70A69BA
:1054B000002A95D05A6193E710B483B002460023C6
:1054C0000193487801280BD00B7802EB4313D3F8F3
:1054D000000B00282DDB002003B05DF8044B704763
:1054E0000B7802EB4313D3F80049002C01DB0020BA
:1054F000F2E7D3F8004944F00064C3F800490B78A0
:1055000002EB4313D3F8004944F08044C3F8004948
:10551000019B01330193019C42F210739C42DBD842
:105520000B7802EB4313D3F80039002BF0DB00209B
:10553000D2E7D3F8000B40F00060C3F8000B0B7803
:1055400002EB4313D3F8000B40F08040C3F8000B8C
:10555000019B01330193019842F21073984208D8DD
:105560000B7802EB4313D3F8003B002BF0DB002059
:10557000B2E70120B0E710B59DF8084084B90333C5
:105580004FEA930E4FF0000C08E000EB023303F5F6
:10559000805351F8044B1C600CF1010CF445F4D31A
:1055A000002010BDF0B583B00B784C78012C33D0BF
:1055B00000EB431303F5306CDCF81040E40CE4041A
:1055C000CCF81040DCF8104024F0FF5424F4C01450
:1055D000CCF810408C69002C40F0C780DCF81040FB
:1055E000CD68C5F312052C43CCF81040DCF8104010
:1055F00044F40024CCF81040012A00F0D0800A794D
:10560000012A00F0D380D3F8002B42F00442C3F803
:10561000002B002003B0F0BD8C6984BB00EB431469
:10562000D4F8105925F0FF5525F4C015C4F81059C9
:10563000D4F8105945F40025C4F81059D4F810597D
:10564000ED0CED04C4F81059012A4CD000EB4313C3
:10565000D3F8004944F00444C3F800490C79012C04
:105660006AD08B69002BD4D0D0F834380A7802F095
:105670000F0101228A401343C0F83438C9E700EB18
:105680004314D4F81059ED0CED04C4F81059D4F8B3
:10569000105925F0FF5525F4C015C4F81059D4F859
:1056A00010698D69CF683D44013DB5FBF7F5494F61
:1056B00007EAC5453543C4F81059D4F810598E6926
:1056C000C6F312063543C4F8105904F510640D7979
:1056D000012DB9D1256925F0C0452561256945F021
:1056E00000552561B0E74A691AB100EB4314C4F8CC
:1056F00014290A79012A08D000EB4313D3F80029B2
:1057000042F00442C3F8002983E7D0F8082812F4D5
:10571000807F08D100EB4311D1F8002942F00052FC
:10572000C1F80029E8E700EB4311D1F8002942F065
:105730008052C1F80029DFE7D0F8084814F4807FD0
:105740000CD1D3F8004944F00054C3F8004900924A
:105750000B8B0A780969FFF70EFF5AE7D3F8004967
:1057600044F08054C3F80049F1E7CD682C44013C73
:10577000B4FBF5F4A4B204FB05F5CD61DCF81050E0
:10578000144E06EAC4442C43CCF81040DCF8104018
:10579000CD69C5F312052C43CCF810402CE70A69FB
:1057A000002A3FF42CAFCCF8142028E7D0F80828C2
:1057B00012F4807F06D1D3F8002B42F00052C3F8D8
:1057C000002B20E7D3F8002B42F08052C3F8002BC7
:1057D00019E700BF0000F81F00B583B084460846F3
:1057E0004FEA920E02F00302002305E00CF580510F
:1057F000096840F8041B01337345F7D39AB10CF5DF
:10580000805CDCF8003001934FF0000C5FFA8CF301
:10581000D900019BCB4000F8013B0CF1010C013A8F
:1058200092B2002AF2D103B05DF804FB0B784A78FB
:10583000012A14D000EB4310D0F8002B002A06DB1D
:105840002BB1D0F8003B23F08043C0F8003BD0F8E8
:10585000003B43F40013C0F8003B0020704700EB0E
:105860004310D0F80029002A06DB2BB1D0F800390C
:1058700023F08043C0F80039D0F8003943F4001316
:10588000C0F80039E9E70B784A78012A0ED000EB1E
:105890004310D0F8003B23F40013C0F8003B0B7911
:1058A000023BDBB2012B15D90020704700EB4310FF
:1058B000D0F8003923F40013C0F800390B79023B0B
:1058C000DBB2012BF0D8D0F8003943F08053C0F898
:1058D0000039E9E7D0F8003B43F08053C0F8003BC3
:1058E000E2E7D0F8003823F4FE63C0F80038D0F8BF
:1058F0000038090101F4FE611943C0F800180020C6
:105900007047D0F8003E23F00303C0F8003ED0F803
:10591000043823F00203C0F8043800207047D0F8A0
:10592000003E23F00303C0F8003ED0F8043843F0F3
:105930000203C0F8043800207047426980691040B3
:105940007047D0F8183800F50060C0691840000CA6
:105950007047D0F8183800F50060C069184080B270
:10596000704700EB4111D1F8082B00F50060406949
:105970001040704710B4D0F81048D0F8343801F017
:105980000F02D340DB01DBB2234300EB411000F5F3
:105990001060806818405DF8044B7047406900F063
:1059A0000100704738B50546C36823F0C043C360A3
:1059B000012913D019BBC36843F08043C36000249E
:1059C0000120FCF7BBF801342846FFF7E7FF08B1D8
:1059D000312CF5D9322C14D0002038BDC36843F0E7
:1059E0000053C36000240120FCF7A8F801342846C6
:1059F000FFF7D4FF0128EDD0312CF4D9EAE70120DC
:105A0000EBE70120E9E7D0F8003923F4FF6323F046
:105A10000703C0F80039D0F8043843F48073C0F8A5
:105A2000043800207047000010B4046C154B9C42F1
:105A300003D9D0F8003B002B16DB0024C0F8104B34
:105A4000D0F8104B44F40024C0F8104BD0F8104BA1
:105A500044F01804C0F8104BD0F8104B44F0C04488
:105A6000C0F8104B012903D000205DF8044B7047AB
:105A7000C0F8142BD0F8003B43F08023C0F8003B63
:105A8000F2E700BF0A30544F00B587B003238DF80A
:105A900017306420FCF752F8FF230293012301938F
:105AA0000DF11702009207226C210348FDF75EF901
:105AB00007B05DF804FB00BF000C002000B587B004
:105AC00000238DF81730FF230293012301930DF17A
:105AD000170200920B226C210748FDF7F9F99DF897
:105AE000173013F0200F02D001238DF817309DF8E6
:105AF000170007B05DF804FB000C002010B584B05F
:105B0000FFF7DCFF20B90F4B93ED000A04B010BD86
