:020000040800F2
:100000000000022079230008ED1D0008EF1D000804
:10001000F11D0008F31D0008F51D00080000000098
:10002000000000000000000000000000F71D0008B4
:10003000F91D000800000000FB1D0008FD1D000860
:10004000C9230008C9230008C9230008C9230008E0
:10005000C9230008C9230008C9230008C9230008D0
:10006000C9230008C9230008C9230008C9230008C0
:10007000C9230008C9230008C9230008C9230008B0
:10008000C9230008C9230008051E0008C923000869
:100090001D1E0008C9230008C9230008C923000841
:1000A000C9230008C9230008C9230008C923000880
:1000B000C9230008C92300082D1E0008C923000811
:1000C000C9230008C9230008C9230008C923000860
:1000D000C9230008C9230008C9230008C923000850
:1000E000C9230008C9230008C9230008C923000840
:1000F000C9230008C9230008C9230008C923000830
:10010000C9230008C9230008C9230008C92300081F
:10011000C9230008C9230008C9230008C92300080F
:10012000C9230008C92300083D1E0008C923000890
:10013000C92300080000000000000000C9230008D7
:10014000C9230008C9230008C92300084D1E000860
:10015000C9230008C9230008C9230008C9230008CF
:10016000C9230008C9230008C9230008C9230008BF
:10017000C9230008C9230008000000000000000097
:08018000C9230008C92300088F
:1001C00010B5054C237833B9044B13B10448AFF391
:1001D00000800123237010BD0C0C002000000000E3
:1001E000A826010808B5034B1BB103490348AFF328
:1001F000008008BD00000000100C0020A8260108A7
:1002000081F0004102E000BF83F0004330B54FEAC7
:1002100041044FEA430594EA050F08BF90EA020F34
:100220001FBF54EA000C55EA020C7FEA645C7FEAC7
:10023000655C00F0E2804FEA5454D4EB5555B8BFEA
:100240006D420CDD2C4480EA020281EA030382EA5B
:10025000000083EA010180EA020281EA0303362DED
:1002600088BF30BD11F0004F4FEA01314FF4801CC0
:100270004CEA113102D0404261EB410113F0004FD2
:100280004FEA03334CEA133302D0524263EB430389
:1002900094EA050F00F0A780A4F10104D5F1200E27
:1002A0000DDB02FA0EFC22FA05F2801841F1000182
:1002B00003FA0EF2801843FA05F359410EE0A5F156
:1002C00020050EF1200E012A03FA0EFC28BF4CF087
:1002D000020C43FA05F3C01851EBE37101F000453D
:1002E00007D54FF0000EDCF1000C7EEB00006EEB4A
:1002F0000101B1F5801F1BD3B1F5001F0CD34908D4
:100300005FEA30004FEA3C0C04F101044FEA44522A
:1003100012F5800F80F09A80BCF1004F08BF5FEAB1
:10032000500C50F1000041EB045141EA050130BD91
:100330005FEA4C0C404141EB0101013C28BFB1F5A3
:10034000801FE9D291F0000F04BF01460020B1FAEE
:1003500081F308BF2033A3F10B03B3F120020CDAC1
:100360000C3208DD02F1140CC2F10C0201FA0CF09F
:1003700021FA02F10CE002F11402D8BFC2F1200C04
:1003800001FA02F120FA0CFCDCBF41EA0C019040BA
:10039000E41AA2BF01EB0451294330BD6FEA040403
:1003A0001F3C1CDA0C340EDC04F11404C4F12002EE
:1003B00020FA04F001FA02F340EA030021FA04F300
:1003C00045EA030130BDC4F10C04C4F1200220FA57
:1003D00002F001FA04F340EA0300294630BD21FA95
:1003E00004F0294630BD94F0000F83F4801306BF5B
:1003F00081F480110134013D4EE77FEA645C18BF4F
:100400007FEA655C29D094EA050F08BF90EA020FE5
:1004100005D054EA000C04BF1946104630BD91EADD
:10042000030F1EBF0021002030BD5FEA545C05D1E0
:100430004000494128BF41F0004130BD14F580041F
:100440003CBF01F5801130BD01F0004545F0FE4193
:1004500041F470014FF0000030BD7FEA645C1ABFC8
:10046000194610467FEA655C1CBF0B46024650EAFF
:10047000013406BF52EA033591EA030F41F400212B
:1004800030BD00BF90F0000F04BF0021704730B5B1
:100490004FF4806404F132044FF000054FF0000186
:1004A00050E700BF90F0000F04BF0021704730B547
:1004B0004FF4806404F1320410F0004548BF40421C
:1004C0004FF000013EE700BF42004FEAE2014FEA71
:1004D00031014FEA02701FBF12F07F4393F07F4F4C
:1004E00081F06051704732F07F4208BF704793F04F
:1004F0007F4F04BF41F40021704730B54FF4607462
:1005000001F0004521F000411CE700BF50EA010264
:1005100008BF704730B54FF000050AE050EA01020D
:1005200008BF704730B511F0004502D5404261EB7D
:1005300041014FF4806404F132045FEA915C3FF4BE
:10054000D8AE4FF003025FEADC0C18BF03325FEA5B
:10055000DC0C18BF033202EBDC02C2F1200300FA0C
:1005600003FC20FA02F001FA03FE40EA0E0021FA31
:1005700002F11444BDE600BF4FF0FF3C06E000BFAF
:100580004FF0010C02E000BF4FF0010C4DF804CD1C
:100590004FEA410C7FEA6C5C4FEA430C18BF7FEADC
:1005A0006C5C1BD001B050EA410C0CBF52EA430C0A
:1005B00091EA030F02BF90EA020F0020704710F18A
:1005C000000F91EA030F58BF994208BF90422CBF19
:1005D000D8176FEAE37040F0010070474FEA410C12
:1005E0007FEA6C5C02D150EA013C07D14FEA430C30
:1005F0007FEA6C5CD6D152EA033CD3D05DF8040BA1
:10060000704700BF8446104662468C4619466346D2
:1006100000E000BF01B5FFF7B7FF002848BF10F1A9
:10062000000F01BD4DF808EDFFF7F4FF0CBF0120EE
:1006300000205DF808FB00BF4DF808EDFFF7EAFF6A
:1006400034BF012000205DF808FB00BF4DF808ED25
:10065000FFF7E0FF94BF012000205DF808FB00BF1A
:100660004DF808EDFFF7CEFF94BF012000205DF8A4
:1006700008FB00BF4DF808EDFFF7C4FF34BF0120B1
:1006800000205DF808FB00BF4FEA4102B2F1E043F1
:1006900024BFB3F5001CDCF1FE5C0DD901F0004C69
:1006A0004FEAC0024CEA5070B2F1004F40EB8300B9
:1006B00008BF20F00100704711F0804F21D113F1E5
:1006C0003872BCBF01F00040704741F480114FEA1E
:1006D0005252C2F11802C2F1200C10FA0CF320FAA7
:1006E00002F018BF40F001004FEAC1234FEAD323C4
:1006F00003FA0CFC40EA0C0023FA02F34FEA43032E
:10070000CCE77FEA625307D150EA01331EBF4FF0B6
:10071000FE4040F44000704701F0004040F0FE40D1
:1007200040F40000704700BF53B94AB9002908BF20
:1007300000281CBF4FF0FF314FF0FF3000F074B9BC
:10074000ADF1080C6DE904CE00F006F8DDF804E028
:10075000DDE9022304B070472DE9F047089D044607
:100760008E46002B4DD18A42944669D9B2FA82F264
:1007700052B101FA02F3C2F1200120FA01F10CFAA0
:1007800002FC41EA030E94404FEA1C48210CBEFBD8
:10079000F8F61FFA8CF708FB16E341EA034306FB61
:1007A00007F199420AD91CEB030306F1FF3080F0F0
:1007B0001F81994240F21C81023E63445B1AA4B23D
:1007C000B3FBF8F008FB103344EA034400FB07F7DF
:1007D000A7420AD91CEB040400F1FF3380F00A8120
:1007E000A74240F207816444023840EA0640E41B15
:1007F00000261DB1D4400023C5E900433146BDE8C1
:10080000F0878B4209D9002D00F0EF800026C5E962
:10081000000130463146BDE8F087B3FA83F6002E7A
:100820004AD18B4202D3824200F2F980841A61EBF2
:10083000030301209E46002DE0D0C5E9004EDDE710
:1008400002B9FFDEB2FA82F2002A40F09280A1EBF8
:100850000C014FEA1C471FFA8CFE0126200CB1FB4D
:10086000F7F307FB131140EA01410EFB03F0884246
:1008700008D91CEB010103F1FF3802D2884200F2D3
:10088000CB804346091AA4B2B1FBF7F007FB101165
:1008900044EA01440EFB00FEA64508D91CEB040403
:1008A00000F1FF3102D2A64500F2BB800846A4EB5E
:1008B0000E0440EA03409CE7C6F12007B34022FA49
:1008C00007FC4CEA030C20FA07F401FA06F31C4378
:1008D000F9404FEA1C4900FA06F3B1FBF9F8200C85
:1008E0001FFA8CFE09FB181140EA014108FB0EF0CB
:1008F000884202FA06F20BD91CEB010108F1FF3A1B
:1009000080F08880884240F28580A8F10208614426
:10091000091AA4B2B1FBF9F009FB101144EA014134
:1009200000FB0EFE8E4508D91CEB010100F1FF34DF
:100930006CD28E456AD90238614440EA0840A0FB77
:100940000294A1EB0E01A142C846A64656D353D04D
:100950005DB1B3EB080261EB0E0101FA07F722FA71
:1009600006F3F1401F43C5E9007100263146BDE89A
:10097000F087C2F12003D8400CFA02FC21FA03F3FD
:10098000914001434FEA1C471FFA8CFEB3FBF7F07E
:1009900007FB10360B0C43EA064300FB0EF69E42A3
:1009A00004FA02F408D91CEB030300F1FF382FD23C
:1009B0009E422DD9023863449B1B89B2B3FBF7F6E4
:1009C00007FB163341EA034106FB0EF38B4208D9BD
:1009D0001CEB010106F1FF3816D28B4214D9023EFE
:1009E0006144C91A46EA004638E72E46284605E71C
:1009F0000646E3E61846F8E64B45A9D2B9EB0208ED
:100A000064EB0C0E0138A3E74646EAE7204694E77C
:100A10004046D1E7D0467BE7023B614432E73046AF
:100A200009E76444023842E7704700BF0000000055
:100A300000000000000000000000000000000000B6
:100A4000A2EB0300704700BF02780B78012A28BF91
:100A50009A42F5D16DE9044540EA0104CDE9026707
:100A60006FF0000C4FEA447212B380EA010414F0F4
:100A7000070F6AD100F0070420F0070004F0030517
:100A800021F007014FEAC505F0E8042314F0040F34
:100A9000F1E804670CFA05F462EA040266EA040667
:100AA0000AD063EA0403624667EA0407664603E085
:100AB000F0E80423F1E8046782FA4CF582EA0604C0
:100AC000A4FA8CF46CBB83FA4CF583EA0705A5FA0B
:100AD0008CF595B950E9022351E9026782FA4CF589
:100AE00082EA0604A4FA8CF483FA4CF583EA07053B
:100AF000A5FA8CF52543DBD09CB92DBAB5FA85F45F
:100B000024F0070427FA04F1DDE9026723FA04F36D
:100B100003F0FF0001F0FF01FDE80445A0EB010038
:100B2000704724BAB4FA84F424F0070426FA04F1D6
:100B3000DDE9026722FA04F202F0FF0001F0FF0192
:100B4000FDE80445A0EB0100704714F0030F3CD111
:100B500010F0030428D150F8082B51F8083B82FA12
:100B60004CF582EA0305A5FA8CF55DB950F8042C22
:100B700051F8043C82FA4CF582EA0305A5FA8CF59B
:100B8000002DE8D02DBAB5FA85F424F0070423FA35
:100B900004F122FA04F202F0FF0001F0FF01FDE887
:100BA0000445A0EB010070474FEAC40420F00300A5
:100BB00050F8082B21F0030151F8083B0CFA04F41B
:100BC00062EA040263EA0403C9E710F003041AD0DE
:100BD000A1EB040120F00300E40750F8042B06D039
:100BE0000FD28B785FFAA2F4E41A06D12BB1CB783E
:100BF0005FFAB2F4E41A00D11BB920465DF8104B3D
:100C0000704701F1040150F8042BCC0721F00301D7
:100C100051F8043B48D824D222F07F4482FA4CF5A4
:100C200094EA1325A5FA8CF50AD165B951F8043B6D
:100C300084EA0204B4EB036F0ED150F8042BEBE707
:100C40004FEA132355E035F07F454DD10878FDE894
:100C50000445C0F1000070474FEA126203F0FF0341
:100C600047E002EA1C4482FA4CF594EA1345A5FADF
:100C70008CF50AD165B951F8043B84EA0204B4EB5F
:100C8000034F0CD150F8042BEBE74FEA134330E04D
:100C900015EA1C4528D10B884FEA124229E04FEA99
:100CA000124203EA1C4324E002F0FF0482FA4CF5EE
:100CB00094EA1365A5FA8CF50AD165B951F8043B9D
:100CC00084EA0204B4EB032F09D150F8042BEBE7BC
:100CD0004FEA13630DE015F0FF0F05D10B684FEAE3
:100CE000122223F07F4304E04FF00000FDE80445AA
:100CF000704712BA1BBA82FA4CF482EA0304A4FACF
:100D00008CF5B5FA85F402FA04F203FA04F34FEA1B
:100D10001260FDE80445A0EB13607047844641EA89
:100D2000000313F003036DD1403A41D351F8043B63
:100D300040F8043B51F8043B40F8043B51F8043BB5
:100D400040F8043B51F8043B40F8043B51F8043BA5
:100D500040F8043B51F8043B40F8043B51F8043B95
:100D600040F8043B51F8043B40F8043B51F8043B85
:100D700040F8043B51F8043B40F8043B51F8043B75
:100D800040F8043B51F8043B40F8043B51F8043B65
:100D900040F8043B51F8043B40F8043B51F8043B55
:100DA00040F8043B51F8043B40F8043B403ABDD2C4
:100DB000303211D351F8043B40F8043B51F8043B66
:100DC00040F8043B51F8043B40F8043B51F8043B25
:100DD00040F8043B103AEDD20C3205D351F8043BF5
:100DE00040F8043B043AF9D2043208D0D2071CBFC1
:100DF00011F8013B00F8013B01D30B8803806046EA
:100E0000704700BF082A13D38B078DD010F003035F
:100E10008AD0C3F10403D21ADB071CBF11F8013BCF
:100E200000F8013B80D331F8023B20F8023B7BE71E
:100E3000043AD9D3013A11F8013B00F8013BF9D249
:100E40000B7803704B7843708B78837060467047E3
:100E50000000000000000000000000000000000092
:100E60000000000000000000000000000000000082
:100E70000000000000000000000000000000000072
:100E800090F800F06DE9024520F007016FF0000CCA
:100E900010F0070491F820F040F049804FF0000472
:100EA0006FF00700D1E9002391F840F000F108004D
:100EB00082FA4CF2A4FA8CF283FA4CF3A2FA8CF385
:100EC0004BBBD1E9022382FA4CF200F10800A4FAEC
:100ED0008CF283FA4CF3A2FA8CF3E3B9D1E9042340
:100EE00082FA4CF200F10800A4FA8CF283FA4CF377
:100EF000A2FA8CF37BB9D1E9062301F1200182FA31
:100F00004CF200F10800A4FA8CF283FA4CF3A2FA36
:100F10008CF3002BC6D0002A04BF04301A4612BA44
:100F2000B2FA82F2FDE8024500EBD2007047D1E947
:100F3000002304F00305C4F100004FEAC50514F0D6
:100F4000040F91F840F00CFA05F562EA05021CBFA7
:100F500063EA050362464FF00004A9E700000000C1
:100F600001F0FF01102A2BDB10F0070F08D010F85A
:100F7000013B013A8B422DD010F0070F42B3F6D15E
:100F8000F0B441EA012141EA014122F007047FF077
:100F900000070023F0E80256083C85EA010586EACE
:100FA000010685FA47F5A3FA87F586FA47F6A5FA0A
:100FB00087F68EB9EED1F0BC01F0FF0102F0070216
:100FC00032B110F8013B013A83EA010313B1F8D1C1
:100FD0000020704701387047002D06BF35460338A2
:100FE000073815F0010F07D1013015F4807F02BFDB
:100FF000013015F4C03F0130F0BC0138704700BF2C
:1010000070B54FF0FF0C4CF4E06C1CEA11541DBF9E
:101010001CEA135594EA0C0F95EA0C0F00F0DEF869
:101020002C4481EA030621EA4C5123EA4C5350EA4E
:10103000013518BF52EA033541F4801143F480139F
:1010400038D0A0FB02CE4FF00005E1FB02E506F030
:101050000042E0FB03E54FF00006E1FB03569CF085
:10106000000F18BF4EF0010EA4F1FF04B6F5007F8B
:1010700064F5407404D25FEA4E0E6D4146EB0606FD
:1010800042EAC62141EA55514FEAC52040EA5E5086
:101090004FEACE2EB4F1FD0C88BFBCF5E06F1ED830
:1010A000BEF1004F08BF5FEA500E50F1000041EB67
:1010B000045170BD06F0004646EA010140EA020014
:1010C00081EA0301B4EB5C04C2BFD4EB0C0541EA36
:1010D000045170BD41F480114FF0000E013C00F34B
:1010E000AB8014F1360FDEBF002001F0004170BD6F
:1010F000C4F10004203C35DA0C341BDC04F1140488
:10110000C4F1200500FA05F320FA04F001FA05F213
:1011100040EA020001F0004221F0004110EBD370E0
:1011200021FA04F642EB06015EEA430E08BF20EA0C
:10113000D37070BDC4F10C04C4F1200500FA04F3AF
:1011400020FA05F001FA04F240EA020001F0004141
:1011500010EBD37041F100015EEA430E08BF20EAB4
:10116000D37070BDC4F1200500FA05F24EEA020EFC
:1011700020FA04F301FA05F243EA020321FA04F02B
:1011800001F0004121FA04F220EA020000EBD370E2
:101190005EEA430E08BF20EAD37070BD94F0000FE2
:1011A0000FD101F00046400041EB010111F4801F16
:1011B00008BF013CF7D041EA060195F0000F18BFC7
:1011C000704703F00046520043EB030313F4801F03
:1011D00008BF013DF7D043EA0603704794EA0C0FBD
:1011E0000CEA135518BF95EA0C0F0CD050EA4106D3
:1011F00018BF52EA4306D1D181EA030101F0004150
:101200004FF0000070BD50EA410606BF1046194677
:1012100052EA430619D094EA0C0F02D150EA013683
:1012200013D195EA0C0F05D152EA03361CBF1046C4
:1012300019460AD181EA030101F0004141F0FE4163
:1012400041F470014FF0000070BD41F0FE4141F4E7
:10125000780170BD70B54FF0FF0C4CF4E06C1CEAE7
:1012600011541DBF1CEA135594EA0C0F95EA0C0F9C
:1012700000F0A7F8A4EB050481EA030E52EA033557
:101280004FEA013100F088804FEA03334FF0805578
:1012900045EA131343EA12634FEA022245EA1115A5
:1012A00045EA10654FEA00260EF000419D4208BF56
:1012B000964244F1FD0404F5407402D25B084FEA03
:1012C0003202B61A65EB03055B084FEA32024FF4AF
:1012D00080104FF4002CB6EB020E75EB030E22BF0C
:1012E000B61A754640EA0C005B084FEA3202B6EBCC
:1012F000020E75EB030E22BFB61A754640EA5C007B
:101300005B084FEA3202B6EB020E75EB030E22BF0A
:10131000B61A754640EA9C005B084FEA3202B6EB0B
:10132000020E75EB030E22BFB61A754640EADC00CA
:1013300055EA060E18D04FEA051545EA16754FEA2C
:1013400006164FEAC30343EA52734FEAC2025FEA4A
:101350001C1CC0D111F4801F0BD141EA00014FF0D9
:1013600000004FF0004CB6E711F4801F04BF0143AA
:101370000020B4F1FD0C88BFBCF5E06F3FF6AFAEC6
:10138000B5EB030C04BFB6EB020C5FEA500C50F156
:10139000000041EB045170BD0EF0004E4EEA1131D9
:1013A00014EB5C04C2BFD4EB0C0541EA045170BDE0
:1013B00041F480114FF0000E013C90E645EA060E24
:1013C0008DE60CEA135594EA0C0F08BF95EA0C0F52
:1013D0003FF43BAF94EA0C0F0AD150EA01347FF49A
:1013E00034AF95EA0C0F7FF425AF104619462CE771
:1013F00095EA0C0F06D152EA03353FF4FDAE1046D4
:10140000194622E750EA410618BF52EA43067FF424
:10141000C5AE50EA41047FF40DAF52EA43057FF4B4
:10142000EBAE12E74FEA410C7FEA6C5C02D150EA66
:10143000013C0AD14FEA430C7FEA6C5C02D152EACC
:10144000033C02D14FF0000070474FF0010070479D
:101450004FEA410212F5001215D211D56FF47873DC
:10146000B3EB625212D94FEAC12343F0004343EA7F
:10147000505311F0004F23FA02F018BF404270475A
:101480004FF00000704750EA013005D111F00040E4
:1014900008BF6FF0004070474FF00000704700BF7A
:1014A0004A0011D212F5001211D20DD56FF47873E3
:1014B000B3EB62520ED44FEAC12343F0004343EA38
:1014C000505323FA02F070474FF00000704750EA83
:1014D000013002D14FF0FF3070474FF000007047ED
:1014E00038B50022002304460D46FFF7A5F828B9B9
:1014F00020462946BDE8384000F00AB8204605F1EC
:10150000004100F005F8404261EB410138BD00BFE9
:10151000D0B50C4B002206460F46FFF771FDFFF7D2
:10152000BFFF0446FEF7AEFF074B0022FFF768FD42
:1015300002460B4630463946FEF766FEFFF7B0FF1F
:101540002146D0BD0000F03D0000F04110B58CB048
:101550000024089409940A940B942022214668469A
:1015600008F012FE2B482C4B03604FF4803343608D
:10157000846001230361047680F82040C462274A16
:101580008262C460C36180F83040446101F01EF89B
:10159000002830D101230893099300230A9308A956
:1015A0001C4801F0FBF948BB01230093019303237E
:1015B0000493002302934FF40012079206938DF8D0
:1015C00015308DF8143003936946124801F058FB2A
:1015D000B8B902230093019369460E4801F050FB0D
:1015E00090B903230093019369460A4801F048FB30
:1015F00068B90CB010BD00F097FACBE700F094FA90
:10160000D2E700F091FAE4E700F08EFAE9E700F0A3
:101610008BFAEEE7280C0020002001400100000FAB
:1016200000B585B0002300930193029303931648FD
:10163000164A02604FF48032426083600361037691
:1016400080F820304FF08052C2624FF00062826218
:10165000C3600123C36180F83030436100F0B6FFFE
:1016600060B90C2300930123019302936946064855
:1016700001F094F928B905B05DF804FB00F054FAC4
:10168000EFE700F051FAF6E7700C0020002101406E
:1016900030B58BB000230593069307930893099305
:1016A00003683B4A934205D004463A4A934228D005
:1016B0000BB030BD00240194374B5A6C42F4807259
:1016C0005A645A6C02F480720192019A02941A6B65
:1016D00042F001021A631B6B03F001030293029BA9
:1016E0000E2305930323069305A92C4802F0A4FAC0
:1016F00022460421122001F0B3FF122001F0E8FF7E
:10170000D6E700250395244B5A6C42F400725A64C4
:101710005A6C02F400720392039A04951A6B42F019
:1017200004021A631B6B03F004030493049B0C2351
:1017300005930323069305A9194802F07DFA194879
:10174000194B03604FF0007343608560C5604FF430
:10175000806303614FF4006343614FF4005383617E
:101760004FF48073C3610562456202F0DBF858B93B
:101770000C4BA3639C6300220421122001F070FF34
:10178000122001F0A5FF93E700F0CEF9F0E700BFCB
:1017900000200140002101400038024000000240CA
:1017A00000080240B80C00204064024008B50E4812
:1017B0000E4B03600223436000238360C3604FF439
:1017C000502202614FF4A002426103760122427668
:1017D0008376C3760377437701F05AFB00B908BDDF
:1017E00000F0A2F9FBE700BF180D002000640040E4
:1017F00030B589B0002303930493059306930793B0
:101800000268194B9A4201D009B030BD00240194FE
:1018100003F5EA331A6C42F000721A641A6C02F093
:1018200000720192019A02941A6B42F002021A634A
:101830001B6B03F002030293029B4FF4407303936C
:1018400002230493032506950923079303A9074858
:1018500002F0F2F922462946142001F001FF14207B
:1018600001F036FFD0E700BF0064004000040240F2
:1018700000B583B00023009301931048104B036020
:1018800001F048FF80B900220092019269460B489E
:1018900001F09DFF58B910226946084801F097FFF2
:1018A00040B903B05DF804FB00F03EF9EBE700F04F
:1018B0003BF9F0E700F038F9F3E700BF400D0020F6
:1018C0000074004000B589B000230393049305938E
:1018D000069307930268134B9A4202D009B05DF851
:1018E00004FB0021019103F5E2331A6C42F000522F
:1018F0001A641A6C02F000520192019A02911A6B5A
:1019000042F001021A631B6B03F001030293029B76
:10191000302303930323049303A9034802F08CF9B3
:10192000DCE700BF007400400000024000B583B057
:1019300000210191094B1A6B42F480021A631B6B60
:1019400003F480030193019B0A463A2001F088FECC
:101950003A2001F0BDFE03B05DF804FB0038024000
:101960002DE9F0478AB00024059406940794089462
:10197000099400943C4B1A6B42F080021A631A6B74
:1019800002F080020092009A01941A6B42F0040265
:101990001A631A6B02F004020192019A02941A6B04
:1019A00042F001021A631A6B02F001020292029ADB
:1019B00003941A6B42F002021A631A6B02F00202DD
:1019C0000392039A04941A6B42F008021A631B6B89
:1019D00003F008030493049BDFF898A022464021FB
:1019E000504602F01BFADFF8909022464FF48051E7
:1019F000484602F013FA1D4F22468021384602F075
:101A00000DFA1B4E22460421304602F007FA40230D
:101A100005930125069507944FF00308CDF8208023
:101A200005A9504602F008F94FF480530593069536
:101A30000794089405A9484602F0FEF88023059310
:101A400006950794CDF8208005A9384602F0F4F8F1
:101A50000423059306950794089405A9304602F0DF
:101A6000EBF80AB0BDE8F0870038024000080240F9
:101A7000000C0240000002400004024008B50B4880
:101A80000B4B03600B4B436000238360C3604FF438
:101A90008042026143618361C361036202F01AFC08
:101AA00000B908BD00F040F8FBE700BF540D00206E
:101AB00000540040801A060030B589B0002303931B
:101AC00004930593069307930268144B9A4201D03E
:101AD00009B030BD00250195114C236B43F0020382
:101AE0002363236B03F002030193019BC023039341
:101AF00012230493032306930423079303A909489D
:101B000002F09AF80295236C43F400132364236CCB
:101B100003F400130293029BDAE700BF0054004075
:101B2000003802400004024008B572B68021044823
:101B300002F07AF94FF4FA7000F09AFCF6E700BF71
:101B40000008024000B595B03022002108A808F036
:101B50001BFB0023039304930593069307930193C0
:101B6000204A116C41F080511164126C02F08052D5
:101B70000192019A02931C4B1A6842F480421A6047
:101B80001B6803F480430293029B012308934FF4E4
:101B90008033099302230E934FF480020F920422A4
:101BA0001092A822119212930723139308A803F00E
:101BB000FDFC98B90F23039302230493002305939C
:101BC0004FF4A05306934FF480530793052103A8C5
:101BD00003F052FF20B915B05DF804FBFFF7A4FF36
:101BE000FFF7A2FF003802400070004000B589B046
:101BF0000023039304930593069307930193114ADB
:101C0000116C41F080511164126C02F0805201920B
:101C1000019A02930C4A116841F4804111601268E4
:101C200002F480420292029A012203920493052157
:101C300003A803F021FF10B909B05DF804FBFFF71A
:101C400073FF00BF003802400070004000B58DB047
:101C500030220021684608F097FA02230093684674
:101C600003F0A4FC10B90DB05DF804FBFFF75CFFB6
:101C700008B500F0D1FBFFF7B9FFFFF763FFFFF7EF
:101C8000E5FFFFF76DFEFFF751FE00F091FAFFF759
:101C90005DFCFFF7EDFDFFF7F1FE07F047FFFFF7F3
:101CA00085FD00F02FF800F015FBFFF7B9FC00F000
:101CB00075F900F03BF900F0ABF90F4807F0A0FF11
:101CC00005F0A2FC05F0D8FD06F06EFA06F0BEFCA9
:101CD00006F014FE06F078FE06F084FD05F0F6FD31
:101CE00006F030FE054807F08BFF06F0BBFB8021B5
:101CF000034802F099F8F8E7C0260108E426010835
:101D00000008024008B50D480D4B03604FF4827384
:101D1000436000238360C360036143614FF400723A
:101D20008261C3610362436283620A23C36203F078
:101D300079FF00B908BDFFF7F7FEFBE7A80D00200B
:101D40000030014000B589B000230393049305934C
:101D5000069307930268154B9A4202D009B05DF8CA
:101D600004FB0021019103F584335A6C42F4805244
:101D70005A645A6C02F480520192019A02911A6BD1
:101D800042F002021A631B6B03F002030293029BF0
:101D90003823039302230493032306930523079315
:101DA00003A9034801F048FFD8E700BF0030014015
:101DB0000004024082B0002100910B4B5A6C42F4A7
:101DC00080425A645A6C02F480420092009A019157
:101DD0001A6C42F080521A641B6C03F0805301931A
:101DE000019B02B0704700BF00380240FEE7FEE7EB
:101DF000FEE7FEE7FEE770477047704708B500F062
:101E000025FB08BD08B5034800F0E3FC024800F0DC
:101E1000E0FC08BD280C0020700C002008B502482A
:101E200001F0E7FA08BD00BF180D002008B5024810
:101E300004F0A3F808BD00BFDC0E002008B502487E
:101E400001F00CFE08BD00BFB80C002008B5024828
:101E500003F09EF808BD00BFE42500200120704774
:101E600008B508F067F9162303604FF0FF3008BD8E
:101E700008B54FF0FF31FFF7F3FFFEE770B50C46F2
:101E80001646002506E0AFF30080214601F8010B5D
:101E900001350C46B542F6DB304670BD70B50C46D8
:101EA0001646002504E014F8010BAFF3008001355D
:101EB000B542F8DB304670BD4FF0FF3070474FF44D
:101EC00000534B600020704701207047002070478E
:101ED00010B503460C4A0D490D48006840B10C4846
:101EE00000680344521A934206D8094A136010BD91
:101EF0000748084C0460F2E708F01CF90C23036063
:101F00004FF0FF30F3E700BF0000022000080000A0
:101F1000000E0020582D0020034AD2F8883043F4E8
:101F20007003C2F88830704700ED00E000B587B05C
:101F3000002302930393049305930093019316489F
:101F40004FF080420260A722426083604FF0FF3270
:101F5000C26003618023836104F030F990B94FF4CB
:101F60008053029302A90C4804F033FA68B90023A5
:101F7000009301936946084804F0C8FB40B907B0D4
:101F80005DF804FBFFF7D0FDE9E7FFF7CDFDEEE7D5
:101F9000FFF7CAFDF3E700BF4C0E002000B587B085
:101FA000002302930393049305930093019316482F
:101FB000164A026053224260836040F2E732C260F8
:101FC00003618023836104F0F9F898B94FF48053DA
:101FD000029302A90C4804F0FCF970B92023009385
:101FE000002301936946084804F090FB40B907B00C
:101FF0005DF804FBFFF798FDE8E7FFF795FDEDE7D7
:10200000FFF792FDF3E700BF940E002000040040AC
:1020100000B587B0002302930393049305930093C4
:1020200001931648164A026053224260836040F2D0
:10203000E732C26003618023836104F0BFF898B97E
:102040004FF48053029302A90C4804F0C2F970B90E
:1020500020230093002301936946084804F056FBAF
:1020600040B907B05DF804FBFFF75EFDE8E7FFF756
:102070005BFDEDE7FFF758FDF3E700BFDC0E002046
:102080000008004000B585B00368244A93421CD084
:10209000B3F1804F28D0224A934232D0214A934252
:1020A0001FD100220392204B196C41F004011964E6
:1020B0001B6C03F004030393039B01211E2001F01A
:1020C000CFFA1E2001F004FB0BE000230093164B17
:1020D0005A6C42F001025A645B6C03F001030093F6
:1020E000009B05B05DF804FB002301930E4B1A6CB6
:1020F00042F001021A641B6C03F001030193019B7F
:10210000EFE700230293084B1A6C42F002021A64B4
:102110001B6C03F002030293029BE2E70000014004
:1021200000040040000800400038024070B588B04C
:102130000023039304930593069307930268194BB6
:102140009A4201D008B070BD0024019403F59C337D
:102150001A6B42F002021A631A6B02F00202019239
:10216000019A02941A6B42F001021A631B6B03F08E
:1021700001030293029B4FF46043039302260496EB
:102180000125079503A9084801F056FD4FF4E063C7
:102190000393049605940694079503A9034801F058
:1021A0004BFDCFE700000140000402400000024068
:1021B00030B597B00024129413941494159410948D
:1021C000119409940A940B940C940D940E940F940A
:1021D00020252A46214601A807F0D6FF3B483C4B64
:1021E0000360446085604FF47A63C36004614461B6
:1021F0008023836103F0E2FF00284CD14FF4805329
:10220000129312A9314804F0E4F8002846D12F486F
:1022100004F000F8002844D100231093119310A972
:102220002A4804F073FA00283ED160230993002263
:102230000A920B920C920D920E920F9209A92348CA
:1022400004F04CF8002832D1042209A91F4804F0F8
:1022500045F878BB082209A91C4804F03FF860BB88
:102260000C2209A9194804F039F848BB002301934E
:10227000029303930422049205934FF400520692B2
:10228000089301A9114804F087FAE0B90F48FFF755
:102290004DFF17B030BDFFF747FCAFE7FFF744FC39
:1022A000B5E7FFF741FCB7E7FFF73EFCBDE7FFF7F7
:1022B0003BFCC9E7FFF738FCCCE7FFF735FCCFE77D
:1022C000FFF732FCD2E7FFF72FFCDFE7040E002018
:1022D0000000014008B50A480A4B03604FF4E1339F
:1022E000436000238360C36003610C224261836109
:1022F000C36104F005FB00B908BDFFF715FCFBE75F
:10230000240F0020004C004000B589B00023039347
:1023100004930593069307930268154B9A4202D0E3
:1023200009B05DF804FB0021019103F5F6331A6C46
:1023300042F400221A641A6C02F400220192019AFB
:1023400002911A6B42F004021A631B6B03F0040340
:102350000293029B4FF440630393022304930323ED
:1023600006930823079303A9024801F065FCD7E709
:10237000004C004000080240DFF834D00D480E4900
:102380000E4A002302E0D458C4500433C4188C42CF
:10239000F9D30B4A0B4C002301E013600432A24234
:1023A000FBD3FFF7B9FD07F0CBFEFFF761FC7047E9
:1023B00000000220000000200C0C0020383601082C
:1023C0000C0C0020582D0020FEE7000010B504463C
:1023D0000E4B18784FF47A73B3FBF0F30C4A106885
:1023E000B0FBF3F001F082F968B90F2C01D901209C
:1023F0000AE0002221464FF0FF3001F031F9054B91
:102400001C60002000E0012010BD00BF040000207F
:10241000000000200800002008B50B4B1A6842F4A9
:1024200000721A601A6842F480621A601A6842F4F4
:1024300080721A60032001F001F90F20FFF7C6FF38
:10244000FFF7B8FC002008BD003C0240034A1168B9
:10245000034B1B780B441360704700BF680F0020CC
:1024600004000020014B1868704700BF680F00206F
:1024700038B50446FFF7F6FF0546B4F1FF3F02D03A
:10248000044B1B781C44FFF7EDFF401BA042FAD31E
:1024900038BD00BF040000204A4B5A6822F4403285
:1024A0005A605A6841680A435A600268536823F4C4
:1024B0008073536002685368016943EA01235360E3
:1024C0000268536823F04073536002685368816860
:1024D0000B4353600268936823F4006393600268BF
:1024E0009368C1680B439360826A374B9A4257D016
:1024F0000268936823F07063936002689368816A4E
:102500000B4393600268936823F040539360026822
:102510009368C16A0B4393600268936823F00203D7
:10252000936002689368017E43EA4103936090F8E8
:102530002030002B3FD00268536843F4006353609F
:102540000268536823F46043536001684B68426A31
:10255000013A43EA42334B600268D36A23F47003C2
:10256000D3620168CB6AC269013A43EA0253CB6283
:102570000268936823F4007393600268936890F88C
:10258000301043EA412393600268936823F4806328
:10259000936002689368416943EA812393607047BE
:1025A0000268936823F0706393600268936823F075
:1025B00040539360B0E70268536823F400635360AC
:1025C000CAE700BF002301400100000F38B310B577
:1025D0000446036C43B1236C13F0100F0BD00120A1
:1025E000002384F83C3010BDFFF752F800236364E9
:1025F00084F83C30EFE7236C23F4885323F0020384
:1026000043F0020323642046FFF746FF0020606486
:10261000236C23F0030343F001032364E0E701206C
:102620007047000010B582B013460022019290F866
:102630003C20012A00F0AE800446012280F83C20B4
:102640000268906810F0010F13D1906840F001000B
:102650009060534A1068534AA2FB0020800C00EBA4
:102660004000019002E00198013801900198002893
:10267000F9D12268906810F4807F03D0906820F42C
:10268000807090602268906810F0010F77D0206C05
:1026900020F4E06020F0010040F480702064526873
:1026A00012F4806F05D0226C22F4405242F4805222
:1026B0002264226C12F4805F36D0626C22F0060233
:1026C0006264002284F83C20A26B3748D063A26B7E
:1026D00036481064A26B3648D06422686FF022003E
:1026E00010602068426842F0806242602068826820
:1026F00042F48072826020680A4600F14C01A06BAF
:1027000001F076F92B4B5B6813F01F0F27D123687C
:10271000294A934211D002F58072934207D0274A8A
:10272000934214D0002033E000226264C9E702F52E
:102730000072526812F01F0FF1D19A6812F0405FD8
:102740002AD19A6842F080429A60002020E002F587
:102750008072526812F0100FEFD0002018E023684A
:10276000154A934201D0002012E09A6812F0405FAF
:1027700014D19A6842F080429A60002008E0236CED
:1027800043F010032364636C43F00103636400208F
:1027900002B010BD0220FBE70020F9E70020F7E7B8
:1027A0000000002083DE1B432B290008C5270008FA
:1027B00015290008002301400020014000220140AB
:1027C0007047704708B5806BFFF7FBFF08BD704787
:1027D000704770B5044603681E685D6816F0020F06
:1027E0002FD005F0200262B3026C12F0100F03D15B
:1027F000026C42F4007202649A6812F0405F19D1D0
:10280000227EBAB9DA6A12F4700F03D09A6812F411
:10281000806F0FD15A6822F020025A60236C23F493
:1028200080732364236C13F4805F03D1236C43F023
:10283000010323642046FFF7C3FF23686FF01202F1
:102840001A6005F0800316F0040F37D0002B35D046
:10285000236C13F0100F03D1236C43F40053236453
:1028600023689A6812F4401F21D19A6B12F4401F1A
:1028700003D09A6812F4806F19D15A6812F4806FED
:1028800015D19A6812F0405F11D1227E7AB95A6848
:1028900022F080025A60236C23F480532364236C5B
:1028A00013F4807F03D1236C43F00103236420469B
:1028B00005F0E0FE23686FF00C021A6005F040039B
:1028C00016F0010F05D023B123681B6813F0010F28
:1028D00006D105F0806516F0200F00D065B970BDF7
:1028E000236C43F4803323642046FFF770FF236892
:1028F0006FF001021A60ECE7636C43F0020363645B
:1029000023686FF020051D602046FFF761FF2368F4
:102910001D60E4E708B5806B40230364436C43F01B
:1029200004034364FFF754FF08BD08B50346806BFA
:10293000026C12F0500F25D1036C43F40073036452
:1029400003689A6812F0405F19D1027EBAB9DA6A58
:1029500012F4700F03D09A6812F4806F0FD15A6886
:1029600022F020025A60036C23F480730364036C2A
:1029700013F4805F03D1036C43F001030364FFF79A
:102980001FFF08BD026C12F0100F04D1826BD26CD5
:1029900018469047F5E7FFF71BFFF2E730B482B027
:1029A0000023019390F83C30012B00F0BB80012301
:1029B00080F83C300B68092B41D90468E2689BB26F
:1029C00003EB43031E3B4FF0070C0CFA03F322EA20
:1029D0000303E3600468E2680B8803EB43031E3BD8
:1029E0008D6805FA03F31343E3604B68062B3DD86B
:1029F0000468626B03EB8303053B4FF01F0C0CFA7A
:102A000003F322EA030363630468626B4B6803EB1E
:102A10008303053BB1F800C00CFA03F3134363636F
:102A20000268414B9A4251D002683F4B9A4256D0BD
:102A3000002380F83C30184602B030BC7047046870
:102A400022699BB203EB43034FF0070C0CFA03F32C
:102A500022EA03032361046822690B8803EB430322
:102A60008D6805FA03F313432361BEE70C2B16D8D8
:102A700005682A6B03EB8303233B1F2404FA03F34B
:102A800022EA03032B6305682A6B4B6803EB83037D
:102A9000233B0C8804FA03F313432B63C0E7056858
:102AA000EA6A03EB8303413B1F2404FA03F322EA9F
:102AB0000303EB620568EA6A4B6803EB8303413B5F
:102AC0000C8804FA03F31343EB62A9E70B68122B9B
:102AD000AAD1164A536843F480035360A4E70B68F5
:102AE000103B012BA4D8114A536843F400035360F0
:102AF0000B68102B9CD10E4B1B6802F1467202F53D
:102B00002E3202F28332A2FB03239B0C03EB8303DE
:102B10005B00019302E0019B013B0193019B002BB1
:102B2000F9D185E7022087E700200140002301401A
:102B30000000002082B00023019390F83C30012B6C
:102B40006CD0012380F83C3003689A6812F0010FC2
:102B500013D19A6842F001029A60354B1B68354ADE
:102B6000A2FB03239B0C03EB4303019302E0019BB5
:102B7000013B0193019B002BF9D10268936813F08C
:102B8000010F40D0036C23F4405323F0010343F4BE
:102B900080530364036C13F4807F01D100234364EA
:102BA000002380F83C306FF0040313600268536820
:102BB00043F080035360204B5B6813F01F0F0ED16E
:102BC00002689168536803F4806311F4401F27D1B1
:102BD00043BB936843F48003936000201CE00368C8
:102BE0009A6802F44012596801F4806113488342E4
:102BF00001D0002010E0BAB9C1B99A6842F480024D
:102C00009A60002008E0036C43F010030364436CF7
:102C100043F001034364002002B070470220FBE749
:102C20000020F9E70020F7E70020F5E70020F3E7B0
:102C30000000002083DE1B430023014000200140F0
:102C400082B00023019303686FF004021A60013917
:102C5000032906D8DFE801F0100C080203689B6C1A
:102C60000193019802B0704703685B6C0193F8E729
:102C700003681B6C0193F4E70368DB6B0193F0E7D7
:102C800090F83C30012B00F0FB8030B4012380F839
:102C90003C300B68092B7FD90568EA689BB203EBCF
:102CA00043031E3B072404FA03F322EA0303EB6009
:102CB0000568EA688C680B8803EB43031E3B04FA43
:102CC00003F31343EB600268936B23F440139363A5
:102CD0000468A36B0A69013A43EA0253A3630468D8
:102CE000A26B4B680D695B1BDBB20333DBB203EBFA
:102CF00083034FF01F0C0CFA03F322EA0303A363D0
:102D00000468A26B4B680D695B1BDBB20333DBB25B
:102D100003EB8303B1F800C00CFA03F31343A3637E
:102D20008A69584B9A424DD00268936823F4702305
:102D30009360026893688C69234393600268936888
:102D400023F44013936002689368CC692343936033
:102D50004B7D002B41D00268536843F4806353607D
:102D60000B7D002B3FD00268536843F480535360BF
:102D70004B68022B57D0032B62D0012B39D002684D
:102D8000136A23F47F6323F00F0313620268136A4C
:102D9000CC682343136238E005682A699BB203EBD1
:102DA0004303072404FA03F322EA03032B610568B3
:102DB0002A698C680B8803EB430304FA03F313437B
:102DC0002B6180E70268936823F4702393600268A4
:102DD000936823F440139360BAE70268536823F4BE
:102DE00080635360BCE70268536823F480535360E8
:102DF000BEE70268536923F47F6323F00F03536136
:102E000002685369CC682343536102681E4B9A429F
:102E100023D002681C4B9A4228D0002380F83C3013
:102E2000184630BC70470268936923F47F6323F02F
:102E30000F03936102689369CC6823439361E4E7CD
:102E40000268D36923F47F6323F00F03D361026820
:102E5000D369CC682343D361D7E70B68122BD8D151
:102E60000A4A536843F480035360D2E70B68103B6F
:102E7000012BD2D8054A536843F400035360CCE7D2
:102E80000220704701000F00002001400023014094
:102E9000002800F0A18038B5044690F82030D3B166
:102EA0002268136843F001031360FFF7DBFA05465D
:102EB00023685A6812F0010F10D1FFF7D3FA401BB4
:102EC0000A28F5D9636A43F400336362052384F862
:102ED0002030012038BDFEF78BFCE1E71A6822F0B4
:102EE00002021A60FFF7BEFA054623685A6812F01C
:102EF000020F0DD0FFF7B6FA401B0A28F5D9636A16
:102F000043F400336362052384F820300120E1E7B5
:102F1000227E012A3DD01A6822F080021A60637E68
:102F2000012B3BD02268136823F040031360A37E7B
:102F3000012B39D02268136823F020031360E37E4D
:102F4000012B37D02268136843F010031360237FEE
:102F5000012B35D02268136823F008031360637FC8
:102F6000012B33D02268136823F004031360A36895
:102F7000E268134322691343626913436268013AAA
:102F800021681343CB6100206062012384F8203064
:102F9000A0E71A6842F080021A60C0E7226813684E
:102FA00043F040031360C2E72268136843F0200334
:102FB0001360C4E72268136823F010031360C6E7A8
:102FC0002268136843F008031360C8E72268136897
:102FD00043F004031360CAE70120704790F82030E3
:102FE000013BDBB2012B05D9436A43F480234362E2
:102FF0000120704730B5464BD3F8002242F0010261
:10300000C3F80022D3F8002222F47C52C3F8002235
:10301000D3F80022486A42EA0022C3F800224A6933
:1030200002F01F02012000FA02F2D3F81C026FEA3C
:10303000020C20EA0200C3F81C02CB69C3B9344B6E
:10304000D3F80C020CEA0000C3F80C028C88486923
:10305000CD6844EA0544483043F830408C6808881D
:1030600040EA04404C6904F1480E03EBCE0358607B
:10307000CB69012B1ED08B69002B33D12448D0F8AB
:1030800004320CEA0303C0F804320B698BBB2048FE
:10309000D0F814320CEA0303C0F814320B6A012B87
:1030A0002ED01B4AD2F8003223F00103C2F80032BE
:1030B000002030BD164BD3F80C021043C3F80C02AD
:1030C0008C8848690D6844EA0544483043F830402C
:1030D00088894C698D6840EA0540483403EBC40395
:1030E0005860C8E70A48D0F804321343C0F80432E5
:1030F000CBE70748D0F814321343C0F81432CDE7B9
:103100000349D1F81C321A43C1F81C22C9E700BF99
:103110000064004070B5044690F82050EDB2012DD7
:1031200006D0436A43F4002343620125284670BD5C
:10313000022380F820300268136823F00103136033
:10314000FFF790F9064623685B6813F0010F0CD077
:10315000FFF788F9831B0A2BF5D9636A43F4003320
:103160006362052384F82030E0E700256562DDE72F
:1031700030B590F820C00468A4680CF1FF3C5FFAF9
:103180008CFCBCF1010F6BD814F0E05F62D0C4F38B
:10319000016CBCF1020F05D9436A43F4000343629A
:1031A000012062E0012404FA0CF41C608B68002BFF
:1031B0003DD10D68CB68046843EA45550CF118030E
:1031C0001B01E55003680C690CF1180E03EB0E139C
:1031D0005C600B7D012B35D0D17993791B0443EAD8
:1031E0000163517943EA012314790168234301EB18
:1031F0000C11C1F88C31D17893781B0443EA016338
:10320000517843EA0123117802680B4302EB0C1258
:10321000C2F8883102680CF1180C4FEA0C1C52F805
:103220000C3043F0010342F80C3000201DE04C68E4
:1032300043EAC403CC6823430CF118042401056855
:103240002B51BFE7036803EB0E13596841F48071FB
:103250005960C1E7436A43F400134362012004E06C
:10326000436A43F480234362012030BD90F820C0BC
:103270000CF1FF3C5FFA8CFCBCF1010F00F2958071
:1032800030B451B90468E46814F0030F10D1436AF4
:1032900043F400134362012077E00468246914F0CA
:1032A000030F05D1436A43F40013436201206CE02D
:1032B00001F11B04240105682C5904F004049460F6
:1032C000002C64D101F11B04240105682C59640D04
:1032D0001460046801F11B0C4FEA0C1C54F80C40FC
:1032E00004F00204D46004686444646804F00F04C9
:1032F0001461046864446468C4F307249461046836
:1033000064446468240C5461026802EB0112D2F830
:10331000B8211A70026802EB0112D2F8B821C2F388
:1033200007225A70026802EB0112D2F8B821C2F3E8
:1033300007429A70026802EB0112D2F8B821120E0D
:10334000DA70026802EB0112D2F8BC211A7102682D
:1033500002EB0112D2F8BC21C2F307225A710268B3
:1033600002EB0112D2F8BC21C2F307429A71026843
:1033700002EB0112D2F8BC21120EDA7179B902689F
:10338000D36843F02003D360002030BC704701F1C4
:103390001B04240105682C59E408546099E702686D
:1033A000136943F020031361EEE7436A43F480237B
:1033B00043620120704790F82030013BDBB2012BC3
:1033C00005D9436A43F480234362012070470268B1
:1033D0005369194351610020704770477047704727
:1033E0007047704770477047704770477047704725
:1033F00070472DE9F84F054603685C69D3F80480EF
:103400009F68D3F80CB0D3F810A0D3F8189014F03C
:1034100001063BD017F0010616D001229A6017F082
:10342000020F08D117F0040F0CD117F0080606D0D0
:103430004FF4805608E0FFF7D0FF002604E0FFF7C6
:10344000CFFF01E04FF4006617F4807F0DD02B68AA
:103450004FF480729A6017F4007F40F0868017F472
:10346000806F00F0868046F4005617F4803F0DD040
:103470002B684FF480329A6017F4003F40F083804D
:1034800017F4802F00F0838046F4004614F0080FF4
:1034900007D01BF0100F04D046F400762B681022E2
:1034A000DA6014F0040F02D01BF0080F79D114F089
:1034B000020F04D02B68DB6813F0030F78D114F0EF
:1034C000400F07D01AF0100F04D046F480662B6826
:1034D00010221A6114F0200F02D01AF0080F6BD1DD
:1034E00014F0100F04D02B681B6913F0030F6AD17E
:1034F00014F4003F02D018F0100F68D114F4803F8C
:1035000002D018F0080F69D114F4004F7AD018F0E7
:10351000040F74D014F4807F04D019F0010F01D08F
:1035200046F0010614F4007F04D019F0020F01D018
:1035300046F0020614F4806F04D019F0040F01D095
:1035400046F0040614F4006F59D019F0700956D0F3
:10355000B9F1400F65D058D8B9F1200F5ED0B9F15C
:10356000300F42D146F0200644E02846FFF736FFF0
:103570007BE717F4006F02D046F4804675E72846D3
:10358000FFF72FFF71E72846FFF729FF7EE717F4C3
:10359000002F02D046F4803678E72846FFF722FF56
:1035A00074E72B680822DA602846FFF71CFF7EE7E5
:1035B000284604F0B9FA82E72B6808221A612846E7
:1035C000FFF713FF8CE72846FFF70EFF90E72B6805
:1035D00010225A602846FFF709FF8FE72B68082260
:1035E0005A602846FFF703FF8EE7B9F1100F01D1AB
:1035F00046F008062A68936923F0700393612B68EC
:1036000004225A609EB9BDE8F88FB9F1500F0BD073
:10361000B9F1600FEED146F48076EBE746F0100684
:10362000E8E746F04006E5E746F08006E2E76B6A29
:103630001E436E622846FFF7DBFEE4E7074AD368C5
:1036400023F4E0631B041B0C000200F4E06003435E
:1036500043F0BF6343F40033D360704700ED00E0F4
:1036600000B5194BDB68C3F30223C3F1070CBCF1AF
:10367000040F28BF4FF0040C03F1040EBEF1060F37
:1036800018D9033B4FF0FF3E0EFA0CFC21EA0C0167
:1036900099400EFA03F322EA0303194300280BDBD7
:1036A0000901C9B200F1604000F5614080F80013E3
:1036B0005DF804FB0023E5E700F00F000901C9B243
:1036C000024B1954F4E700BF00ED00E014ED00E0F8
:1036D000002807DB00F01F02400901239340024A43
:1036E00042F82030704700BF00E100E00138B0F13F
:1036F000807F0BD24FF0E0235861054AF02182F819
:1037000023100020986107221A617047012070473A
:1037100000ED00E070B110B50446037933B1022327
:103720002371002020610123237110BD4371FEF736
:10373000C9F8F4E7012070474379012B2ED010B46B
:1037400001234371022202710468226801F0100C07
:1037500003FA0CF31343236091B90268136803F072
:103760003C033C2B07D0012303710023437118460F
:103770005DF8044B7047536843F001035360F2E770
:1037800001680A6802F470123C2303FA0CFC6245DB
:10379000E9D14B6843F002034B60E4E70220704735
:1037A00010B483B0002401940068019051B90199CC
:1037B0000A4408320192019A1360002003B05DF8B8
:1037C000044B704701990A4414320192F3E743799C
:1037D000012B25D010B54FF0010E80F805E0022333
:1037E00003710468236802F0100240F6FE7C0CFAB4
:1037F00002FC23EA0C0C0B6849680B43934043EA34
:103800000C03236004682368C02101FA02F223EA52
:103810000202226080F804E000234371184610BDC4
:103820000220704730B405682C6824F480242C6092
:10383000046863608368402B05D00368996003685F
:10384000DA6030BC704703689A600368D960F8E7B3
:1038500010B40368D9B210390C4AA2FB0142120914
:103860000B4CA25CC2655F2909D923F47F7323F056
:10387000030304338365806D5DF8044B704723F4C4
:103880007F7323F003038365F5E700BFABAAAAAA01
:1038900024270108836A826992B9012B0AD0022B7E
:1038A00002D00BB100207047C36A13F0807F28D18B
:1038B00000207047C36AB3F1C07F24D00020704756
:1038C000B2F5005F09D0022B25D9032B25D1C36A9D
:1038D00013F0807F23D100207047032B03D8DFE84B
:1038E00003F01404140A00207047C36A13F0807FA9
:1038F0000DD100207047C36AB3F1C07F09D000200A
:103900007047012070470120704701207047012057
:103910007047012070470120704700207047012048
:103920007047000070B50446FEF79CFD002C5BD08C
:103930000546022384F83530002384F834302268A9
:10394000136823F00103136023681A6812F0010F53
:103950000AD0FEF787FD431B052BF5D920236365AD
:10396000032084F8350070BD1A6820481040616853
:10397000A2680A43E1680A4321690A4361690A436C
:10398000A1690A43E1690A43216A0A430243616A61
:1039900004291ED01A602668756925F00705636A38
:1039A0001D43042B07D1A36A1D43E36A1BB12046C4
:1039B000FFF770FF90B975612046FFF749FFE26D90
:1039C0003F239340836000206065012384F83530F5
:1039D000C9E7E16A206B01430A43DBE740236365E3
:1039E000012084F83500BEE70120BCE73F8010F0DD
:1039F00038B50446856D90F8340001282BD001209D
:103A000084F8340094F83500C0B2012804D00023B3
:103A100084F83430022038BD022084F835000020BC
:103A200060652046FFF7FEFEE26D3F239340AB60EA
:103A30002268136843F016031360236C23B12268D5
:103A4000136843F0080313602268136843F001030E
:103A500013600020DFE70220DDE70000F0B583B04F
:103A6000044600230193724B1D68724BA3FB05357E
:103A7000AD0A876D3E68C26D08239340334210D073
:103A800003681A6812F0040F0BD01A6822F00402BF
:103A90001A60C26D08239340BB60436D43F001037D
:103AA0004365E26D01239340334209D02268526995
:103AB00012F0800F04D0BB60636D43F002036365B6
:103AC000E26D04239340334209D02268126812F059
:103AD000020F04D0BB60636D43F004036365E26DC5
:103AE00010239340334224D02268126812F0080F4A
:103AF0001FD0BB6023681A6812F4802F0DD01B689A
:103B000013F4002F04D1236C9BB12046984710E09A
:103B1000A36C73B1204698470BE01A6812F4807FBB
:103B200003D11A6822F008021A60236C0BB12046F8
:103B30009847E26D20239340334255D022681268A3
:103B400012F0100F50D0BB6094F83530DBB2052B6B
:103B50000ED023681A6812F4802F33D01B6813F438
:103B6000002F2AD1636C002B3ED0204698473BE0C3
:103B70002268136823F0160313602268536923F048
:103B800080035361236CA3B12268136823F00803F8
:103B90001360E26D3F239340BB60012384F835300E
:103BA000002384F83430236D002B3FD02046984703
:103BB0003CE0A36C002BE7D1EBE7E36BA3B120461D
:103BC000984711E01A6812F4807F09D11A6822F030
:103BD00010021A60012384F83530002384F8343051
:103BE000E36B0BB120469847636DFBB1636D13F037
:103BF000010F17D0052384F835302268136823F0AD
:103C000001031360019B01330193AB4204D8236885
:103C10001B6813F0010FF5D1012384F83530002320
:103C200084F83430E36C0BB12046984703B0F0BD04
:103C300000000020B5814E1B00230F2B00F2E48012
:103C400070B582B060E085685E000324B44025EA68
:103C50000405CC68B4402C438460456825EA02051D
:103C60004C68C4F300129A402A4342605AE0DC08D0
:103C7000083450F8246003F0070295000F22AA4090
:103C800026EA020E0A69AA4042EA0E0240F82420FF
:103C90005CE0072200E0002202FA0EF22A4302341E
:103CA0005A4D45F824205A4A94686FEA0C0224EAD7
:103CB0000C054E6816F4801F01D04CEA0405544CE4
:103CC000A560E46802EA04054E6816F4001F01D0FE
:103CD0004CEA04054E4CE560646802EA04054E684F
:103CE00016F4003F01D04CEA0405494C6560246895
:103CF00022404D6815F4803F01D04CEA0402444C48
:103D0000226001330F2B7DD801229A400C6804EA0F
:103D1000020C32EA0404F4D14C6804F00304013CC0
:103D2000012C90D94A6802F00302032A09D0C46822
:103D30005D000322AA4024EA02048A68AA402243C2
:103D4000C2604A6802F00302022A90D004684FEA77
:103D5000430E032202FA0EF224EA02044A6802F039
:103D6000030202FA0EF2224302604A6812F4403F54
:103D7000C7D000220192274A546C44F48044546412
:103D8000526C02F480420192019A9C08A51C1F4AC1
:103D900052F8255003F003024FEA820E0F2202FA76
:103DA0000EF225EA02051C4A90423FF474AF02F578
:103DB000806290421AD002F58062904218D002F5DB
:103DC0008062904216D002F58062904214D002F5D3
:103DD0008062904212D002F58062904210D002F5CB
:103DE000806290423FF455AF082255E7012253E725
:103DF000022251E703224FE704224DE705224BE759
:103E0000062249E702B070BD704700BF003801408C
:103E1000003C014000380240000002400AB18161CC
:103E20007047090481617047436901EA030221EA8E
:103E3000030141EA02418161704703685A6912F443
:103E4000806F01D1002070476FF480625A610023B7
:103E50000363202280F83D2080F83E30026C42F05F
:103E60000402026480F83C30012070472DE9F041E3
:103E700007460D4690461E4624E0FEF7F3FA069BE1
:103E8000C01AB04200D8EEB900233B63202287F865
:103E90003D2087F83E303A6C42F020023A6487F8C1
:103EA0003C3001201EE03B689C6925EA040C1FFAA7
:103EB0008CFCBCFA8CFC4FEA5C1CE04511D1B6F1DD
:103EC000FF3FDAD1C5F30743012BECD13B685B69B7
:103ED00025EA030C1FFA8CFCBCFA8CFC4FEA5C1C34
:103EE000EBE70020BDE8F0812DE9F04105460E46E4
:103EF000174698463DE01A6842F400721A602B6833
:103F00006FF480625A6100232B63202285F83D20E4
:103F100085F83E302A6C42F004022A6485F83C3071
:103F2000012034E0FEF79EFAA0EB0800B84200D86A
:103F3000FFB900232B63202285F83D2085F83E3011
:103F40002A6C42F020022A6485F83C3001201EE0F1
:103F50002B689C6926EA0404A4B2003C18BF012423
:103F6000A4B12B685A6912F4806FC4D1B7F1FF3F36
:103F7000D8D1C6F30743012BEAD12B685C6926EA46
:103F80000404A4B2003C18BF0124E9E70020BDE806
:103F9000F08170B504460D46164623685B6913F040
:103FA000800F1CD12046FFF748FFD0B9B5F1FF3F85
:103FB000F3D0FEF757FA801BA84201D8002DECD1B0
:103FC00000232363202284F83D2084F83E30226CB5
:103FD00042F02002226484F83C30012000E00020FE
:103FE00070BD0120FCE700002DE9F04385B00446D8
:103FF0000D4691461F46DDF830800D9E0368196816
:1040000041F4807119600096434600224FF001117F
:10401000FFF72CFF60B9236805F0FE051D613346EC
:10402000424626492046FFF75FFF68B1012008E0BD
:1040300023681B6813F4807F02D04FF4007323645D
:10404000032005B0BDE8F0830023039323685A6979
:1040500003929B690393039B324641462046FFF738
:1040600098FF30B9012F0FD123685FFA89F61E61DE
:10407000E7E7236C042B01D00120E2E722681368F4
:1040800043F400731360F7E723684FEA19221A61BB
:10409000324641462046FFF77CFF20B923685FFA8D
:1040A00089F61E61CDE7236C042B01D00120C8E7FF
:1040B0002268136843F400731360F7E702000100FD
:1040C0002DE9F04784B004460D46164699460C9FEC
:1040D000DDF834800268136843F48063136003687A
:1040E000196841F480711960CDF800803B460022C8
:1040F0004FF00111FFF7BAFE70B95FFA85FA236835
:1041000005F0FE051D6143463A4641492046FFF74A
:10411000EBFE68B1012008E023681B6813F4807F80
:1041200002D04FF400732364032004B0BDE8F0878D
:104130000023039323685A6903929B690393039BAB
:10414000424639462046FFF724FF80B9B9F1010FF6
:1041500018D12368F6B21E61424639462046FFF761
:1041600018FF68B3236C042B24D00120DDE7236CF7
:10417000042B01D00120D8E72268136843F40073B0
:104180001360F7E72368320A1A614246394620462F
:10419000FFF7FFFE18B92368F6B21E61DCE7236C57
:1041A000042B01D00120C0E72268136843F4007398
:1041B0001360F7E72268136843F400731360D4E7D1
:1041C0002268136843F480731360CDF800803B4687
:1041D00000224FF001112046FFF748FE68B922681F
:1041E0004AF00103136143463A4609492046FFF766
:1041F0007BFE002899D0012097E723681B6813F401
:10420000807F02D04FF40073236403208DE700BF4A
:104210000200010070B504460D46164623685B692E
:1042200013F0040F1CD12046FFF707FED0B9B5F1FB
:10423000FF3FF3D0FEF716F9801BA84201D8002DEE
:10424000ECD100232363202284F83D2084F83E3003
:10425000226C42F02002226484F83C30012000E00D
:10426000002070BD0120FCE770B505460C461646DF
:104270002B68596911F0400F29D1596911F0100FBD
:1042800015D1FEF7EFF8801BA04201D8002CEFD12A
:1042900000232B63202285F83D2085F83E302A6CD0
:1042A00042F020022A6485F83C30012070BD6FF096
:1042B00010025A6100232B63202285F83D2085F8E7
:1042C0003E302A6C2A6485F83C300120EEE700205D
:1042D000ECE70000002800F0CC8070B5044690F8B0
:1042E0003D30002B77D0242384F83D3022681368BA
:1042F00023F0010313602268136843F40043136042
:104300002268136823F40043136001F06BFC6268B9
:104310005A4B9A4264D85A4B98428CBF00230123CF
:10432000002B40F0A8805749A1FB00318B0C256879
:104330006A6822F03F0242EA91426A6021680A6A92
:1043400022F03F0266684D4DAE424FD80133134311
:104350000B622168CA6922F44F4222F0FF026668AC
:10436000464B9E424CD8431E7600B3FBF6F3013316
:1043700040F6FC70034278D0C3F30B031343CB61C8
:1043800021680B6823F0C003E269206A02431343EB
:104390000B6021688B6823F4034323F0FF03226939
:1043A000E068024313438B602168CB6823F0FF036E
:1043B0006269A06902431343CB602268136843F02B
:1043C0000103136000202064202384F83D30206323
:1043D00084F83E0070BD80F83C30FDF76DFB82E74D
:1043E000294B98428CBF0023012399E74FF496751F
:1043F00005FB03F3254DA5FB03539B090133A6E7FA
:10440000A368BBB9451E06EB460CB5FBFCF50135B0
:10441000C5F30B05B5FA85F56D0945BBC3B9013880
:1044200006EB4603B0FBF3F30133C3F30B0343F492
:104430000043A3E7451E06EB860C0CEB8C0CB5FB8A
:10444000FCF50135C5F30B05B5FA85F56D09E4E713
:10445000013806EB860303EB8303B0FBF3F3013370
:10446000C3F30B0343F4404388E7042386E70123A7
:1044700084E7012070470120ACE700BFA08601005F
:104480007F841E0083DE1B43FF083D00D34D621076
:104490002DE9F04383B004460F46904699460C9EA2
:1044A000FDF7E0FF054694F83D00C0B2202803D098
:1044B000022003B0BDE8F0830095192301224B4987
:1044C0002046FFF7D3FC002840F0898094F83C3068
:1044D000012B00F08680012384F83C3023681A68A1
:1044E00012F0010F03D11A6842F001021A6022682B
:1044F000136823F400631360212384F83D304023C4
:1045000084F83E30002323640A9B6362BDF82C309C
:104510006385638D2385364BE362019500964B4698
:10452000424639462046FFF75FFD00285BD1238DC8
:10453000002B35D02A4631462046FFF72AFD20BB06
:10454000626A236812781A61626A531C6362218D61
:10455000013989B22185638D9BB2013B9BB2638592
:104560002368586910F0040FE1D00029DFD0527899
:104570001A61636A01336362238D013B2385638D76
:104580009BB2013B9BB26385D1E7236C042B01D026
:1045900001208EE72268136843F400731360F7E785
:1045A0002A4631462046FFF735FE50B1236C042BD6
:1045B00001D001207DE72268136843F40073136083
:1045C000F7E72268136843F400731360202384F82C
:1045D0003D30002384F83E3084F83C3069E7022007
:1045E00067E7022065E7012063E700BF02001000D3
:1045F0000000FFFF2DE9F04387B004460F469046C8
:104600009946109EFDF72EFF054694F83D00C0B276
:10461000202804D00227384607B0BDE8F083009573
:104620001923012288492046FFF720FC002840F08A
:10463000438194F83C30012B00F04081012384F841
:104640003C3023681A6812F0010F03D11A6842F057
:1046500001021A602268136823F4006313602223A6
:1046600084F83D30402384F83E30002323640E9BC1
:104670006362BDF83C306385638D2385734BE362D1
:10468000019500964B46424639462046FFF718FDF5
:104690000746002840F01481238D5BB902932368FC
:1046A0005A6902929A690292029A1A6842F4007256
:1046B0001A6075E0012B0AD0022B1AD00023059353
:1046C00023685A6905929B690593059B68E02268F7
:1046D000136823F4806313600023039323685A69EB
:1046E00003929A690392039A1A6842F400721A605C
:1046F00056E02268136823F480631360226813680D
:1047000043F4006313600023049323685A690492FE
:104710009B690493049B43E02A4631462046FFF7F9
:10472000A3FD002840F0CE8023681A69636A1A70DE
:10473000636A01336362238D013B2385638D9BB2E2
:10474000013B9BB263852BE0009533460022404934
:104750002046FFF78BFB002840F0B68022681368E4
:1047600043F40073136023681A69636A1A70626AFB
:10477000531C6362238D013B2385638D9BB2013BF8
:104780009BB2638523681B695370636A013363625C
:10479000238D013B2385638D9BB2013B9BB26385D7
:1047A000238D002B7FD0032B54D8012BB4D0022BA8
:1047B000CAD000953346002225492046FFF756FB14
:1047C000002840F083802268136823F4806313601C
:1047D00023681A69636A1A70636A01336362238DFE
:1047E000013B2385638D9BB2013B9BB263850095A2
:1047F0003346002216492046FFF738FB002867D1D0
:104800002268136843F40073136023681A69636AAB
:104810001A70626A531C6362238D013B2385638D8A
:104820009BB2013B9BB2638523681B695370636A2B
:1048300001336362238D013B2385638D9BB2013B72
:104840009BB26385ACE700BF020010000000FFFFD1
:10485000040001002A4631462046FFF705FD0028E6
:1048600038D123681A69636A1A70626A531C6362DA
:10487000238D013B2385638D9BB2013B9BB26385F6
:104880002368596911F0040F8AD01B695370636A59
:1048900001336362238D013B2385638D9BB2013B12
:1048A0009BB263857CE7202384F83D30002384F8A5
:1048B0003E3084F83C30AEE60227ACE60227AAE69A
:1048C0000127A8E60127A6E60127A4E60127A2E61C
:1048D0000127A0E601279EE62DE9F04383B0D0F83A
:1048E000008001EBC10300EB8303DA6D5B6D9A423C
:1048F00054D807460C469B1A01EBC10200EB82021A
:10490000926C9A4200D31A4602F103094FEA9909C0
:1049100015E006F103094FEA990904EBC40507EB1A
:104920008505E96C3B7C0093B3B2E2B2404602F0ED
:10493000E2FBEB6C3344EB64EB6D3344EB6508EB6B
:10494000441303F510639B699BB24B4512D304EBF0
:10495000C40207EB8202D16D536D99420AD24BB16A
:104960005B1A04EBC40207EB8202966C9E42D0D322
:104970001E46CEE704EBC40007EB80077A6DFB6DA3
:104980009A420FD804F00F040123A340D8F834480A
:1049900024EA0304C8F83448002000E0012003B0F2
:1049A000BDE8F0830020FAE770B58AB0002800F077
:1049B00090800546046890F8BD343BB3032385F826
:1049C000BD34E36B13F4807F01D100232B61286891
:1049D00002F0ACF82C4654F8106BEC460FCCACE867
:1049E0000F000FCCACE80F0094E803008CE8030044
:1049F0002B1D0ECB304601F0DBFF044658B10223DD
:104A000085F8BD34012420460AB070BD80F8BC345E
:104A100005F0A8F9D2E70021286802F083FD2346BB
:104A200016E003EBC30205EB8202012182F83D1080
:104A300082F83C30A2F84430002182F840109164A2
:104A4000D16403EBC30205EB820251650133DBB293
:104A500069688B42E5D316E004EBC40305EB8303DE
:104A6000002283F87D2283F87C4283F88022C3F8F9
:104A70008822C3F88C2204EBC40305EB8303C3F83C
:104A800094220134E4B2A142E6D82C4654F8106BCB
:104A9000EC460FCCACE80F000FCCACE80F0094E86C
:104AA00003008CE803002B1D0ECB304602F09AF871
:104AB000044620B1022385F8BD340124A3E7002376
:104AC00085F83830012385F8BD34286802F0E7FC0A
:104AD00099E7012497E7026890F8BC34012B19D0BC
:104AE00010B50446012380F8BC34836A012B09D039
:104AF000206802F015F8206802F0C3FC002084F85A
:104B0000BC0410BD8369012BF2D0936B43F4803356
:104B10009363EDE70220704770B504460D460068C8
:104B2000066C00EB411303F530639A682169012993
:104B300011D038498E4256D03DB905EBC50304EB80
:104B40008303D3F89432002B5ED0E9B2204605F0FF
:104B500053F9002070BD12F0080F09D02E498E4283
:104B6000F7D912F4004FF4D04FF400429A60F0E706
:104B700012F0200F02D020229A60EAE712F0280FEC
:104B8000E7D125498E4206D912F4004F03D04FF4E5
:104B900000429A60DDE705EBC50204EB8202D2F821
:104BA00098121B69C3F31203CB1AC2F89C327DB969
:104BB00005EBC50204EB8202D2F894226AB105EB40
:104BC000C50204EB8202D2F88C120B44C2F88C327C
:104BD000E9B2204605F010F9BBE704F2C442012116
:104BE00002F0E2FCF4E712F4004F03D04FF400426D
:104BF0009A60AEE712F0200F01D020229A60E9B24D
:104C0000204605F0F9F8A4E704F2C442002102F0BE
:104C1000CBFC9AE70A31544F0A30544F38B504465A
:104C200003681D6C03EB4113D3F8081B0E4A954231
:104C300007D903F5306311F4004F02D04FF400425E
:104C40009A60204605F0D0F8074B9D4202D92369AF
:104C5000012B01D0002038BD04F2C442012120689C
:104C600002F0A2FCF6E700BF0A30544F90F8BC34C3
:104C7000012B0DD010B50446012380F8BC3480F818
:104C80003810006802F0EDFB002084F8BC0410BD71
:104C90000220704738B505468C4611F0800F29D1A7
:104CA00001F00F0E0EEBCE04A40004F51E740444B4
:104CB000211D0EEBCE0E00EB8E0E00208EF87D0235
:104CC0000CF00F0C81F800C0CA600B714A780AB171
:104CD000A1F808C0022B1DD095F8BC34012B1CD0C4
:104CE000012385F8BC34286802F055F8002085F8C7
:104CF000BC0438BD01F00F0000EBC0018900383161
:104D00002944043100EBC00005EB8000012480F849
:104D10003D40D5E700234B71DEE70220E9E710B5FF
:104D200004460A4611F0800F20D101F00F0000EB7D
:104D3000C0039B0003F51E732344191D00EBC00044
:104D400004EB8000002380F87D3202F00F020A702D
:104D500094F8BC34012B19D0012384F8BC342068AA
:104D600002F068F8002084F8BC0410BD01F00F00C8
:104D700000EBC0039B0038332344191D00EBC00037
:104D800004EB8000012380F83D30DEE70220ECE7F1
:104D900010B501F00F0404EBC401890001F51E7188
:104DA0000144043104EBC40C00EB8C0CCCF88C22D5
:104DB000CCF894320023CCF89C328CF87D328CF8FD
:104DC0007C420369012B06D064B9DAB2006802F0B4
:104DD000A1F8002010BD04EBC40C00EB8C0CCCF847
:104DE0009022F1E7DAB2006802F09CF9F1E701F0F5
:104DF0000F0101EBC10100EB8101D1F89C0270476A
:104E000010B501F00F0404EBC401890038310144EE
:104E1000043104EBC40C00EB8C0CCCF84C20CCF827
:104E200054300023CCF85C3001238CF83D308CF8F2
:104E30003C400369012B06D064B9DAB2006802F085
:104E400069F8002010BD04EBC40C00EB8C0CCCF80E
:104E50005020F1E7DAB2006802F064F9F1E738B502
:104E600001F00F054268954239D804460B4611F00F
:104E7000800F1FD101EBC101890001F51E710144B2
:104E8000043103EBC30300EB8303002283F87D228C
:104E900001238B700D7094F8BC34012B21D00123B9
:104EA00084F8BC34206802F081FA8DB1002084F8C7
:104EB000BC0438BD05EBC50189003831014404311B
:104EC00005EBC50300EB8303012283F83D20DFE7F8
:104ED00004F2C442217C206802F066FBE6E7012070
:104EE000E7E70220E5E701F00F034268934231D87B
:104EF00010B5044611F0800F1ED103EBC3018900E9
:104F000001F51E710144043103EBC30200EB820280
:104F1000002082F87D0200228A700B7094F8BC3465
:104F2000012B19D0012384F8BC34206802F06BFAFD
:104F3000002084F8BC0410BD03EBC30189003831A4
:104F40000144043103EBC30200EB8202012082F82A
:104F50003D00E0E7012070470220ECE708B511F0C2
:104F6000800F0CD101F00F0101EBC101890001F5A7
:104F70001E7101440431006802F05EF808BD01F0C2
:104F80000F0101EBC1018900383101440431F2E71E
:104F90002DE9F04F83B004460568284602F0BEFABA
:104FA00010B103B0BDE8F08F0646206802F085FA24
:104FB0000028F6D005F50067BB68C3F30D23C4F8DD
:104FC000FC34206802F079FA10F0020F04D0226855
:104FD000536903F002035361206802F06EFA10F087
:104FE000100F13D02268936923F010039361D5F852
:104FF000208008F00F09C8F34343022B4BD0062B47
:105000006FD02268936943F010039361206802F027
:1050100054FA10F4002F76D1206802F04EFA10F402
:10502000802F40F0E080206802F047FA0028C0F2AC
:105030006381206802F041FA10F4006F09D0BB6868
:1050400013F0010F40F070812268536903F400638C
:105050005361206802F031FA10F4805F40F06881FB
:10506000206802F02AFA10F4005F40F0B581206851
:1050700002F023FA10F0080F40F0C681206802F019
:105080001CFA10F0800F00F0D981AB6923F0800387
:10509000AB610126C2E147F6F07318EA030FB0D006
:1050A0004FEA181B4FEAC903019309EBC90A04EB45
:1050B0008A0AC8F30A12DAF88C12284602F04CF970
:1050C000CBF30A0BDAF88C325B44CAF88C32019BC2
:1050D0004B4404EB8303D3F89C325B44CAF89C3204
:1050E0008FE7082204F2C441284602F035F9C8F3DC
:1050F0000A1809EBC90204EB8202D2F89C3243443D
:10510000C2F89C327DE7206802F0DBF98046B146A8
:1051100035E005EB49130122C3F8082B4946204628
:10512000FFF7FAFC3CE005EB49130822C3F8082B13
:1051300049462046FFF772FD35E009EBC90304EB51
:10514000830393F87F32012B41D005EB49130222F0
:10515000C3F8082B1AF0200F04D005EB49132022C6
:10516000C3F8082B1AF4005F05D005EB49134FF480
:105170000052C3F8082B09F101094FEA5808B8F1A9
:10518000000F3FF449AF18F0010FF4D05FFA89FB2C
:105190005946206802F0A5F9824610F0010FB8D1F7
:1051A0001AF0080FBFD11AF0100F04D005EB491305
:1051B0001022C3F8082B1AF0020FCBD06B6913F042
:1051C000800FBAD07B6843F480637B60B5E709EB5E
:1051D000C90304EB8303002283F87F22594620464B
:1051E00004F05CFEB1E7206802F073F98046B14636
:1051F00025E05946204604F00BFE1AF0080F04D0B3
:1052000005EB49130822C3F808291AF0100F04D03F
:1052100005EB49131022C3F808291AF0400F04D0F7
:1052200005EB49134022C3F808291AF0020F40D1B8
:105230001AF0800F5BD109F101094FEA5808B8F163
:10524000000F3FF4F0AE18F0010FF4D05FFA89FBC5
:105250005946206802F04EF9824610F0010FCCD07A
:1052600009F00F03012101FA03F27B6B23EA020329
:105270007B6305EB4913C3F8081923698B42B8D146
:1052800009EBC90304EB8303996CDA6C0A44DA6412
:10529000B9F1000FADD109EBC90304EB83035B6DDA
:1052A000002BA6D104F2C4420121206802F07CF94F
:1052B0009FE74946284601F03FFC09EBC90304EB90
:1052C000830393F83F30012B05D005EB49130222ED
:1052D000C3F80829ACE709EBC90304EB83030022F8
:1052E00083F83F205946204604F0DEFDEDE74946AD
:1052F0002046FFF7F1FA9EE77B6823F001037B600D
:1053000094F8F434012B08D0204604F0C1FD226843
:10531000536903F0004353618BE6002184F8F414D1
:10532000204600F041F9F2E7204604F099FD8BE6B3
:105330007B6823F001037B601021206801F0FCFBF7
:105340001AE005EB46134FF67F31C3F80819D3F87E
:10535000002922F40012C3F80029C3F8081BD3F86F
:10536000002B22F40012C3F8002BD3F8002B42F0DC
:105370000062C3F8002B01366368B342E1D8FB69D1
:1053800043F00113FB61236BDBB1D7F8843043F0AA
:105390000B03C7F884307B6C43F00B037B64D5F8B8
:1053A000003823F4FE63C5F8003804F2C442217CBF
:1053B000206802F0F9F82268536903F480535361BE
:1053C0004EE67B6943F4005343F02B037B613B695A
:1053D00043F00B033B61E2E7206802F0D4F8206859
:1053E00001F0C8FCE060266800F0F6FB0146227B75
:1053F000304601F023FB204604F01BFD2268536970
:1054000003F40053536132E6204604F00CFD226899
:10541000536903F00803536130E601366368B34211
:105420000CD906EBC60304EB830393F87F32012B00
:10543000F3D1F1B22046FFF791FDEEE7206802F0CC
:105440003CF810F4801F27D1206802F036F810F4E1
:10545000001F5BD0012328E001366368B3421DD9E9
:1054600005EB4613D3F8002906EBC60304EB8303D0
:1054700093F84030012BEFD1002AEDDA06EBC6039A
:1054800004EB8303012283F83F2066F07F01C9B259
:105490002046FFF763FDDFE70126DEE72268536958
:1054A00003F480135361CFE7013362689A4228D92D
:1054B00005EB4312D2F8001B03EBC30204EB82029C
:1054C00092F88022012AEFD10029EDDA01F480312F
:1054D000D4F8FC2402F001029142E5D103EBC302AF
:1054E00004EB8202012182F87F12AA6942F0800255
:1054F000AA616A6912F0800FD6D17B6843F4007309
:105500007B602268536903F400135361206801F043
:10551000D4FF10F0804F10D1206801F0CEFF10F0C2
:10552000040F3FF43EAD23685D6815F0040F0DD104
:10553000226853682B43536033E5204604F0BAFCDD
:105540002268536903F080435361E5E7204604F085
:10555000B7FCEDE710B40468606A31B940EA024074
:10556000A06200205DF8044B70478C46A36A00EBF4
:105570001340002308E003F1400104EB8101496876
:1055800000EB11400133DBB20CF1FF318B42F2D35F
:1055900040EA02400CF13F0104EB81014860E0E782
:1055A000036859620020704770470000002800F02F
:1055B000E08170B582B00446036813F0010F3BD060
:1055C0009F4B9B6803F00C03042B2CD09C4B9B68D7
:1055D00003F00C03082B21D06368B3F5803F4FD054
:1055E000B3F5A02F52D0964B1A6822F480321A607D
:1055F0001A6822F480221A606368002B50D0FCF7EE
:1056000031FF05468E4B1B6813F4003F14D1FCF7A5
:1056100029FF401B6428F5D90320B1E1884B5B6862
:1056200013F4800FD8D0864B1B6813F4003F03D0CF
:105630006368002B00F09F81236813F0020F54D0A1
:105640007F4B9B6813F00C0F3ED07D4B9B6803F0A3
:105650000C03082B33D0E368002B68D0794B012270
:105660001A60FCF7FFFE0546754B1B6813F0020F2E
:1056700054D1FCF7F7FE401B0228F5D903207FE147
:105680006F4A136843F480331360B5E76C4B1A68B4
:1056900042F480221A601A6842F480321A60ABE742
:1056A000FCF7E0FE0546664B1B6813F4003FC3D0D1
:1056B000FCF7D8FE401B6428F5D9032060E1604B5D
:1056C0005B6813F4800FC6D15D4B1B6813F0020FAB
:1056D00003D0E368012B40F05081594A136823F04E
:1056E000F803216943EAC1031360236813F0080F2C
:1056F00042D063696BB3534B0122C3F8802EFCF791
:10570000B1FE05464E4B5B6F13F0020F34D1FCF730
:10571000A9FE401B0228F5D9032031E1484A13684D
:1057200023F0F803216943EAC1031360DDE7454B29
:1057300000221A60FCF796FE0546414B1B6813F0E9
:10574000020FD2D0FCF78EFE401B0228F5D90320B1
:1057500016E13C4B0022C3F8802EFCF783FE054681
:10576000374B5B6F13F0020F06D0FCF77BFE401B3C
:105770000228F5D9032003E1236813F0040F77D042
:105780002F4B1B6C13F0805F33D1002301932C4B04
:105790001A6C42F080521A641B6C03F08053019320
:1057A000019B0125284B1B6813F4807F23D0A3683D
:1057B000012B34D0052B38D0214B1A6F22F0010277
:1057C0001A671A6F22F004021A67A368002B3DD0F3
:1057D000FCF748FE06461A4B1B6F13F0020F46D12A
:1057E000FCF740FE801B41F288339842F3D9032036
:1057F000C6E00025D6E7144A136843F480731360AB
:10580000FCF730FE0646104B1B6813F4807FCED1A8
:10581000FCF728FE801B0228F5D90320B0E0084AD7
:10582000136F43F001031367CFE7054B1A6F42F084
:1058300004021A671A6F42F001021A67C5E700BF37
:10584000003802400000474200700040FCF70AFEAA
:105850000646524B1B6F13F0020F08D0FCF702FEF6
:10586000801B41F288339842F3D9032088E0EDB9D8
:10587000A369002B00F08380484A926802F00C0272
:10588000082A51D0022B17D0454B00221A66FCF78C
:10589000E9FD0446414B1B6813F0007F42D0FCF742
:1058A000E1FD001B0228F5D9032069E03B4A136C97
:1058B00023F080531364DBE7394B00221A66FCF7B0
:1058C000D1FD0546354B1B6813F0007F06D0FCF771
:1058D000C9FD401B0228F5D9032051E0E369226A83
:1058E0001343626A43EA8213A26A5208013A43EA06
:1058F0000243E26A43EA0263284A5360284B0122CA
:105900001A66FCF7AFFD0446244B1B6813F0007FBA
:1059100006D1FCF7A7FD001B0228F5D903202FE0D4
:1059200000202DE000202BE0012B2BD01B4B5B68CF
:1059300003F48001E269914226D103F03F02216A1B
:105940008A4223D1616A47F6C0721A40B2EB811FC6
:105950001ED103F44031A26A5208013AB1EB024F62
:1059600018D103F07063E26AB3EB026F14D1002028
:1059700006E001207047012002E0012000E0002045
:1059800002B070BD0120FBE70120F9E70120F7E735
:105990000120F5E70120F3E70120F1E7003802409C
:1059A0000000474208B5314B9B6803F00C03042B01
:1059B00057D0082B57D12D4B5A6802F03F025B6835
:1059C00013F4800F2AD0294B5968C1F3881C4FEA81
:1059D0004C11B1EB0C006EEB0E0E4FEA8E1343EA46
:1059E00090638101091A63EB0E03DB0043EA5173F4
:1059F000C90011EB0C0C43F10003590200234FEADC
:105A00004C2041EADC51FAF78FFE184B5B68C3F378
:105A1000014301335B00B0FBF3F025E0134B596801
:105A2000C1F3881C4FEA4C11B1EB0C006EEB0E0E6B
:105A30004FEA8E1343EA90638101091A63EB0E0368
:105A4000DB0043EA5173C90011EB0C0C43F1000376
:105A5000990200234FEA8C2041EA9C51FAF764FE38
:105A6000D3E7034800E0034808BD00BF0038024008
:105A700000127A000024F400002800F09B8070B52A
:105A80000D4604464F4B1B6803F007038B4208D2B8
:105A9000CBB24C4A1370136803F007038B4240F0FB
:105AA0008B80236813F0020F17D013F0040F04D07B
:105AB000454A936843F4E0539360236813F0080F5A
:105AC00004D0414A936843F4604393603E4A93682C
:105AD00023F0F003A1680B439360236813F0010FD8
:105AE00032D06368012B21D09A1E012A25D9364A6B
:105AF000126812F0020F61D033498A6822F0030263
:105B000013438B60FCF7AEFC06462F4B9B6803F0FB
