:020000040800F2
:1000000000000220ED130008491100084B11000800
:100010004D1100084F1100085111000800000000A8
:100020000000000000000000000000005311000864
:100030005511000800000000571100085911000870
:100040003D1400083D1400083D1400083D1400084C
:100050003D1400083D1400083D1400083D1400083C
:100060003D1400083D1400083D1400083D1400082C
:100070003D1400083D1400083D1400083D1400081C
:100080003D1400083D140008611100083D140008EB
:100090003D1400083D1400083D1400083D140008FC
:1000A0003D1400083D1400083D1400083D140008EC
:1000B0003D1400083D1400083D1400083D140008DC
:1000C0003D1400083D1400083D1400083D140008CC
:1000D0003D1400083D1400083D1400083D140008BC
:1000E0003D1400083D1400083D1400083D140008AC
:1000F0003D1400083D1400083D1400083D1400089C
:100100003D1400083D1400083D1400083D1400088B
:100110003D1400083D1400083D1400083D1400087B
:100120003D1400083D1400083D1400083D1400086B
:100130003D14000800000000000000003D1400080D
:100140003D1400083D1400083D1400083D1400084B
:100150003D1400083D1400083D1400083D1400083B
:100160003D1400083D1400083D1400083D1400082B
:100170003D1400083D1400080000000000000000CD
:080180003D1400083D140008C5
:1001880010B5054C237833B9044B13B10448AFF3C9
:1001980000800123237010BD24050020000000000A
:1001A800DC4E000808B5034B1BB103490348AFF305
:1001B800008008BD0000000028050020DC4E000873
:1001C80070B54FF0FF0C4CF4E06C1CEA11541DBFE5
:1001D8001CEA135594EA0C0F95EA0C0F00F0DEF8B0
:1001E8002C4481EA030621EA4C5123EA4C5350EA95
:1001F800013518BF52EA033541F4801143F48013E6
:1002080038D0A0FB02CE4FF00005E1FB02E506F076
:100218000042E0FB03E54FF00006E1FB03569CF0CB
:10022800000F18BF4EF0010EA4F1FF04B6F5007FD1
:1002380064F5407404D25FEA4E0E6D4146EB060643
:1002480042EAC62141EA55514FEAC52040EA5E50CC
:100258004FEACE2EB4F1FD0C88BFBCF5E06F1ED876
:10026800BEF1004F08BF5FEA500E50F1000041EBAD
:10027800045170BD06F0004646EA010140EA02005A
:1002880081EA0301B4EB5C04C2BFD4EB0C0541EA7C
:10029800045170BD41F480114FF0000E013C00F391
:1002A800AB8014F1360FDEBF002001F0004170BDB5
:1002B800C4F10004203C35DA0C341BDC04F11404CE
:1002C800C4F1200500FA05F320FA04F001FA05F25A
:1002D80040EA020001F0004221F0004110EBD37027
:1002E80021FA04F642EB06015EEA430E08BF20EA53
:1002F800D37070BDC4F10C04C4F1200500FA04F3F6
:1003080020FA05F001FA04F240EA020001F0004187
:1003180010EBD37041F100015EEA430E08BF20EAFA
:10032800D37070BDC4F1200500FA05F24EEA020E42
:1003380020FA04F301FA05F243EA020321FA04F071
:1003480001F0004121FA04F220EA020000EBD37028
:100358005EEA430E08BF20EAD37070BD94F0000F28
:100368000FD101F00046400041EB010111F4801F5C
:1003780008BF013CF7D041EA060195F0000F18BF0D
:10038800704703F00046520043EB030313F4801F49
:1003980008BF013DF7D043EA0603704794EA0C0F03
:1003A8000CEA135518BF95EA0C0F0CD050EA410619
:1003B80018BF52EA4306D1D181EA030101F0004196
:1003C8004FF0000070BD50EA410606BF10461946BE
:1003D80052EA430619D094EA0C0F02D150EA0136CA
:1003E80013D195EA0C0F05D152EA03361CBF10460B
:1003F80019460AD181EA030101F0004141F0FE41AA
:1004080041F470014FF0000070BD41F0FE4141F42D
:10041800780170BD81F0004102E000BF83F0004325
:1004280030B54FEA41044FEA430594EA050F08BF87
:1004380090EA020F1FBF54EA000C55EA020C7FEA4B
:10044800645C7FEA655C00F0E2804FEA5454D4EBC8
:100458005555B8BF6D420CDD2C4480EA020281EA92
:10046800030382EA000083EA010180EA020281EACA
:100478000303362D88BF30BD11F0004F4FEA01311C
:100488004FF4801C4CEA113102D0404261EB41012B
:1004980013F0004F4FEA03334CEA133302D05242B1
:1004A80063EB430394EA050F00F0A780A4F101046D
:1004B800D5F1200E0DDB02FA0EFC22FA05F28018A7
:1004C80041F1000103FA0EF2801843FA05F359418D
:1004D8000EE0A5F120050EF1200E012A03FA0EFC0C
:1004E80028BF4CF0020C43FA05F3C01851EBE37136
:1004F80001F0004507D54FF0000EDCF1000C7EEB53
:1005080000006EEB0101B1F5801F1BD3B1F5001F90
:100518000CD349085FEA30004FEA3C0C04F10104AF
:100528004FEA445212F5800F80F09A80BCF1004FD8
:1005380008BF5FEA500C50F1000041EB045141EA5A
:10054800050130BD5FEA4C0C404141EB0101013C23
:1005580028BFB1F5801FE9D291F0000F04BF014612
:100568000020B1FA81F308BF2033A3F10B03B3F1E4
:1005780020020CDA0C3208DD02F1140CC2F10C0274
:1005880001FA0CF021FA02F10CE002F11402D8BFD2
:10059800C2F1200C01FA02F120FA0CFCDCBF41EA9E
:1005A8000C019040E41AA2BF01EB0451294330BD6D
:1005B8006FEA04041F3C1CDA0C340EDC04F114044A
:1005C800C4F1200220FA04F001FA02F340EA030021
:1005D80021FA04F345EA030130BDC4F10C04C4F167
:1005E800200220FA02F001FA04F340EA0300294647
:1005F80030BD21FA04F0294630BD94F0000F83F491
:10060800801306BF81F480110134013D4EE77FEA73
:10061800645C18BF7FEA655C29D094EA050F08BFBF
:1006280090EA020F05D054EA000C04BF19461046A0
:1006380030BD91EA030F1EBF0021002030BD5FEAE4
:10064800545C05D14000494128BF41F0004130BD0C
:1006580014F580043CBF01F5801130BD01F0004560
:1006680045F0FE4141F470014FF0000030BD7FEAD3
:10067800645C1ABF194610467FEA655C1CBF0B46CE
:10068800024650EA013406BF52EA033591EA030FE5
:1006980041F4002130BD00BF90F0000F04BF0021DD
:1006A800704730B54FF4806404F132044FF0000510
:1006B8004FF0000150E700BF90F0000F04BF002189
:1006C800704730B54FF4806404F1320410F00045EF
:1006D80048BF40424FF000013EE700BF42004FEAEA
:1006E800E2014FEA31014FEA02701FBF12F07F4367
:1006F80093F07F4F81F06051704732F07F4208BF1E
:10070800704793F07F4F04BF41F40021704730B524
:100718004FF4607401F0004521F000411CE700BF70
:1007280050EA010208BF704730B54FF000050AE0F3
:1007380050EA010208BF704730B511F0004502D5F4
:10074800404261EB41014FF4806404F132045FEAF6
:10075800915C3FF4D8AE4FF003025FEADC0C18BF9F
:1007680003325FEADC0C18BF033202EBDC02C2F191
:10077800200300FA03FC20FA02F001FA03FE40EA23
:100788000E0021FA02F11444BDE600BF4FF0FF3C11
:1007980006E000BF4FF0010C02E000BF4FF0010C73
:1007A8004DF804CD4FEA410C7FEA6C5C4FEA430CEC
:1007B80018BF7FEA6C5C1BD001B050EA410C0CBF3B
:1007C80052EA430C91EA030F02BF90EA020F00209D
:1007D800704710F1000F91EA030F58BF994208BF04
:1007E80090422CBFD8176FEAE37040F001007047C1
:1007F8004FEA410C7FEA6C5C02D150EA013C07D118
:100808004FEA430C7FEA6C5CD6D152EA033CD3D062
:100818005DF8040B704700BF8446104662468C465C
:100828001946634600E000BF01B5FFF7B7FF00288F
:1008380048BF10F1000F01BD4DF808EDFFF7F4FFB8
:100848000CBF012000205DF808FB00BF4DF808ED43
:10085800FFF7EAFF34BF012000205DF808FB00BF66
:100868004DF808EDFFF7E0FF94BF012000205DF888
:1008780008FB00BF4DF808EDFFF7CEFF94BF01203D
:1008880000205DF808FB00BF4DF808EDFFF7C4FF36
:1008980034BF012000205DF808FB00BF4FEA410289
:1008A800B2F1E04324BFB3F5001CDCF1FE5C0DD9C6
:1008B80001F0004C4FEAC0024CEA5070B2F1004F10
:1008C80040EB830008BF20F00100704711F0804F13
:1008D80021D113F13872BCBF01F00040704741F4D8
:1008E80080114FEA5252C2F11802C2F1200C10FADC
:1008F8000CF320FA02F018BF40F001004FEAC123C0
:100908004FEAD32303FA0CFC40EA0C0023FA02F363
:100918004FEA4303CCE77FEA625307D150EA013339
:100928001EBF4FF0FE4040F44000704701F0004009
:1009380040F0FE4040F40000704700BF53B94AB988
:10094800002908BF00281CBF4FF0FF314FF0FF30CF
:1009580000F074B9ADF1080C6DE904CE00F006F8AA
:10096800DDF804E0DDE9022304B070472DE9F04723
:10097800089D04468E46002B4DD18A42944669D97B
:10098800B2FA82F252B101FA02F3C2F1200120FA5E
:1009980001F10CFA02FC41EA030E94404FEA1C48AC
:1009A800210CBEFBF8F61FFA8CF708FB16E341EAA8
:1009B800034306FB07F199420AD91CEB030306F12E
:1009C800FF3080F01F81994240F21C81023E63444F
:1009D8005B1AA4B2B3FBF8F008FB103344EA0344F3
:1009E80000FB07F7A7420AD91CEB040400F1FF3308
:1009F80080F00A81A74240F207816444023840EA45
:100A08000640E41B00261DB1D4400023C5E900437D
:100A18003146BDE8F0878B4209D9002D00F0EF8000
:100A28000026C5E9000130463146BDE8F087B3FA33
:100A380083F6002E4AD18B4202D3824200F2F9801B
:100A4800841A61EB030301209E46002DE0D0C5E91E
:100A5800004EDDE702B9FFDEB2FA82F2002A40F06A
:100A68009280A1EB0C014FEA1C471FFA8CFE01266D
:100A7800200CB1FBF7F307FB131140EA01410EFB11
:100A880003F0884208D91CEB010103F1FF3802D2B8
:100A9800884200F2CB804346091AA4B2B1FBF7F0B2
:100AA80007FB101144EA01440EFB00FEA64508D9D5
:100AB8001CEB040400F1FF3102D2A64500F2BB8012
:100AC8000846A4EB0E0440EA03409CE7C6F1200761
:100AD800B34022FA07FC4CEA030C20FA07F401FAA7
:100AE80006F31C43F9404FEA1C4900FA06F3B1FB30
:100AF800F9F8200C1FFA8CFE09FB181140EA014195
:100B080008FB0EF0884202FA06F20BD91CEB010131
:100B180008F1FF3A80F08880884240F28580A8F189
:100B280002086144091AA4B2B1FBF9F009FB1011DB
:100B380044EA014100FB0EFE8E4508D91CEB010179
:100B480000F1FF346CD28E456AD90238614440EA1C
:100B58000840A0FB0294A1EB0E01A142C846A6469C
:100B680056D353D05DB1B3EB080261EB0E0101FA25
:100B780007F722FA06F3F1401F43C5E90071002682
:100B88003146BDE8F087C2F12003D8400CFA02FCD8
:100B980021FA03F3914001434FEA1C471FFA8CFEE8
:100BA800B3FBF7F007FB10360B0C43EA064300FBD8
:100BB8000EF69E4204FA02F408D91CEB030300F176
:100BC800FF382FD29E422DD9023863449B1B89B22D
:100BD800B3FBF7F607FB163341EA034106FB0EF3B6
:100BE8008B4208D91CEB010106F1FF3816D28B4263
:100BF80014D9023E6144C91A46EA004638E72E462F
:100C0800284605E70646E3E61846F8E64B45A9D226
:100C1800B9EB020864EB0C0E0138A3E74646EAE795
:100C2800204694E74046D1E7D0467BE7023B614443
:100C380032E7304609E76444023842E7704700BFAC
:100C480010B58CB00024089409940A940B942022BF
:100C58002146684603F0D0FD2B482C4B03604FF427
:100C680080334360846001230361047680F8204068
:100C7800C462274A8262C460C36180F8304044611C
:100C880000F0DAFC002830D10123089309930023EF
:100C98000A9308A91C4800F09FFD48BB0123009354
:100CA800019303230493002302934FF40012079245
:100CB80006938DF815308DF8143003936946124861
:100CC80000F0FCFEB8B902230093019369460E4870
:100CD80000F0F4FE90B903230093019369460A4893
:100CE80000F0ECFE68B90CB010BD00F049F9CBE794
:100CF80000F046F9D2E700F043F9E4E700F040F9E4
:100D0800E9E700F03DF9EEE740050020002001404A
:100D18000100000F10B588B00023039304930593D6
:100D280006930793026803F1804303F590339A42D0
:100D380001D008B010BD0024019403F58C335A6C1F
:100D480042F480725A645A6C02F480720192019AD9
:100D580002941A6B42F001021A631B6B03F0010341
:100D68000293029B0E2303930323049303A90648CB
:100D780001F0A0F822460221122000F0B9FF12204B
:100D880000F0EEFFD5E700BF0000024000B583B0D9
:100D98000023009301931048104B036001F002F800
:100DA80080B900220092019269460B4801F057F879
:100DB80058B910226946084801F051F840B903B003
:100DC8005DF804FB00F0DCF8EBE700F0D9F8F0E799
:100DD80000F0D6F8F3E700BF880500200074004053
:100DE80000B589B0002303930493059306930793F2
:100DF8000268134B9A4202D009B05DF804FB002147
:100E0800019103F5E2331A6C42F000521A641A6C2D
:100E180002F000520192019A02911A6B42F001020B
:100E28001A631B6B03F001030293029B30230393A5
:100E38000323049303A9034801F03CF8DCE700BF4F
:100E4800007400400000024070B588B0002403948C
:100E5800049405940694079400941C4B1A6B42F072
:100E680080021A631A6B02F080020092009A0194C1
:100E78001A6B42F001021A631A6B02F00102019226
:100E8800019A02941A6B42F002021A631B6B03F078
:100E980002030293029B0E4D22464121284601F08F
:100EA800FBF80126039604960594069403A92846A0
:100EB80001F000F840230393049605940323069356
:100EC80003A9284600F0F6FF08B070BD00380240BC
:100ED8000000024008B50B480B4B03600B4B436006
:100EE80000238360C3604FF48042026143618361E1
:100EF800C361036201F02CFB00B908BD00F040F8A3
:100F0800FBE700BF9C05002000540040801A060043
:100F180030B589B000230393049305930693079390
:100F28000268144B9A4201D009B030BD00250195E2
:100F3800114C236B43F002032363236B03F002037A
:100F48000193019BC0230393122304930323069365
:100F58000423079303A9094800F0ACFF0295236C0A
:100F680043F400132364236C03F400130293029BDD
:100F7800DAE700BF00540040003802400004024095
:100F880072B6FEE700B595B03022002108A803F03C
:100F980033FC00230393049305930693079301936B
:100FA800204A116C41F080511164126C02F0805299
:100FB8000192019A02931C4B1A6842F480421A600B
:100FC8001B6803F480430293029B012308934FF4A8
:100FD8008033099302220E924FF480030F93042367
:100FE8001093A82111911292139308A801F0B2FD51
:100FF80098B90F23039302230493002305934FF416
:10100800A05306934FF480530793052103A802F0D9
:1010180007F820B915B05DF804FBFFF7B1FFFFF73B
:10102800AFFF00BF003802400070004000B589B033
:101038000023039304930593069307930193114A9E
:10104800116C41F080511164126C02F080520192CF
:10105800019A02930C4A116841F4804111601268A8
:1010680002F480420292029A01220392049305211B
:1010780003A801F0D5FF10B909B05DF804FBFFF72C
:101088007FFF00BF003802400070004000B58DB0FF
:1010980030220021684603F0AFFB02230093684624
:1010A80001F058FD10B90DB05DF804FBFFF768FFBB
:1010B80008B500F0E7F9FFF7B9FFFFF763FFFFF79F
:1010C800E5FFFFF7C1FE00F0FBF8FFF7B9FDFFF7FA
:1010D8005DFEFFF7FFFE00F051F802F0E7FC02F0BA
:1010E8000BFE02F09DFF03F029F903F071FA03F0FB
:1010F80093FA03F0E7F903F0E9F80121014800F059
:10110800D1FFF8E70000024082B0002100910B4BAC
:101118005A6C42F480425A645A6C02F4804200923B
:10112800009A01911A6C42F080521A641B6C03F009
:1011380080530193019B02B0704700BF0038024002
:10114800FEE7FEE7FEE7FEE7FEE7704770477047F9
:1011580008B500F0B1F908BD08B5024800F09AFAE0
:1011680008BD00BF40050020034AD2F8883043F488
:101178007003C2F88830704700ED00E000B587B012
:101188000023029303930493059300930193164855
:101198004FF080420260A722426083604FF0FF3226
:1011A800C26003618023836102F068F990B94FF44B
:1011B8008053029302A90C4802F06BFA68B9002325
:1011C800009301936946084802F000FC40B907B053
:1011D8005DF804FBFFF7D4FEE9E7FFF7D1FEEEE781
:1011E800FFF7CEFEF3E700BF3806002082B00368A1
:1011F800104A934204D0B3F1804F0ED002B070472A
:10120800002300930C4B5A6C42F001025A645B6C49
:1012180003F001030093009BF0E700230193064BC2
:101228001A6C42F001021A641B6C03F0010301936B
:10123800019BE3E7000001400038024070B588B028
:101248000023039304930593069307930268194BAD
:101258009A4201D008B070BD0024019403F59C3374
:101268001A6B42F002021A631A6B02F00202019230
:10127800019A02941A6B42F001021A631B6B03F085
:1012880001030293029B4FF46043039302260496E2
:101298000125079503A9084800F00CFE4FF4706378
:1012A8000393049605940694079503A9034800F050
:1012B80001FECFE7000001400004024000000240A8
:1012C80030B597B000241294139414941594109484
:1012D800119409940A940B940C940D940E940F9401
:1012E80020252A46214601A803F086FA3B483C4BB4
:1012F8000360446085604FF47A63C36004614461AD
:101308008023836102F0BAF800284CD14FF480534F
:10131800129312A9314802F0BCF9002846D12F488F
:1013280002F0D8F8002844D100231093119310A993
:101338002A4802F04BFB00283ED160230993002283
:101348000A920B920C920D920E920F9209A92348C1
:1013580002F024F9002832D1042209A91F4802F01A
:101368001DF978BB082209A91C4802F017F960BBCF
:101378000C2209A9194802F011F948BB002301936E
:10138800029303930422049205934FF400520692A9
:10139800089301A9114802F05FFBE0B90F48FFF775
:1013A8004DFF17B030BDFFF7EBFDAFE7FFF7E8FDE6
:1013B800B5E7FFF7E5FDB7E7FFF7E2FDBDE7FFF7A4
:1013C800DFFDC9E7FFF7DCFDCCE7FFF7D9FDCFE785
:1013D800FFF7D6FDD2E7FFF7D3FDDFE7F0050020E2
:1013E80000000140DFF834D00D480E490E4A0023B2
:1013F80002E0D458C4500433C4188C42F9D30B4AC1
:101408000B4C002301E013600432A242FBD3FFF728
:10141800ABFE03F0CDF9FFF74BFE7047000002204A
:10142800000000202405002068570008240500203B
:1014380020070020FEE7000010B504460E4B187880
:101448004FF47A73B3FBF0F30C4A1068B0FBF3F077
:1014580000F094FC68B90F2C01D901200AE00022A1
:1014680021464FF0FF3000F043FC054B1C60002084
:1014780000E0012010BD00BF040000200000002093
:101488000800002008B50B4B1A6842F400721A6075
:101498001A6842F480621A601A6842F480721A600C
:1014A800032000F013FC0F20FFF7C6FFFFF72CFE08
:1014B800002008BD003C0240034A1168034B1B781A
:1014C8000B441360704700BF800600200400002012
:1014D800014B1868704700BF8006002038B50446E5
:1014E800FFF7F6FF0546B4F1FF3F02D0044B1B7827
:1014F8001C44FFF7EDFF401BA042FAD338BD00BFE4
:10150800040000204A4B5A6822F440325A605A6854
:1015180041680A435A600268536823F48073536031
:1015280002685368016943EA0123536002685368FB
:1015380023F0407353600268536881680B4353601B
:101548000268936823F40063936002689368C16833
:101558000B439360826A374B9A4257D0026893686C
:1015680023F07063936002689368816A0B43936009
:101578000268936823F04053936002689368C16AD5
:101588000B4393600268936823F002039360026838
:101598009368017E43EA4103936090F82030002B62
:1015A8003FD00268536843F400635360026853688D
:1015B80023F46043536001684B68426A013A43EA86
:1015C80042334B600268D36A23F47003D362016824
:1015D800CB6AC269013A43EA0253CB620268936854
:1015E80023F4007393600268936890F8301043EA1C
:1015F800412393600268936823F4806393600268D0
:101608009368416943EA812393607047026893684D
:1016180023F0706393600268936823F040539360EB
:10162800B0E70268536823F400635360CAE700BF59
:10163800002301400100000F38B310B50446036CC5
:1016480043B1236C13F0100F0BD00120002384F852
:101658003C3010BDFFF75EFB0023636484F83C3028
:10166800EFE7236C23F4885323F0020343F00203CB
:1016780023642046FFF746FF00206064236C23F0B4
:10168800030343F001032364E0E701207047704738
:101698007047704770B5044603681E685D6816F0A9
:1016A800020F2FD005F0200262B3026C12F0100F67
:1016B80003D1026C42F4007202649A6812F0405F2F
:1016C80019D1227EBAB9DA6A12F4700F03D09A6877
:1016D80012F4806F0FD15A6822F020025A60236CEE
:1016E80023F480732364236C13F4805F03D1236C89
:1016F80043F0010323642046FFF7C9FF23686FF016
:1017080012021A6005F0800316F0040F37D0002B80
:1017180035D0236C13F0100F03D1236C43F400531E
:10172800236423689A6812F4401F21D19A6B12F43B
:10173800401F03D09A6812F4806F19D15A6812F4C6
:10174800806F15D19A6812F0405F11D1227E7AB964
:101758005A6822F080025A60236C23F48053236471
:10176800236C13F4807F03D1236C43F001032364BB
:10177800204602F0F7FD23686FF00C021A6005F0AE
:10178800400316F0010F05D023B123681B6813F03E
:10179800010F06D105F0806516F0200F00D065B95D
:1017A80070BD236C43F4803323642046FFF770FF39
:1017B80023686FF001021A60ECE7636C43F00203E0
:1017C800636423686FF020051D602046FFF761FF02
:1017D80023681D60E4E7000030B482B00023019361
:1017E80090F83C30012B00F0BB80012380F83C309E
:1017F8000B68092B41D90468E2689BB203EB4303E9
:101808001E3B4FF0070C0CFA03F322EA0303E360D4
:101818000468E2680B8803EB43031E3B8D6805FAF6
:1018280003F31343E3604B68062B3DD80468626BEF
:1018380003EB8303053B4FF01F0C0CFA03F322EA7A
:10184800030363630468626B4B6803EB8303053B24
:10185800B1F800C00CFA03F3134363630268414B09
:101868009A4251D002683F4B9A4256D0002380F8E2
:101878003C30184602B030BC7047046822699BB2FD
:1018880003EB43034FF0070C0CFA03F322EA0303BC
:101898002361046822690B8803EB43038D6805FA0A
:1018A80003F313432361BEE70C2B16D805682A6B94
:1018B80003EB8303233B1F2404FA03F322EA030305
:1018C8002B6305682A6B4B6803EB8303233B0C8867
:1018D80004FA03F313432B63C0E70568EA6A03EBD2
:1018E8008303413B1F2404FA03F322EA0303EB6258
:1018F8000568EA6A4B6803EB8303413B0C8804FAEA
:1019080003F31343EB62A9E70B68122BAAD1164A1B
:10191800536843F480035360A4E70B68103B012B22
:10192800A4D8114A536843F4000353600B68102B82
:101938009CD10E4B1B6802F1467202F52E3202F260
:101948008332A2FB03239B0C03EB83035B0001930D
:1019580002E0019B013B0193019B002BF9D185E734
:10196800022087E7002001400023014000000020FA
:1019780082B00023019390F83C30012B6CD00123F6
:1019880080F83C3003689A6812F0010F13D19A6806
:1019980042F001029A60354B1B68354AA2FB0323CB
:1019A8009B0C03EB4303019302E0019B013B019372
:1019B800019B002BF9D10268936813F0010F40D006
:1019C800036C23F4405323F0010343F4805303646E
:1019D800036C13F4807F01D100234364002380F853
:1019E8003C306FF0040313600268536843F08003CF
:1019F8005360204B5B6813F01F0F0ED1026891688B
:101A0800536803F4806311F4401F27D143BB9368E4
:101A180043F48003936000201CE003689A6802F492
:101A28004012596801F480611348834201D00020B4
:101A380010E0BAB9C1B99A6842F480029A600020ED
:101A480008E0036C43F010030364436C43F00103A4
:101A58004364002002B070470220FBE70020F9E74A
:101A68000020F7E70020F5E70020F3E7000000205A
:101A780083DE1B43002301400020014082B0002385
:101A8800019303686FF004021A600139032906D82C
:101A9800DFE801F0100C080203689B6C01930198C1
:101AA80002B0704703685B6C0193F8E703681B6C2E
:101AB8000193F4E70368DB6B0193F0E790F83C309F
:101AC800012B00F0FB8030B4012380F83C300B6818
:101AD800092B7FD90568EA689BB203EB43031E3BD9
:101AE800072404FA03F322EA0303EB600568EA68B3
:101AF8008C680B8803EB43031E3B04FA03F3134380
:101B0800EB600268936B23F4401393630468A36B40
:101B18000A69013A43EA0253A3630468A26B4B685B
:101B28000D695B1BDBB20333DBB203EB83034FF0BE
:101B38001F0C0CFA03F322EA0303A3630468A26BE5
:101B48004B680D695B1BDBB20333DBB203EB83032A
:101B5800B1F800C00CFA03F31343A3638A69584B26
:101B68009A424DD00268936823F470239360026808
:101B780093688C69234393600268936823F4401345
:101B8800936002689368CC69234393604B7D002B74
:101B980041D00268536843F4806353600B7D002B87
:101BA8003FD00268536843F4805353604B68022B5C
:101BB80057D0032B62D0012B39D00268136A23F463
:101BC8007F6323F00F0313620268136ACC68234310
:101BD800136238E005682A699BB203EB43030724C4
:101BE80004FA03F322EA03032B6105682A698C6867
:101BF8000B8803EB430304FA03F313432B6180E7D9
:101C08000268936823F4702393600268936823F44E
:101C180040139360BAE70268536823F48063536003
:101C2800BCE70268536823F480535360BEE7026838
:101C3800536923F47F6323F00F03536102685369E8
:101C4800CC682343536102681E4B9A4223D0026832
:101C58001C4B9A4228D0002380F83C30184630BCF0
:101C680070470268936923F47F6323F00F0393613D
:101C780002689369CC6823439361E4E70268D369F7
:101C880023F47F6323F00F03D3610268D369CC6820
:101C98002343D361D7E70B68122BD8D10A4A53687C
:101CA80043F480035360D2E70B68103B012BD2D872
:101CB800054A536843F400035360CCE70220704799
:101CC80001000F000020014000230140074AD368AB
:101CD80023F4E0631B041B0C000200F4E0600343E0
:101CE80043F0BF6343F40033D360704700ED00E076
:101CF80000B5194BDB68C3F30223C3F1070CBCF131
:101D0800040F28BF4FF0040C03F1040EBEF1060FB8
:101D180018D9033B4FF0FF3E0EFA0CFC21EA0C01E8
:101D280099400EFA03F322EA0303194300280BDB58
:101D38000901C9B200F1604000F5614080F8001364
:101D48005DF804FB0023E5E700F00F000901C9B2C4
:101D5800024B1954F4E700BF00ED00E014ED00E079
:101D6800002807DB00F01F02400901239340024AC4
:101D780042F82030704700BF00E100E00138B0F1C0
:101D8800807F0BD24FF0E0235861054AF02182F89A
:101D980023100020986107221A61704701207047BC
:101DA80000ED00E070B110B50446037933B10223A9
:101DB8002371002020610123237110BD4371FFF7B7
:101DC8000FF8F4E7012070474379012B2ED010B4A7
:101DD80001234371022202710468226801F0100C89
:101DE80003FA0CF31343236091B90268136803F0F4
:101DF8003C033C2B07D00123037100234371184691
:101E08005DF8044B7047536843F001035360F2E7F1
:101E180001680A6802F470123C2303FA0CFC62455C
:101E2800E9D14B6843F002034B60E4E702207047B6
:101E380010B483B0002401940068019051B901994D
:101E48000A4408320192019A1360002003B05DF839
:101E5800044B704701990A4414320192F3E743791D
:101E6800012B25D010B54FF0010E80F805E00223B4
:101E780003710468236802F0100240F6FE7C0CFA35
:101E880002FC23EA0C0C0B6849680B43934043EAB5
:101E98000C03236004682368C02101FA02F223EAD4
:101EA8000202226080F804E000234371184610BD46
:101EB8000220704700230F2B00F2E48070B582B037
:101EC80060E085685E000324B44025EA0405CC6818
:101ED800B4402C438460456825EA02054C68C4F385
:101EE80000129A402A4342605AE0DC08083450F84D
:101EF800246003F0070295000F22AA4026EA020E8A
:101F08000A69AA4042EA0E0240F824205CE007224F
:101F180000E0002202FA0EF22A4302345A4D45F834
:101F280024205A4A94686FEA0C0224EA0C054E6889
:101F380016F4801F01D04CEA0405544CA560E468EF
:101F480002EA04054E6816F4001F01D04CEA0405A5
:101F58004E4CE560646802EA04054E6816F4003FDA
:101F680001D04CEA0405494C6560246822404D685C
:101F780015F4803F01D04CEA0402444C226001333E
:101F88000F2B7DD801229A400C6804EA020C32EA31
:101F98000404F4D14C6804F00304013C012C90D9EA
:101FA8004A6802F00302032A09D0C4685D000322CC
:101FB800AA4024EA02048A68AA402243C2604A6806
:101FC80002F00302022A90D004684FEA430E03226B
:101FD80002FA0EF224EA02044A6802F0030202FA44
:101FE8000EF2224302604A6812F4403FC7D0002232
:101FF8000192274A546C44F480445464526C02F4AD
:1020080080420192019A9C08A51C1F4A52F825504B
:1020180003F003024FEA820E0F2202FA0EF225EABB
:1020280002051C4A90423FF474AF02F58062904268
:102038001AD002F58062904218D002F58062904270
:1020480016D002F58062904214D002F58062904268
:1020580012D002F58062904210D002F58062904260
:102068003FF455AF082255E7012253E7022251E712
:1020780003224FE704224DE705224BE7062249E7F2
:1020880002B070BD704700BF00380140003C0140FD
:1020980000380240000002400AB18161704709041B
:1020A80081617047436901EA030221EA030141EAB9
:1020B80002418161704703685A6912F4806F01D147
:1020C800002070476FF480625A6100230363202266
:1020D80080F83D2080F83E30026C42F00402026431
:1020E80080F83C30012070472DE9F04107460D4645
:1020F80090461E4624E0FFF7EBF9069BC01AB04253
:1021080000D8EEB900233B63202287F83D2087F8EA
:102118003E303A6C42F020023A6487F83C300120A5
:102128001EE03B689C6925EA040C1FFA8CFCBCFA8B
:102138008CFC4FEA5C1CE04511D1B6F1FF3FDAD1C7
:10214800C5F30743012BECD13B685B6925EA030C17
:102158001FFA8CFCBCFA8CFC4FEA5C1CEBE70020F5
:10216800BDE8F0812DE9F04105460E461746984630
:102178003DE01A6842F400721A602B686FF48062BE
:102188005A6100232B63202285F83D2085F83E30D4
:102198002A6C42F004022A6485F83C30012034E0BD
:1021A800FFF796F9A0EB0800B84200D8FFB9002362
:1021B8002B63202285F83D2085F83E302A6C42F0BA
:1021C80020022A6485F83C3001201EE02B689C69B7
:1021D80026EA0404A4B2003C18BF0124A4B12B6869
:1021E8005A6912F4806FC4D1B7F1FF3FD8D1C6F352
:1021F8000743012BEAD12B685C6926EA0404A4B2E0
:10220800003C18BF0124E9E70020BDE8F08170B563
:1022180004460D46164623685B6913F0800F1CD1EF
:102228002046FFF748FFD0B9B5F1FF3FF3D0FFF7DD
:102238004FF9801BA84201D8002DECD1002323635D
:10224800202284F83D2084F83E30226C42F020029F
:10225800226484F83C30012000E0002070BD012099
:10226800FCE700002DE9F04385B004460D46914691
:102278001F46DDF830800D9E0368196841F48071AF
:1022880019600096434600224FF00111FFF72CFF1A
:1022980060B9236805F0FE051D61334642462649AC
:1022A8002046FFF75FFF68B1012008E023681B683C
:1022B80013F4807F02D04FF400732364032005B029
:1022C800BDE8F0830023039323685A6903929B694E
:1022D8000393039B324641462046FFF798FF30B9E7
:1022E800012F0FD123685FFA89F61E61E7E7236C97
:1022F800042B01D00120E2E72268136843F400733D
:102308001360F7E723684FEA19221A6132464146FB
:102318002046FFF77CFF20B923685FFA89F61E6123
:10232800CDE7236C042B01D00120C8E7226813688D
:1023380043F400731360F7E7020001002DE9F0474A
:1023480084B004460D46164699460C9FDDF8348045
:102358000268136843F4806313600368196841F4E2
:1023680080711960CDF800803B4600224FF00111C2
:10237800FFF7BAFE70B95FFA85FA236805F0FE0523
:102388001D6143463A4641492046FFF7EBFE68B1D6
:10239800012008E023681B6813F4807F02D04FF403
:1023A80000732364032004B0BDE8F087002303937F
:1023B80023685A6903929B690393039B42463946F3
:1023C8002046FFF724FF80B9B9F1010F18D123681F
:1023D800F6B21E61424639462046FFF718FF68B339
:1023E800236C042B24D00120DDE7236C042B01D0BF
:1023F8000120D8E72268136843F400731360F7E7F5
:102408002368320A1A61424639462046FFF7FFFE22
:1024180018B92368F6B21E61DCE7236C042B01D0DF
:102428000120C0E72268136843F400731360F7E7DC
:102438002268136843F400731360D4E722681368B2
:1024480043F480731360CDF800803B4600224FF0C0
:1024580001112046FFF748FE68B922684AF00103D7
:10246800136143463A4609492046FFF77BFE002898
:1024780099D0012097E723681B6813F4807F02D066
:102488004FF40073236403208DE700BF02000100AE
:1024980070B504460D46164623685B6913F0040FB1
:1024A8001CD12046FFF707FED0B9B5F1FF3FF3D0A6
:1024B800FFF70EF8801BA84201D8002DECD10023AD
:1024C8002363202284F83D2084F83E30226C42F0B9
:1024D8002002226484F83C30012000E0002070BD16
:1024E8000120FCE770B505460C4616462B6859696D
:1024F80011F0400F29D1596911F0100F15D1FEF7CD
:10250800E7FF801BA04201D8002CEFD100232B63EA
:10251800202285F83D2085F83E302A6C42F02002C2
:102528002A6485F83C30012070BD6FF010025A61B2
:1025380000232B63202285F83D2085F83E302A6C45
:102548002A6485F83C300120EEE70020ECE7000023
:10255800002800F0CC8070B5044690F83D30002B80
:1025680077D0242384F83D302268136823F00103D0
:1025780013602268136843F40043136022681368E9
:1025880023F40043136000F001FE62685A4B9A423C
:1025980064D85A4B98428CBF00230123002B40F08B
:1025A800A8805749A1FB00318B0C25686A6822F086
:1025B8003F0242EA91426A6021680A6A22F03F02B9
:1025C80066684D4DAE424FD8013313430B62216804
:1025D800CA6922F44F4222F0FF026668464B9E42C7
:1025E8004CD8431E7600B3FBF6F3013340F6FC707B
:1025F800034278D0C3F30B031343CB6121680B6804
:1026080023F0C003E269206A024313430B60216888
:102618008B6823F4034323F0FF032269E068024335
:1026280013438B602168CB6823F0FF036269A069BC
:1026380002431343CB602268136843F0010313601D
:1026480000202064202384F83D30206384F83E0075
:1026580070BD80F83C30FEF75BFC82E7294B98425E
:102668008CBF0023012399E74FF4967505FB03F30C
:10267800254DA5FB03539B090133A6E7A368BBB906
:10268800451E06EB460CB5FBFCF50135C5F30B05FD
:10269800B5FA85F56D0945BBC3B9013806EB4603A4
:1026A800B0FBF3F30133C3F30B0343F40043A3E795
:1026B800451E06EB860C0CEB8C0CB5FBFCF50135C6
:1026C800C5F30B05B5FA85F56D09E4E7013806EBA6
:1026D800860303EB8303B0FBF3F30133C3F30B036C
:1026E80043F4404388E7042386E7012384E7012075
:1026F80070470120ACE700BFA08601007F841E0060
:1027080083DE1B43FF083D00D34D62102DE9F043E3
:1027180083B004460F46904699460C9EFEF7D8FEB5
:10272800054694F83D00C0B2202803D0022003B02B
:10273800BDE8F0830095192301224B492046FFF795
:10274800D3FC002840F0898094F83C30012B00F03D
:102758008680012384F83C3023681A6812F0010F40
:1027680003D11A6842F001021A602268136823F440
:1027780000631360212384F83D30402384F83E3001
:10278800002323640A9B6362BDF82C306385638D44
:102798002385364BE362019500964B4642463946FF
:1027A8002046FFF75FFD00285BD1238D002B35D035
:1027B8002A4631462046FFF72AFD20BB626A236875
:1027C80012781A61626A531C6362218D013989B2D9
:1027D8002185638D9BB2013B9BB263852368586951
:1027E80010F0040FE1D00029DFD052781A61636A33
:1027F80001336362238D013B2385638D9BB2013BCB
:102808009BB26385D1E7236C042B01D001208EE7AE
:102818002268136843F400731360F7E72A463146C9
:102828002046FFF735FE50B1236C042B01D0012060
:102838007DE72268136843F400731360F7E72268A2
:10284800136843F400731360202384F83D30002399
:1028580084F83E3084F83C3069E7022067E70220BC
:1028680065E7012063E700BF020010000000FFFFDA
:102878002DE9F04387B004460F4690469946109ECE
:10288800FEF726FE054694F83D00C0B2202804D085
:102898000227384607B0BDE8F083009519230122C6
:1028A80088492046FFF720FC002840F0438194F82F
:1028B8003C30012B00F04081012384F83C30236830
:1028C8001A6812F0010F03D11A6842F001021A6067
:1028D8002268136823F400631360222384F83D30D0
:1028E800402384F83E30002323640E9B6362BDF8C6
:1028F8003C306385638D2385734BE36201950096B5
:102908004B46424639462046FFF718FD0746002841
:1029180040F01481238D5BB9029323685A690292AF
:102928009A690292029A1A6842F400721A6075E073
:10293800012B0AD0022B1AD00023059323685A6969
:1029480005929B690593059B68E02268136823F448
:10295800806313600023039323685A6903929A697A
:102968000392039A1A6842F400721A6056E02268C9
:10297800136823F4806313602268136843F40063C8
:1029880013600023049323685A6904929B69049393
:10299800049B43E02A4631462046FFF7A3FD002862
:1029A80040F0CE8023681A69636A1A70636A01333B
:1029B8006362238D013B2385638D9BB2013B9BB2F0
:1029C80063852BE000953346002240492046FFF7F7
:1029D8008BFB002840F0B6802268136843F400732C
:1029E800136023681A69636A1A70626A531C636207
:1029F800238D013B2385638D9BB2013B9BB263858D
:102A080023681B695370636A01336362238D013B3A
:102A18002385638D9BB2013B9BB26385238D002B7D
:102A28007FD0032B54D8012BB4D0022BCAD00095E9
:102A38003346002225492046FFF756FB002840F080
:102A480083802268136823F48063136023681A69FB
:102A5800636A1A70636A01336362238D013B2385BD
:102A6800638D9BB2013B9BB2638500953346002280
:102A780016492046FFF738FB002867D122681368FB
:102A880043F40073136023681A69636A1A70626AF0
:102A9800531C6362238D013B2385638D9BB2013BED
:102AA8009BB2638523681B695370636A0133636251
:102AB800238D013B2385638D9BB2013B9BB26385CC
:102AC800ACE700BF020010000000FFFF0400010097
:102AD8002A4631462046FFF705FD002838D12368ED
:102AE8001A69636A1A70626A531C6362238D013B18
:102AF8002385638D9BB2013B9BB26385236859692B
:102B080011F0040F8AD01B695370636A0133636242
:102B1800238D013B2385638D9BB2013B9BB263856B
:102B28007CE7202384F83D30002384F83E3084F885
:102B38003C30AEE60227ACE60227AAE60127A8E663
:102B48000127A6E60127A4E60127A2E60127A0E6B9
:102B580001279EE6002800F0E08170B582B00446A7
:102B6800036813F0010F3BD09F4B9B6803F00C03E5
:102B7800042B2CD09C4B9B6803F00C03082B21D012
:102B88006368B3F5803F4FD0B3F5A02F52D0964B72
:102B98001A6822F480321A601A6822F480221A60B5
:102BA8006368002B50D0FEF793FC05468E4B1B68DC
:102BB80013F4003F14D1FEF78BFC401B6428F5D9B1
:102BC8000320B1E1884B5B6813F4800FD8D0864BA3
:102BD8001B6813F4003F03D06368002B00F09F814B
:102BE800236813F0020F54D07F4B9B6813F00C0F2F
:102BF8003ED07D4B9B6803F00C03082B33D0E36871
:102C0800002B68D0794B01221A60FEF761FC05465B
:102C1800754B1B6813F0020F54D1FEF759FC401B8B
:102C28000228F5D903207FE16F4A136843F4803303
:102C38001360B5E76C4B1A6842F480221A601A6870
:102C480042F480321A60ABE7FEF742FC0546664B59
:102C58001B6813F4003FC3D0FEF73AFC401B6428FE
:102C6800F5D9032060E1604B5B6813F4800FC6D18F
:102C78005D4B1B6813F0020F03D0E368012B40F093
:102C88005081594A136823F0F803216943EAC103C4
:102C98001360236813F0080F42D063696BB3534B7A
:102CA8000122C3F8802EFEF713FC05464E4B5B6FDE
:102CB80013F0020F34D1FEF70BFC401B0228F5D9A4
:102CC800032031E1484A136823F0F803216943EAF5
:102CD800C1031360DDE7454B00221A60FEF7F8FBDD
:102CE8000546414B1B6813F0020FD2D0FEF7F0FBEC
:102CF800401B0228F5D9032016E13C4B0022C3F8FB
:102D0800802EFEF7E5FB0546374B5B6F13F0020F8D
:102D180006D0FEF7DDFB401B0228F5D9032003E1AE
:102D2800236813F0040F77D02F4B1B6C13F0805FD0
:102D380033D1002301932C4B1A6C42F080521A6451
:102D48001B6C03F080530193019B0125284B1B68E2
:102D580013F4807F23D0A368012B34D0052B38D0FF
:102D6800214B1A6F22F001021A671A6F22F004022F
:102D78001A67A368002B3DD0FEF7AAFB06461A4B3C
:102D88001B6F13F0020F46D1FEF7A2FB801B41F226
:102D980088339842F3D90320C6E00025D6E7144AC1
:102DA800136843F480731360FEF792FB0646104BDA
:102DB8001B6813F4807FCED1FEF78AFB801B0228A4
:102DC800F5D90320B0E0084A136F43F001031367F5
:102DD800CFE7054B1A6F42F004021A671A6F42F0E8
:102DE80001021A67C5E700BF0038024000004742E9
:102DF80000700040FEF76CFB0646524B1B6F13F049
:102E0800020F08D0FEF764FB801B41F2883398421A
:102E1800F3D9032088E0EDB9A369002B00F0838083
:102E2800484A926802F00C02082A51D0022B17D0A7
:102E3800454B00221A66FEF74BFB0446414B1B68C4
:102E480013F0007F42D0FEF743FB001B0228F5D9A0
:102E5800032069E03B4A136C23F080531364DBE7DB
:102E6800394B00221A66FEF733FB0546354B1B68C3
:102E780013F0007F06D0FEF72BFB401B0228F5D984
:102E8800032051E0E369226A1343626A43EA82132A
:102E9800A26A5208013A43EA0243E26A43EA026339
:102EA800284A5360284B01221A66FEF711FB044694
:102EB800244B1B6813F0007F06D1FEF709FB001BAB
:102EC8000228F5D903202FE000202DE000202BE078
:102ED800012B2BD01B4B5B6803F48001E269914204
:102EE80026D103F03F02216A8A4223D1616A47F65C
:102EF800C0721A40B2EB811F1ED103F44031A26A9E
:102F08005208013AB1EB024F18D103F07063E26A3C
:102F1800B3EB026F14D1002006E0012070470120B6
:102F280002E0012000E0002002B070BD0120FBE7B4
:102F38000120F9E70120F7E70120F5E70120F3E791
:102F48000120F1E7003802400000474208B5314B44
:102F58009B6803F00C03042B57D0082B57D12D4B3B
:102F68005A6802F03F025B6813F4800F2AD0294B9D
:102F78005968C1F3881C4FEA4C11B1EB0C006EEB99
:102F88000E0E4FEA8E1343EA90638101091A63EB30
:102F98000E03DB0043EA5173C90011EB0C0C43F13B
:102FA8000003590200234FEA4C2041EADC51FDF7A7
:102FB800C5FC184B5B68C3F3014301335B00B0FBEE
:102FC800F3F025E0134B5968C1F3881C4FEA4C1104
:102FD800B1EB0C006EEB0E0E4FEA8E1343EA9063D2
:102FE8008101091A63EB0E03DB0043EA5173C90040
:102FF80011EB0C0C43F10003990200234FEA8C20DB
:1030080041EA9C51FDF79AFCD3E7034800E00348E6
:1030180008BD00BF0038024000127A000024F40006
:10302800002800F09B8070B50D4604464F4B1B6886
:1030380003F007038B4208D2CBB24C4A13701368D3
:1030480003F007038B4240F08B80236813F0020FD4
:1030580017D013F0040F04D0454A936843F4E053A3
:103068009360236813F0080F04D0414A936843F42F
:10307800604393603E4A936823F0F003A1680B43D2
:103088009360236813F0010F32D06368012B21D0BD
:103098009A1E012A25D9364A126812F0020F61D009
:1030A80033498A6822F0030213438B60FEF710FA53
:1030B80006462F4B9B6803F00C036268B3EB820F44
:1030C80016D0FEF705FA801B41F288339842F0D9F2
:1030D800032042E0264A126812F4003FE0D10120A2
:1030E8003BE0234A126812F0007FD9D1012034E076
:1030F8001E4B1B6803F00703AB4207D9EAB21B4B10
:103108001A701B6803F00703AB422DD1236813F034
:10311800040F06D0164A936823F4E053E1680B4382
:103128009360236813F0080F07D0114A936823F4BB
:103138006043216943EAC1039360FFF707FF0C4B23
:103148009B68C3F303130B4AD35CD8400A4B18603F
:103158000A4B1868FEF770F9002070BD012070470F
:103168000120FAE70120F8E70120F6E7003C0240D9
:1031780000380240F44E000800000020080000203B
:10318800014B1868704700BF0000002008B5FFF722
:10319800F7FF044B9B68C3F38223034AD35CD840F0
:1031A80008BD00BF00380240044F000830B4036A6D
:1031B80023F001030362036A4268846924F07304FC
:1031C8000D682C4323F0020C8B6843EA0C03104D66
:1031D800A84203D005F58065A84205D123F008036D
:1031E800CD682B4323F00403094DA84203D005F50D
:1031F8008065A84205D122F440724D692A438D6941
:103208002A43426084614A684263036230BC704763
:103218000000014030B4036A23F480730362036A38
:103228004268C46924F0730C0C6844EA0C0523F462
:1032380000738C6843EA0423114CA04203D004F5C0
:103248008064A04206D123F40063CC6843EA0423D7
:1032580023F480630A4CA04203D004F58064A042A2
:1032680007D122F440524C6942EA04128C6942EABE
:1032780004124260C5614A68C263036230BC704789
:103288000000014030B4036A23F480530362036AE8
:103298004468C26922F4E6420D6842EA052223F432
:1032A80000538D6843EA0533094DA84203D005F55C
:1032B8008065A84204D124F480444D6944EA851409
:1032C8004460C2614A680264036230BC704700BF50
:1032D8000000014010B4036A046A24F00104046287
:1032E800846924F0F00C4CEA021223F00A030B4321
:1032F800826103625DF8044B704710B4046A24F0DD
:10330800100404628469036A24F4704C4CEA0232A3
:1033180023F0A00343EA0113826103625DF8044BC2
:103328007047836823F070030B4343F007038360FF
:103338007047000090F83D30DBB2012B32D10223F8
:1033480080F83D300368194A934220D0B3F1804F8A
:103358001DD0A2F57C42934219D002F580629342B7
:1033680015D002F58062934211D002F5784293425B
:103378000DD002F57052934209D0A2F594329342CF
:1033880005D01A6842F001021A60002070479A6856
:1033980002F00702062A07D01A6842F001021A60F2
:1033A800002070470120704700207047000001404E
:1033B800704700000368304A904212D0B0F1804F45
:1033C8000FD0A2F57C4290420BD002F58062904269
:1033D80007D002F58062904203D002F5784290420D
:1033E80003D123F070034A681343234A90422AD03A
:1033F800B0F1804F27D0A2F57C42904223D002F54D
:10340800806290421FD002F5806290421BD002F584
:103418007842904217D002F57052904213D002F5CC
:10342800806290420FD002F5806290420BD0A2F5E4
:103438009832904207D002F58062904203D002F59C
:103448008062904203D123F44073CA68134323F087
:1034580080034A69134303608B68C3620B68836205
:10346800054B984203D003F58063984201D10B695C
:1034780003630123436170470000014040B310B566
:10348800044690F83D30F3B1022384F83D302146DC
:1034980051F8040BFFF78EFF012384F8463084F8B7
:1034A8003E3084F83F3084F8403084F8413084F866
:1034B800423084F8433084F8443084F8453084F846
:1034C8003D30002010BD80F83C30FDF78FFEDBE773
:1034D8000120704740B310B5044690F83D30F3B171
:1034E800022384F83D30214651F8040BFFF762FFB0
:1034F800012384F8463084F83E3084F83F3084F85D
:10350800403084F8413084F8423084F8433084F8FD
:10351800443084F8453084F83D30002010BD80F8F0
:103528003C30FFF745FFDBE70120704730B4036A02
:1035380023F010030362036A4468826922F4E642B6
:103548000D6842EA052223F020038D6843EA05133B
:10355800114DA84203D005F58065A84206D123F095
:103568008003CD6843EA051323F040030A4DA842BF
:1035780003D005F58065A84207D124F440644D695D
:1035880044EA85048D6944EA8504446082614A6896
:103598008263036230BC70470000014038B590F880
:1035A8003C30012B66D004460D46012380F83C30A0
:1035B8000C2A5AD8DFE802F0075959591B595959AA
:1035C8003059595944000068FFF7F0FD22689369A3
:1035D80043F0080393612268936923F0040393611D
:1035E8002268936929690B43936100203EE00068D3
:1035F800FFF79CFF2268936943F400639361226894
:10360800936923F48063936122689369296943EA83
:1036180001239361002029E00068FFF7FBFD226881
:10362800D36943F00803D3612268D36923F0040304
:10363800D3612268D36929690B43D361002015E05F
:103648000068FFF71FFE2268D36943F40063D36163
:103658002268D36923F48063D3612268D369296916
:1036680043EA0123D361002000E00120002384F80D
:103678003C3038BD0220FCE710B4846824F47F4C49
:1036880042EA03220A4342EA0C0282605DF8044BD4
:10369800704790F83C30012B78D010B504460123D0
:1036A80080F83C30022380F83D300268936823F4A8
:1036B8007F4323F0770393600B68602B4CD029D8A5
:1036C800402B54D00CD9502B22D1CA6849680068C5
:1036D800FFF700FE50212068FFF723FE002005E0D9
:1036E800202B0DD009D9302B0AD00120012384F8D2
:1036F8003D30002384F83C3010BD0BB1102B05D1B0
:1037080019462068FFF70DFE0020EFE70120EDE7DE
:103718000120EBE7B3F5805F34D0B3F5005F0CD13F
:10372800CB684A6889680068FFF7A6FF2268936833
:1037380043F4804393600020D8E7702B24D1CB68F2
:103748004A6889680068FFF797FF2268936843F022
:10375800770393600020C9E7CA6849680068FFF7E3
:10376800CCFD60212068FFF7DCFD0020BEE7CA68B9
:1037780049680068FFF7AEFD40212068FFF7D1FDDA
:103788000020B3E70020B1E70120AFE7022070472F
:1037980001F01F01012303FA01FC036A23EA0C0369
:1037A8000362036A02FA01F10B43036270470000E7
:1037B80010B504460846002942D194F83E30DBB2E1
:1037C800013B18BF0123002B6ED1002851D10223E1
:1037D80084F83E30012201462068FFF7D9FF2368AC
:1037E800334A934203D002F58062934203D15A6C64
:1037F80042F400425A6423682D4A934249D0B3F1F7
:10380800804F46D0A2F57C42934242D002F58062B6
:1038180093423ED002F5806293423AD002F5784254
:10382800934236D002F57052934232D0A2F59432C8
:1038380093422ED01A6842F001021A60002032E04A
:10384800042908D008290DD094F84130DBB2013B97
:1038580018BF0123B7E794F83F30DBB2013B18BF2C
:103868000123B0E794F84030DBB2013B18BF0123D5
:10387800A9E7042805D0082807D0022384F8413096
:10388800A8E7022384F83F30A4E7022384F84030F5
:10389800A0E79A6802F00702062A07D01A6842F0E1
:1038A80001021A60002010BD0120FCE70020FAE7A1
:1038B8000000014001F01F01042303FA01FC036A20
:1038C80023EA0C030362036A02FA01F10B43036261
:1038D8007047000010B50446084600293BD194F80B
:1038E8004230DBB2013B18BF0123002B67D100280F
:1038F8004AD1022384F84230042201462068FFF7A7
:10390800D9FF2268536C43F40043536423682E4A5A
:10391800934249D0B3F1804F46D0A2F57C429342FE
:1039280042D002F5806293423ED002F58062934213
:103938003AD002F57842934236D002F5705293425B
:1039480032D0A2F5943293422ED01A6842F0010286
:103958001A60002032E0042908D008290DD094F814
:103968004530DBB2013B18BF0123BEE794F8433072
:10397800DBB2013B18BF0123B7E794F84430DBB250
:10398800013B18BF0123B0E7042805D0082807D059
:10399800022384F84530AFE7022384F84330ABE7CD
:1039A800022384F84430A7E79A6802F00702062A3F
:1039B80007D01A6842F001021A60002010BD0120E9
:1039C800FCE70020FAE700BF0000014090F83C3017
:1039D800012B3DD010B4012380F83C30022380F83D
:1039E8003D3003685A689C6822F0700C0A6842EA05
:1039F8000C025A600368174A93421AD0B3F1804FF9
:103A080017D0A2F57C42934213D002F5806293420C
:103A18000FD002F5806293420BD002F578429342B0
:103A280007D002F57052934203D0A2F59432934224
:103A380004D124F080044A6814439C60012380F870
:103A48003D30002380F83C3018465DF8044B704741
:103A5800022070470000014090F83C30012B22D032
:103A6800012380F83C30CB6823F440738A68134301
:103A780023F480634A68134323F400630A681343FA
:103A880023F480530A69134323F400534A69134308
:103A980023F48043CA69134302685364002380F8FF
:103AA8003C301846704702207047000000B587B0C8
:103AB80003238DF817306420FDF710FDFF230293D0
:103AC800012301930DF11702009207226C2103488C
:103AD800FEF71CFE07B05DF804FB00BF9C05002044
:103AE80000B587B000238DF81730FF230293012318
:103AF80001930DF1170200920B226C210748FEF783
:103B0800B7FE9DF8173013F0200F02D001238DF86F
:103B180017309DF8170007B05DF804FB9C050020DE
:103B280010B584B0FFF7DCFF20B90F4B93ED000A06
:103B380004B010BDFF230293022301930B4C0094A1
:103B480001230C226C210A48FEF792FE23781B02FF
:103B580003F470636278134307EE903AF8EEE77A5D
:103B6800014BC3ED007AE0E78406002088060020B8
:103B78009C0500202DE9D0432DED028B044630EE44
:103B8800608AB0EEC87AD0ED097AB4EEE77AF1EE41
:103B980010FA01D59FED338AD4ED037A78EE277AAF
:103BA800C4ED037A94ED057AF4EEC77AF1EE10FAD3
:103BB8004EDD84ED037AD4ED047A78EE677A17EE59
:103BC800900AFCF78BFD8046894694ED007A27EE33
:103BD800087AD4ED017AD4ED036A67EEA67A77EE17
:103BE800277A17EE900AFCF779FD06460F46A0687B
:103BF800FCF774FD42464B46FCF7E2FA02460B46D8
:103C080030463946FCF70CFC80468946E069FCF7EB
:103C180065FD06460F4642464B46FCF717FE58B967
:103C2800206AFCF75BFD06460F4642464B46FCF70A
:103C38002BFE08B946464F4684ED048A304639467D
:103C4800FCF72CFE00EE100ABDEC028BBDE8D08319
:103C580094ED067AF4EEC77AF1EE10FAABD584ED5E
:103C6800037AA8E70000000008B52DED048BF0EEFC
:103C7800408AB0EE608AB0EE419A9FED1C1AF7EECA
:103C8800000A00F0D1FC18B90020BDEC048B08BD77
:103C98009FED161AF7EE000AB0EE480A00F0C4FCD1
:103CA8000028F1D09FED111AF7EE000AB0EE490A8C
:103CB80000F0BAFC0028E7D00D4B93ED001A61EE36
:103CC800288A0C4B1B68FCEEE88AC3ED0D8A61EE6E
:103CD800080AFCEEE00AC3ED0E0A21EE091ABCEE52
:103CE800C11A83ED0F1A0120CFE700BF00000000C2
:103CF80024000020F005002010B5134C00212046B8
:103D0800FFF756FD04212046FFF752FD0821204603
:103D1800FFF74EFD0C212046FFF74AFD0021204603
:103D2800FFF7D8FD04212046FFF7D4FD08212046DF
:103D3800FFF7D0FDB6EE001AF0EE410AB0EE410AE8
:103D4800FFF792FF10BD00BFF005002070B52DED04
:103D5800068B82B0B0EE408AF0EE608AB0EE419AEF
:103D680020EEA00A68EE087A30EE270AB5EEC00AFF
:103D7800F1EE10FA6EDB00F06DFE9F4B83ED000A4A
:103D88009D4DD5ED006A9D4B93ED007AC6EE877A7E
:103D9800C5ED007AF0EE680AB0EE480A00F034FE8D
:103DA80030EE090A00F050FCF0EE408A9FED949A3C
:103DB80088EE890A00F0E2FDFCEEC07ACDED017ACA
:103DC8009DF804300133DCB207EE904AB8EE678AFA
:103DD80028EE090A30EE680A00F054FC9FED89AA23
:103DE80020EE0A0AD5ED007A20EE270A864E86EDE7
:103DF800000AF7EE009A38EE698A28EE098A38EE4A
:103E0800C80A00F03FFC20EE0A0AD5ED007A20EE41
:103E1800270A7E4B83ED000AD6ED007A30EE277A2A
:103E2800B4EEE97AF1EE10FA18DDC7EE876AC6ED4E
:103E3800006A79EEE67A754BC3ED007A744B00227E
:103E48001A60631E052B00F2CF80DFE803F0113CF7
:103E5800597693B0684B00221A6091E7B7EE007A62
:103E680077EE677A37EEC00A694B83ED000AE8E718
:103E7800664BD3ED006A644B93ED007A36EE877A91
:103E8800634BD3ED007AB6EE006A67EE867A37EEBA
:103E9800277A604B83ED007A76EEA76A5E4BC3ED16
:103EA800006A5E4BC3ED007A5C4B93ED001A5A4BE7
:103EB800D3ED000A574B93ED000AFFF7D5FE02B089
:103EC800BDEC068B70BD524B93ED007AF6EE007A8E
:103ED80027EE277A4C4BD3ED007A77EE276A4D4BC5
:103EE800C3ED006A494BD3ED006A77EEA67A77EE08
:103EF800277A494BC3ED007A484B83ED007AD3E724
:103F0800434BD3ED007AB6EE007A67EE877A414BE1
:103F1800C3ED007A3D4BD3ED006A3B4B93ED007A3D
:103F280036EE877A37EE877A3B4B83ED007A77EE69
:103F3800A67A3A4BC3ED007AB6E7354BD3ED007A53
:103F4800B6EE007A67EE877A324BC3ED007A2E4BD5
:103F580093ED007A77EE876A2F4BC3ED006A2B4BFF
:103F6800D3ED006A37EE267A77EE877A2B4BC3EDCE
:103F7800007A99E7264BD3ED007AB6EE007A67EE21
:103F8800877A224B93ED007A77EE876A214BC3ED4F
:103F9800006A214BC3ED007A1B4BD3ED006A37EE64
:103FA800267A77EE877A1D4BC3ED007A7CE7164BAD
:103FB800D3ED006A154B93ED007A36EE877A144BF1
:103FC800D3ED007AB6EE006A67EE867A37EE277A86
:103FD800104B83ED007A104BC3ED007A76EEA77A8A
:103FE8000E4BC3ED007A5FE700230A4A13600A4AC2
:103FF80013600A4A136057E7C406002048000020EF
:10400800920A863FD7B3DD3FAC060020B0060020F9
:10401800A8060020B4060020B8060020BC06002030
:1040280008B59FED040AB0EE401AF0EE400AFFF71B
:104038008DFE08BD0000000070EE207A37EE811A70
:10404800DFED0F7A21EE271A0E4B83ED001A30EEC2
:10405800410A0D4B83ED000A70EEC10A0B4BC3ED0C
:10406800000A80ED000ADFED0A7A20EE270ADFED6C
:10407800097A60EEA70A30EE200A81ED000A70473F
:10408800ABAAAA3EDC060020CC060020D4060020FD
:104098003ACD133F3ACD933F70B52DED048BB0EE7A
:1040A800408AF0EE608AB0EE419A05460C46B0EEC2
:1040B800410A00F02DFB0F4E86ED000AB0EE490ACA
:1040C80000F0E0FA0C4B83ED000AD6ED007A27EEFB
:1040D800887A60EE286A37EE267A85ED007A67EEF0
:1040E800A87A20EE080A37EEC00A84ED000ABDEC73
:1040F800048B70BDD8060020E006002008B52DED21
:10410800028BB0EE408A00F0E7F9064B93ED001AF7
:10411800DFED050AB0EE480AFFF718FEBDEC028B8A
:1041280008BD00BFF4060020000000002DE9F041A2
:104138002DED028BB0EE408A1F4E204D204C3246AA
:104148002946204600F03AF9DFF89C801D4F414689
:10415800384696ED001AD5ED000A94ED000AFFF7EF
:104168006BFF194E194C1A4D3146204695ED001A31
:10417800D8ED000A97ED000AFFF78EFFD4ED000A8C
:104188009FED140A1448FFF7F5FC144C84ED000A5F
:10419800D6ED000AB0EE480A1148FFF7EBFC114BC8
:1041A80083ED000A95ED001AD4ED000AFFF7CEFD65
:1041B800BDEC028BBDE8F0819C060020940600202F
:1041C8008C06002090060020A4060020A0060020EF
:1041D800F40600200000000050000020C006002067
:1041E80078000020C80600209806002008B52DEDAC
:1041F800028BB0EE408A00F095F9074BD3ED000A28
:10420800B0EE480A0548FFF7B5FC054B83ED000AF8
:10421800BDEC028B08BD00BF00070020C8000020CD
:104228000C07002010B52DED028BB0EE408A00F08F
:1042380079F91C4C94ED000A00F006FAF0EE400AF9
:1042480084ED000A78EE407A174BC3ED007A9FEDB3
:10425800177AF4EEC77AF1EE10FA17D5DFED147A73
:1042680038EE278AB0EE480A1248FFF783FC124B53
:1042780083ED000A114BD3ED000A1148FFF77AFCD1
:10428800104B83ED000ABDEC028B10BD9FED0E7A3A
:10429800F4EEC77AF1EE10FAE4DDDFED057A38EED8
:1042A800678ADFE7FC060020D0060020DB0F49C044
:1042B800DB0FC940A0000020E40600200007002012
:1042C800C80000200C070020DB0F494008B50E4B42
:1042D8001B78032B08D8DFE803F002080B110B4BFF
:1042E80093ED000AFFF70AFF08BD00F0F5F8FBE7B9
:1042F800074B93ED000AFFF779FFF5E7054B93EDC0
:10430800000AFFF78FFFEFE71C00002014070020CA
:10431800100700204C00002008B5064B1B78013B15
:10432800DBB2022B00D908BD034B93ED000AFFF75F
:10433800FDFEF8E71C0000200C07002008B5064821
:10434800FDF716FB054B1B68054AD2ED007AFCEE1B
:10435800E77AC3ED107A08BD40050020F00500207B
:104368002800002070B50546124E01224021304633
:10437800FDF792FE01212846FDF780FB0E4C2080B8
:1043880002212846FDF77AFB608003212846FDF7C5
:1043980075FBA0800121208800F028F90221A0885F
:1043A80000F024F9FFF7B8FF002240213046FDF75E
:1043B80073FE70BD00000240E806002030B5274BB0
:1043C800D3ED006A264BD3ED007A86EEA77A254B0B
:1043D800D3ED007AC7EE276A234BD3ED007A86EE39
:1043E800A77A224B83ED007A214DB5F800C06B887F
:1043F8000CEB0304B5F804E0744407EE904AF8EEB9
:10440800E77AB0EE086AC7EE866A1A4CC4ED006A0D
:1044180007EE90CAF8EE677A174CD4ED006A77EE8B
:10442800E67A67EE277AC0ED007A07EE903AF8EE62
:10443800677AD4ED016A77EEE67A67EE277AC1EDFE
:10444800007A07EE90EAF8EE677AD4ED026A77EE22
:10445800E67A27EE277A82ED007A30BD4000002008
:104468002C0000200C00002044000020F006002052
:10447800E8060020300000203400002008B5044B76
:104488001B78012B00D008BDFFF74AFBFBE700BFF4
:104498001400002008B5084B1B78012B00D008BD7C
:1044A800FFF7ECFFDFED057A20EE270ADFED047A4F
:1044B80020EE270AF3E700BF14000020000080392F
:1044C800DB0FC94008B5FFF7E5FF024B83ED000A93
:1044D80008BD00BFF806002008B5FFF7DBFF0C4B4E
:1044E800D3ED007A30EE670A0A4B83ED000A0A4BD7
:1044F800D3ED007A20EE270A084BD3ED007A20EEA0
:10450800270A00F0A1F8064B83ED000A08BD00BF9A
:1045180018000020FC0600201000002020000020C9
:10452800F406002008B5FFF7D7FF00F09FF807EE64
:10453800900AF8EE677A9FED1E7A67EE877A1D4B30
:10454800C3ED007A1C4BD3ED006A1C4B93ED007A47
:1045580036EEC77A1A4A82ED007AC3ED006AB0EEE9
:10456800C76ADFED186AB4EEE66AF1EE10FA0ADD02
:10457800B5EEC07AF1EE10FA12DDDFED136A37EE10
:10458800667A82ED007A0E4B93ED007AF6EE006AB9
:1045980027EE267AC7EE276A0C4BC3ED006A08BDE2
:1045A800DFED096A37EE267A054B83ED007AEAE7F4
:1045B800BD37863508070020FC060020F8060020D5
:1045C80004070020DB0F4940DB0FC940000700202B
:1045D80010B5054C00212046FDF7F6FB10212046BA
:1045E800FDF7F2FB10BD00BF8805002008B50346A3
:1045F800012902D0022906D008BD0022114605482B
:10460800FDF716FCF8E7002210210248FDF710FC20
:10461800F2E700BF8805002008B50248FEF78AFEC9
:1046280008BD00BF38060020B4EEE00AF1EE10FA2B
:1046380006DCB4EEC10AF1EE10FA03D4012070478B
:10464800002070470020704708B5DFED070A00F02A
:10465800DDF9B5EEC00AF1EE10FA00DB08BDDFEDBA
:10466800027A30EE270AF9E7DB0FC940034B1B68D3
:10467800586A034A106000225A62704738060020C0
:1046880018070020DFED1F7A20EE270AB5EEC00AD2
:10469800F1EE10FAFDEEC07A04D517EE903A013B20
:1046A80007EE903AF8EEE77A9FED177A30EE670A50
:1046B80020EE070AFCEEC07A17EE903A9BB2B3F5EB
:1046C800007F1AD207EE903AF8EE677A591C30EE5E
:1046D800670A0E4AF7EE007A02EB830302EB8102C7
:1046E80093ED007AD2ED006A77EEC07A20EE260AC2
:1046F80067EE877A37EE800A704730EE470A012165
:104708000023E6E783F9223E000000440C4F00082E
:10471800DFED217A20EE270AF5EE007A30EE270A3F
:10472800B5EEC00AF1EE10FAFDEEC07A04D517EE28
:10473800903A013B07EE903AF8EEE77A9FED177A48
:1047480030EE670A20EE070AFCEEC07A17EE903AC0
:104758009BB2B3F5007F1AD207EE903AF8EE677A6B
:10476800591C30EE670A0E4AF7EE007A02EB830313
:1047780002EB810293ED007AD2ED006A77EEC07AFF
:1047880020EE260A67EE877A37EE800A704730EE09
:10479800470A01210023E6E783F9223E000000448E
:1047A8000C4F0008014B1868704700BFF00000204C
:1047B80070B50D4E0D4D761BB61006D0002455F879
:1047C800043B01349847A642F9D1094E094D761B9E
:1047D80000F080FBB61006D0002455F8043B0134E5
:1047E8009847A642F9D170BD5C5700085C5700088D
:1047F800645700085C570008830730B548D0541E3A
:10480800002A3FD0CAB2034601E0013C3AD303F87C
:10481800012B9D07F9D1032C2DD9CDB245EA0525E9
:104828000F2C45EA054536D9A4F1100222F00F0CE9
:1048380003F1200EE6444FEA121C03F1100242E98C
:10484800045542E9025510327245F8D10CF10102C3
:1048580014F00C0F03EB021204F00F0C13D0ACF1A0
:10486800040323F003030433134442F8045B934224
:10487800FBD10CF003042CB1CAB21C4403F8012B81
:104888009C42FBD130BD64461346002CF4D1F9E7B5
:1048980003461446BFE71A46A446E0E7024B13B1A5
:1048A800024800F005B8704700000000C54800083D
:1048B800002301461A46184600F01AB838B5084BC6
:1048C800084D5B1B9C1007D0043B1D44013C55F868
:1048D80004399847002CF9D1BDE8384000F000BBF6
:1048E8006857000864570008704700BF704700BF4A
:1048F8002DE9F047DFF880A00646DAF80000984670
:104908000F469146FFF7F0FF1A4B1B68D3F8484152
:1049180024B365681F2D26DC5EB96B1C0235DAF8F6
:104928000000636044F82570FFF7E0FF0020BDE851
:10493800F08704EB85010123C1F88890D4F8882119
:10494800AB401A43022EC4F88821C1F80881E4D18B
:10495800D4F88C211343C4F88C31DEE703F5A67430
:10496800C3F84841D5E7DAF80000FFF7BFFF4FF07A
:10497800FF30DCE7105700082005002010EE102A51
:10498800C2F3C7537F3B162B22F0004128DC002BD3
:1049980018DB1A4919410A4221D0DFED197A70EE65
:1049A800277AF5EEC07AF1EE10FA18DD002A04DA5B
:1049B8004FF4000040FA03F31A4422EA010300EE20
:1049C800103A7047DFED0E7A70EE277AF5EEC07A6E
:1049D800F1EE10FA03DD002A08DB9FED0A0A7047A2
:1049E800B1F1FF4FFBD330EE000A7047FFEE007ABB
:1049F800002918BFB0EE670A704700BFFFFF7F00AD
:104A0800CAF249710000000000F046B808B52DED63
:104A1800028BF0EE408AB0EE608A00F0E5F8F4EE22
:104A2800488AF1EE10FA06D6DFED098AB4EE688AF4
:104A3800F1EE10FA02D0BDEC028B08BDFFF7B2FE12
:104A480088EEA80ABDEC028B2123036008BD00BFD5
:104A58000000000008B52DED028BB0EE408A00F092
:104A680053F9B4EE488AF1EE10FA06D6DFED098A5A
:104A7800B4EEE88AF1EE10FA02D4BDEC028B08BD60
:104A8800FFF790FE88EEA80ABDEC028B2123036095
:104A980008BD00BF0000000010B582B0CDED010ACE
:104AA800019B23F00042B2F1FF4FF0EE407A30DC78
:104AB80010EE100A20F00041B1F1FF4F29DCB3F1EC
:104AC8007E5F42D09C1704F0020444EAD07431B3EC
:104AD8007AB3B2F1FF4F40D0B1F1FF4F29D08A1A13
:104AE800B2F1F45F4FEAE25134DA002B42DA3C319A
:104AF80040DA9FED340A012C4ED0022C43D064B129
:104B08009FED317ADFED317A30EE070A30EE670A31
:104B180003E09DED017A37EE270A02B010BD022CA2
:104B280010D09FED2B0A032C18BFB0EE670A02B015
:104B380010BD9FED280ADFED287A0028B8BFB0EE37
:104B4800670AEAE79FED210AE7E702B0BDE81040EF
:104B580000F0DEB89FED1F0ACDE7B1F1FF4F04F179
:104B6800FF3420D0022C26D81C4B03EB840494ED90
:104B7800000AD2E79DED017A87EE870A00F0A2F9D4
:104B880000F0C6F8B7E79FED107ADFED107A30EE47
:104B9800070A37EEC00AC0E710EE103A03F10043E7
:104BA80000EE103AB9E7022C08D80D4B03EB840449
:104BB80094ED000AB1E79FED030AAEE79FED090AFD
:104BC800ABE700BF000000002EBDBB33DB0F494040
:104BD800DB0F49C0DB0FC93FDB0FC9BF20570008F7
:104BE80014570008DB0F493F30B583B0CDED010AFB
:104BF800019D35F0004041D010EE10EA2EF0004340
:104C0800B3F1FF4F3ADAB0F1FF4F37DC83423BDBB9
:104C18000EF000443AD01EF0FF4F56D11902002979
:104C28006FF07D0204DD4900002902F1FF32FADC51
:104C380015F0FF4F57D101026FF07D0C03D44900E6
:104C48000CF1FF3CFBD512F17E0F47DBCEF31603C8
:104C580043F400031CF17E0F3ADBC5F3160040F461
:104C68000000B2EB0C0204D117E00FD04B00013A60
:104C780013D0191A0029F8DA5B00F8E7DDED017A9C
:104C880060EE277A87EEA70A03B030BD1D4B03EB11
:104C9800547393ED000A03B030BD181A58BF034689
:104CA8001BB9F3E75B000CF1FF3CB3F5000FF9DB30
:104CB8001CF17E0F1CDBA3F500030CF17F0C2343D2
:104CC80043EACC5300EE103ADEE7DA157F3AAFE755
:104CD8006FF07D01A1EB0C018840C2E76FF07D0108
:104CE800891A8B40B6E74FEAE05CACF17F0CAAE783
:104CF8006FF07D02A2EB0C0C43FA0CF3234300EE99
:104D0800103AC1E72C570008B1EEC00A704700BF3F
:104D180038B510EE105A25F00044B4F1A14FF0EE6A
:104D2800407A0BDBB4F1FF4F5BDCDFED537A9FED8C
:104D3800530A002DC8BFB0EE670A38BD504B9C42DD
:104D48005EDCB4F1445F4FDB4FF0FF3367EEA76AD8
:104D5800DFED4C4ADFED4C5A9FED4C5A9FED4C4A23
:104D680026EEA67AB0EE666AE7EE245A5A1CDFED04
:104D7800494ADFED496AA5EE875AE7EE246ADFED76
:104D8800475ADFED474AE6EE875AA5EE074A9FEDF8
:104D9800455ADFED456AA5EE875AE4EE074ADFED8E
:104DA800435AE4EE876AE5EE075A66EE866A25EE10
:104DB800877A3AD03E4A02EB830276EE876A92ED12
:104DC800000A3C4A96EEA70A02EB8303002D93EDF6
:104DD800007A70EE677A37EE670AAEDAB1EE400A0B
:104DE80038BD30EE000A38BD9FED337A30EE077AD1
:104DF800F7EE006AB4EEE67AF1EE10FAA4DD38BDFB
:104E080000F060F82D4B9C4216DCA3F5D0039C42C1
:104E180027DCF0EE007ABFEE007AA0EE277A0023B6
:104E280030EE270AC7EE007A90E776EE876AE6EE5C
:104E3800E77AB0EE670A38BD214B9C420BDCF7EEEF
:104E4800087AB7EE007AA0EE277A022330EE670AD6
:104E5800C0EE077A7AE7BFEE007AC7EE007A03233E
:104E680074E7F7EE007A30EE677A30EE270A01230E
:104E7800C7EE007A6AE700BFDB0FC93FDB0FC9BF87
:104E8800FFFFDF3ED769853C59DA4B3D356B883DDE
:104E98006E2EBA3D21A215BD6BF16EBD95879DBDE5
:104EA8002549123E388EE3BDABAAAA3ECDCC4CBEF6
:104EB8004457000834570008CAF24971FFFF973F6A
:104EC800FFFF1B4010EE103A23F0004300EE103AAB
:104ED800704700BFF8B500BFF8BC08BC9E467047D5
:0C4EE800F8B500BFF8BC08BC9E4670473F
:104EF4000000000000000000010203040607080986
:104F0400000000000102030400000000920E493C6E
:104F1400B10AC93C2BC3163D2EFB483D752B7B3D86
:104F240004A9963D80B6AF3D36BDC83D2FBCE13DDA
:104F340073B2FA3D87CF093E8340163EB5AB223E9D
:104F4400A2102F3ECF6E3B3EC2C5473E0115543ED4
:104F5400135C603E7F9A6C3ECCCF783EC07D823E2F
:104F6400938E883E229A8E3E32A0943E86A09A3E2C
:104F7400E59AA03E128FA63ED47CAC3EEF63B23ECF
:104F84002A44B83E491DBE3E15EFC33E53B9C93E3F
:104F9400CA7BCF3E4136D53E80E8DA3E4F92E03EB2
:104FA4007533E63EBBCBEB3EEA5AF13ECBE0F63E30
:104FB400275DFC3EE4E7003F3D9C033F824B063FF8
:104FC4009BF5083F6B9A0B3FDA390E3FCDD3103F68
:104FD4002A68133FD9F6153FC07F183FC6021B3F0E
:104FE400D17F1D3FCBF61F3F9967223F25D2243F37
:104FF4005636273F1594293F4AEB2B3FDE3B2E3F85
:10500400BB85303FC9C8323FF304353F233A373FAD
:105014004268393F3B8F3B3FF9AE3D3F67C73F3F57
:1050240070D8413F01E2433F03E4453F65DE473F1B
:1050340012D1493FF8BB4B3F029F4D3F207A4F3F6F
:105044003D4D513F4918533F31DB543FE595563FA1
:105054005348583F6AF2593F1A945B3F532D5D3FC2
:1050640005BE5E3F2146603F97C5613F5A3C633FA2
:1050740059AA643F880F663FD86B673F3CBF683FBF
:10508400A7096A3F0C4B6B3F5E836C3F93B26D3F45
:105094009ED86E3F73F56F3F0809713F5213723FFC
:1050A4004714733FDD0B743F0BFA743FC6DE753F44
:1050B40007BA763FC58B773FF853783F9812793F0C
:1050C4009DC7793F02737A3FBE147B3FCDAC7B3FD3
:1050D400283B7C3FC9BF7C3FAC3A7D3FCCAB7D3F96
:1050E40023137E3FB0707E3F6DC47E3F580E7F3FDA
:1050F4006D4E7F3FAB847F3F0FB17F3F97D37F3FA0
:1051040043EC7F3F11FB7F3F0000803F11FB7F3F5B
:1051140043EC7F3F97D37F3F0FB17F3FAB847F3F0B
:105124006D4E7F3F580E7F3F6DC47E3FB0707E3F13
:1051340023137E3FCCAB7D3FAC3A7D3FC9BF7C3F60
:10514400283B7C3FCDAC7B3FBE147B3F02737A3F50
:105154009DC7793F9812793FF853783FC58B773FC5
:1051640007BA763FC6DE753F0BFA743FDD0B743F1A
:105174004714733F5213723F0809713F73F56F3F31
:105184009ED86E3F93B26D3F5E836C3F0C4B6B3F7A
:10519400A7096A3F3CBF683FD86B673F880F663FEB
:1051A40059AA643F5A3C633F97C5613F2146603F1B
:1051B40005BE5E3F532D5D3F1A945B3F6AF2593F33
:1051C4005348583FE595563F31DB543F4918533F08
:1051D4003D4D513F207A4F3F029F4D3FF8BB4B3F1F
:1051E40012D1493F65DE473F03E4453F01E2433FB7
:1051F40070D8413F67C73F3FF9AE3D3F3B8F3B3FD0
:105204004268393F233A373FF304353FC9C8323F38
:10521400BB85303FDE3B2E3F4AEB2B3F1594293FA5
:105224005636273F25D2243F9967223FCBF61F3FAE
:10523400D17F1D3FC6021B3FC07F183FD9F6153FE3
:105244002A68133FCDD3103FDA390E3F6B9A0B3FD8
:105254009BF5083F824B063F3D9C033FE4E7003F3C
:10526400275DFC3ECBE0F63EEA5AF13EBBCBEB3E7B
:105274007533E63E4F92E03E80E8DA3E4136D53E55
:10528400CA7BCF3E53B9C93E15EFC33E491DBE3E4E
:105294002A44B83EEF63B23ED47CAC3E128FA63EA5
:1052A400E59AA03E86A09A3E32A0943E229A8E3E73
:1052B400938E883EC07D823ECCCF783E7F9A6C3EF2
:1052C400135C603E0115543EC2C5473ECF6E3B3E63
:1052D400A2102F3EB5AB223E8340163E87CF093E37
:1052E40073B2FA3D2FBCE13D36BDC83D80B6AF3D3B
:1052F40004A9963D752B7B3D2EFB483D2BC3163DE3
:10530400B10AC93C920E493C00000000920E49BC0F
:10531400B10AC9BC2BC316BD2EFB48BD752B7BBD82
:1053240004A996BD80B6AFBD36BDC8BD2FBCE1BDD6
:1053340073B2FABD87CF09BE834016BEB5AB22BE99
:10534400A2102FBECF6E3BBEC2C547BE011554BED0
:10535400135C60BE7F9A6CBECCCF78BEC07D82BE2B
:10536400938E88BE229A8EBE32A094BE86A09ABE28
:10537400E59AA0BE128FA6BED47CACBEEF63B2BECB
:105384002A44B8BE491DBEBE15EFC3BE53B9C9BE3B
:10539400CA7BCFBE4136D5BE80E8DABE4F92E0BEAE
:1053A4007533E6BEBBCBEBBEEA5AF1BECBE0F6BE2C
:1053B400275DFCBEE4E700BF3D9C03BF824B06BFF4
:1053C4009BF508BF6B9A0BBFDA390EBFCDD310BF64
:1053D4002A6813BFD9F615BFC07F18BFC6021BBF0A
:1053E400D17F1DBFCBF61FBF996722BF25D224BF33
:1053F400563627BF159429BF4AEB2BBFDE3B2EBF81
:10540400BB8530BFC9C832BFF30435BF233A37BFA9
:10541400426839BF3B8F3BBFF9AE3DBF67C73FBF53
:1054240070D841BF01E243BF03E445BF65DE47BF17
:1054340012D149BFF8BB4BBF029F4DBF207A4FBF6B
:105444003D4D51BF491853BF31DB54BFE59556BF9D
:10545400534858BF6AF259BF1A945BBF532D5DBFBE
:1054640005BE5EBF214660BF97C561BF5A3C63BF9E
:1054740059AA64BF880F66BFD86B67BF3CBF68BFBB
:10548400A7096ABF0C4B6BBF5E836CBF93B26DBF41
:105494009ED86EBF73F56FBF080971BF521372BFF8
:1054A400471473BFDD0B74BF0BFA74BFC6DE75BF40
:1054B40007BA76BFC58B77BFF85378BF981279BF08
:1054C4009DC779BF02737ABFBE147BBFCDAC7BBFCF
:1054D400283B7CBFC9BF7CBFAC3A7DBFCCAB7DBF92
:1054E40023137EBFB0707EBF6DC47EBF580E7FBFD6
:1054F4006D4E7FBFAB847FBF0FB17FBF97D37FBF9C
:1055040043EC7FBF11FB7FBF000080BF11FB7FBF57
:1055140043EC7FBF97D37FBF0FB17FBFAB847FBF07
:105524006D4E7FBF580E7FBF6DC47EBFB0707EBF0F
:1055340023137EBFCCAB7DBFAC3A7DBFC9BF7CBF5C
:10554400283B7CBFCDAC7BBFBE147BBF02737ABF4C
:105554009DC779BF981279BFF85378BFC58B77BFC1
:1055640007BA76BFC6DE75BF0BFA74BFDD0B74BF16
:10557400471473BF521372BF080971BF73F56FBF2D
:105584009ED86EBF93B26DBF5E836CBF0C4B6BBF76
:10559400A7096ABF3CBF68BFD86B67BF880F66BFE7
:1055A40059AA64BF5A3C63BF97C561BF214660BF17
:1055B40005BE5EBF532D5DBF1A945BBF6AF259BF2F
:1055C400534858BFE59556BF31DB54BF491853BF04
:1055D4003D4D51BF207A4FBF029F4DBFF8BB4BBF1B
:1055E40012D149BF65DE47BF03E445BF01E243BFB3
:1055F40070D841BF67C73FBFF9AE3DBF3B8F3BBFCC
:10560400426839BF233A37BFF30435BFC9C832BF34
:10561400BB8530BFDE3B2EBF4AEB2BBF159429BFA1
:10562400563627BF25D224BF996722BFCBF61FBFAA
:10563400D17F1DBFC6021BBFC07F18BFD9F615BFDF
:105644002A6813BFCDD310BFDA390EBF6B9A0BBFD4
:105654009BF508BF824B06BF3D9C03BFE4E700BF38
:10566400275DFCBECBE0F6BEEA5AF1BEBBCBEBBE77
:105674007533E6BE4F92E0BE80E8DABE4136D5BE51
:10568400CA7BCFBE53B9C9BE15EFC3BE491DBEBE4A
:105694002A44B8BEEF63B2BED47CACBE128FA6BEA1
:1056A400E59AA0BE86A09ABE32A094BE229A8EBE6F
:1056B400938E88BEC07D82BECCCF78BE7F9A6CBEEE
:1056C400135C60BE011554BEC2C547BECF6E3BBE5F
:1056D400A2102FBEB5AB22BE834016BE87CF09BE33
:1056E40073B2FABD2FBCE1BD36BDC8BD80B6AFBD37
:1056F40004A996BD752B7BBD2EFB48BD2BC316BDDF
:10570400B10AC9BC920E49BC00000080F800002018
:10571400DB0F49BFE4CB1640E4CB16C00000008089
:10572400DB0F4940DB0F49C000000000000000808F
:105734003863ED3EDA0F493F5E987B3FDA0FC93F8D
:105744006937AC3168212233B40F14336821A23392
:0857540020B2FF7F01000000FC
:08575C00A5480008AD0100089A
:0457640089010008AF
:105768000024F40001000000100000000000A04127
:105778000000803F01000000A0717A400300000093
:105788000000E04000007A4500E0764500008045D2
:10579800000000450070004500700045008000458D
:1057A800333353400AD7A33B00007041DB0F494015
:1057B8009A99193E00000000000000000000000057
:1057C800000000000000C8420000C8C20000A0405D
:1057D8000000A0C0000000009A99193E00000000D7
:1057E8000000000000000000000000000000C842A7
:1057F8000000C8C20000A0400000A0C000000000D7
:105808000000004000000000000000000000000050
:10581800000000000000C8420000C8C20000A0400C
:105828000000A0C0000000009A99993E0AD7233CC6
:105838000000000000000000000000000000964387
:10584800000096C30000803F000080BF00000000F9
:10585800F80000200000000000000000E403002021
:105868004C040020B40400200000000000000000E8
:105878000000000000000000000000000000000020
:105888000000000000000000000000000000000010
:105898000000000000000000000000000000000000
:1058A80000000000000000000000000000000000F0
:1058B80000000000000000000000000000000000E0
:1058C80000000000000000000000000000000000D0
:1058D80000000000000000000000000000000000C0
:1058E80000000000000000000000000000000000B0
:1058F80000000000000000000000000000000000A0
:1059080001000000000000000E33CDAB34126DE63C
:10591800ECDE05000B0000000000000000000000A5
:10592800000000000000000000000000000000006F
:10593800000000000000000000000000000000005F
:10594800000000000000000000000000000000004F
:10595800000000000000000000000000000000003F
:045C88001C070020D5
:04000005080013EDEF
:00000001FF
